:020000040800F2
:1020000000500020A10C01089D0C01089B0C010848
:102010009B0C01089B0C01089B0C010800000000B0
:102020000000000000000000000000009D0C0108FE
:102030009D0C0108000000009D0C010811530008D0
:102040009B0C01089B0C01089B0C01089B0C0108D0
:102050009B0C01089B0C01089B0C01089B0C0108C0
:102060009B0C01089B0C01089B0C01089B0C0108B0
:102070009B0C01089B0C01089B0C01089B0C0108A0
:102080009B0C01089B0C01089B0C01089B0C010890
:10209000D55100089B0C01089B0C01089B0C010802
:1020A0009B0C01089B0C01089B0C01089B0C010870
:1020B00029530008BD5300089B0C01089B0C010824
:1020C0009B0C01089B0C01089B0C01089B0C010850
:1020D0009B0C01089B0C01089B0C01089B0C010840
:1020E0009B0C01089B0C0108C95100089B0C0108BE
:1020F0009B0C01089B0C01089B0C01089B0C010820
:102100009B0C01089B0C01089B0C01089B0C01080F
:102110009B0C01089B0C01089B0C01089B0C0108FF
:102120009B0C01089B0C01089B0C01089B0C0108EF
:102130009B0C01089B0C01089B0C01089B0C0108DF
:102140009B0C01089B0C01089B0C01089B0C0108CF
:102150002DE9F003DDE908890B4C0C4D0C4E0D4FB9
:10216000C4E90023DDE90623C5E90023DDE90A23EC
:10217000C6E90023084A094BC7E90089BDE8F00316
:1021800010601960704700BF280C0020300C002040
:10219000400C0020200C0020580C0020600C002077
:1021A0002DE9F0414CA3D3E90023DFF85081044628
:1021B000D8F80070D8F80460384626F000410FF0D7
:1021C000EDFC002851D120460FF004FA04460D46DC
:1021D000224638462B4631460FF0B8FC002842D143
:1021E000224638462B4631460FF0BAFC00284DD027
:1021F0003D4B3846D3E9002331460FF08DF8224697
:102200002B4607460E460FF0BFFC002854D022464E
:102210002B46C8E9002332A3D3E900233349DFF872
:10222000E080D1E900010FF029FA224625F00043B1
:102230000FF04EFB0BF0A4FF0FF0F8FC0022C8F8E3
:1022400000000023204629460FF08AFC00283DD1DB
:1022500020462946002200230FF0A0FC003018BFC2
:102260000120234B1860BDE8F0813846314600223A
:1022700000230FF075FC044628BB38463146002287
:1022800000230FF08BFC20B31A4DA1E7164B384604
:10229000D3E9002331460FF03DF822462B4607468E
:1022A0000E460FF067FC0028B1D13A4633463C4653
:1022B0003546C8E90023AEE73A4633463C46C8E90E
:1022C00000233546A7E700240B4D81E74FF0FF3090
:1022D000C7E7044605467BE700000000008ED240B9
:1022E00000000000006AF840200C0020280C0020AC
:1022F000480C0020008ED240008ED2C0780C002006
:10230000380C0020000000002DE9F8430FF062F9BE
:10231000DFF848810446D8F80070D8F804603A46DF
:1023200033460D460FF012FC00285DD142A3D3E9DD
:102330000023814626F0004138460FF02FFC88B17B
:1023400038463146002200230FF00AFC04460028DC
:102350006FD138463146002200230FF01FFC0028C1
:1023600061D0394D224638462B4631460FF0F8FBF6
:1023700000283BD0354B3846D3E9002331460EF0D8
:10238000CBFF22462B4607460E460FF007FC0028DF
:1023900042D022462B46C8E9002329A3D3E90023D3
:1023A0002B49DFF8BC80D1E900010FF067F9224624
:1023B00025F000430FF08CFA0BF0E2FE0FF036FC34
:1023C0000022C8F800000023204629460FF0C8FB71
:1023D00060BB20462946002200230FF0DFFB0030BF
:1023E00018BF01201B4B1860BDE8F883174B384617
:1023F000D3E9002331460EF08DFF22462B460746D7
:102400000E460FF0ADFB0028C3D13A4633463C469A
:102410003546C8E90023C0E73A4633463C46C8E99A
:1024200000233546B9E7044605469BE74FF0FF30E9
:10243000D8E74C46084D95E700000000008ED240DA
:1024400000000000006AF840008ED240400C0020DE
:10245000300C0020700C0020008ED2C0680C0020D0
:102460005C0C002010B5084C00F0A6FC2168074861
:1024700000F0AAFC064A0023236011680548BDE865
:10248000104002F0DFBE00BF580D0020980D002064
:10249000280E0020840C00202DE9F04FDFF80C827C
:1024A000734E8DB0002304221B21724803F052FEAC
:1024B000D6E90645D8E9060122462B460EF02AFF4A
:1024C00065A3D3E900230FF0D9F806F11007D7E987
:1024D000006782468B46D8E9040132463B460EF03F
:1024E00019FF5DA3D3E900230FF0C8F85CA3D3E97B
:1024F0000023CDE90801204629460FF0BFF858A374
:10250000D3E9002380468946304639460FF0B6F8B5
:10251000594D06460F46D5E900010FF079F8002223
:10252000564B0FF0D5F9DDE90834CDE90267CDE966
:102530000634CDE9008902460B46CDE904AB50488C
:1025400003F008FE48A3D3E90023404649460FF0B4
:1025500095F84C4B4C4C8046186889460FF028F88B
:10256000D4E900230FF08AF802460B46404649465C
:102570000EF0D0FE3CA3D3E90023CDE90A0130469A
:1025800039460FF07BF8414BDFF824810646186886
:102590000F460FF00DF8D8E900230FF06FF8024650
:1025A0000B46304639460EF0B5FEDDE90A23CDE98B
:1025B0000001374803F0CEFDD4E9002350465946C8
:1025C0000FF086F9D8E9002306460F46DDE9080139
:1025D0000FF07EF93246CDE900013B462D4803F06D
:1025E000B9FDD4E900232C492C4CD1E900010FF0AE
:1025F0006FF9D8E90023D4E900890F462849064637
:10260000D1E90001CDE902890FF062F932463B467B
:10261000CDE90001234803F09DFD0DF05FFC0EF0B5
:10262000B7FF06460F46D5E900010EF0F1FF002284
:10263000124B0FF04DF902460B46304639460EF06C
:1026400069FE02460B46184803F084FD0DB0BDE854
:10265000F04F02F03DBE00BF7BAD3173C62D094186
:10266000F8C1631ADCA54C40000000000020AC401B
:10267000300D00202C200108F00E002000408F407B
:1026800038200108580C0020280C0020600C002085
:10269000642001087C200108900D0020780C0020A7
:1026A000F00C002090200108A8200108680D0020EF
:1026B000300C0020000000002DE9F84F824BDFF8BD
:1026C0004482D3E900010EF0A3FF00227F4B0FF0FC
:1026D000FFF802460B46DFF830A27D4CDFF82C9263
:1026E000DAF80000C8E90823C4E908230EF060FF07
:1026F000D9E900230EF0C2FF6DA3D3E900230FF048
:10270000E7F8744DC8E9060128680EF051FF724BD6
:10271000D3E900230EF0B2FF65A3D3E900230FF045
:10272000D7F8C8E90401404602F0B2FB6B4B1B68C6
:10273000002B40F094806A4F3E78002E6CD0D4E994
:1027400008010022674B0EF0E7FDC4E9080160486C
:1027500002F026FA56A3D3E90023D4E90601D9E909
:1027600000670EF08BFF8046DAF8000089460EF015
:102770001FFF32463B460EF081FF02460B464046A5
:1027800049460EF0C7FD4CA3D3E900238A4621F049
:10279000004183460FF002FA002851D15A465346B1
:1027A0005149C1E9002342A3D3E90023D4E904013C
:1027B0000EF064FF8046286889460EF0F9FE324626
:1027C0003B460EF05BFF02460B46404649460EF084
:1027D000A1FD39A3D3E900230C4621F000410546B1
:1027E0000FF0DCF9002859D035A3D3E900232146A6
:1027F00028460EF08FFD3D4CC4E900015146584675
:102800000FF034FAFFF7CCFCD4E900010FF02EFAF8
:10281000BDE8F84FFFF778BD354BD3E900010FF065
:1028200025FAFFF7BDFC334BD3E900010FF01EFA88
:10283000FFF76AFD304B1D78012D13D0BDE8F88FEE
:102840001FA3D3E90023584651460EF063FD0B4603
:1028500002468A4624498346C1E90023A3E7FFF7DD
:102860001BFE68E7254900220023D1E900010FF093
:102870006DF940B1224900220023D1E900010FF097
:1028800065F988B1EEB23E70D8E90023D8E90201BB
:10289000C4E90023C4E90201BDE8F88F23462A46B3
:1028A000124CC4E90023A9E70546EBE7AFF300802B
:1028B0007BAD3173C62D09410000000080C6234165
:1028C0000000000080C63341F00E002000408F4021
:1028D000300D0020600C0020300C0020B00A0020D9
:1028E000040000200000F03F900D0020F00C0020BC
:1028F000500900203809002006000020680C002044
:10290000780C0020C00C0020580C0020280C00205F
:1029100070B58AB09DF838609DF83C50069001244F
:1029200001A805910492039302960195099403F07E
:102930003BFA002801DB0DF0DBFA024B01221A7092
:102940000AB070BDE80C00202DE9F04F89B0CDE948
:1029500004010DF0C3FA0EF01BFE71A3D3E90023AE
:102960000EF0D8FC0FF03AF906460EF021FE6EA3E9
:10297000D3E9002382468B460EF0AAFF6CA3D3E96D
:1029800000230EF0C9FC6CA3D3E900230EF0C2FCB7
:102990006BA3D3E900230EF09BFF6BA3D3E90023C5
:1029A00004460D460EF06AFE69A3D3E900230EF03B
:1029B000B3FC69A3D3E90023804689462046294613
:1029C0000EF05CFE22462B460EF058FE02460B46E9
:1029D000404649460EF0A0FC61A3D3E9002380469F
:1029E0008946204629460EF049FE22462B460EF027
:1029F00045FE22462B460EF041FE02460B4640465F
:102A000049460EF087FC02460B46504659460EF0EA
:102A100083FC45A3D3E9002304460D460EF058FF7E
:102A20000BF026FB40A3D3E900230EF027FE02465D
:102A30000B46204629460EF06DFC4BA3D3E900233C
:102A400004460D46DDE904010EF018FE0022484B55
:102A50000EF03EFF02460B46204629460EF05CFC77
:102A60000022002304460D460FF084F840B12EA347
:102A7000D3E90023204629460EF04EFC04460D46BD
:102A800039A3D3E90023204629460EF021FF0BF09D
:102A9000EFFA35A3D3E90023CDE906010EF0EEFDF0
:102AA00002460B46204629460EF034FC0022314BEC
:102AB000804689460EF00CFF0BF0DAFA00222D4B0F
:102AC00082468B460EF0DAFD02460B4640464946EA
:102AD0000EF020FC0FF082F85946804650460FF069
:102AE0007DF80746DDE906010FF078F84346014618
:102AF0003A46DDE904780096CDE902781E4803F0F5
:102B000029FB204629460022194B0EF0B7FD16A3DB
:102B1000D3E900230EF0DCFE09B0BDE8F08F00BF62
:102B2000000000000020BC40000000000018F5403C
:102B3000000000C0C59E4241000000802CB442410C
:102B400000000000A0D5E1408FFF021AD77A604153
:102B5000B3412619A38BD740EB7420EBA9D5B73F1F
:102B6000CEC9E6053301DA3E000000000020AC408B
:102B700000002E4000004E40D02001080000000060
:102B80002DE9F04F8146DFF824A2DFF8248289B0D6
:102B900000240025CAE90023DDE91267CDE90045DC
:102BA00022462B4620462946C8E9006700F07AFEF7
:102BB000B9F1000F29D0B9F1010F60D001F086F909
:102BC000DAE90001FFF7C0FE6F4F00240025002660
:102BD00002460B46CDE90645CDE90445CDE902455F
:102BE000CDE90067694802F073FA684801F0D8FF40
:102BF000674D684C6848694A002330212B70236078
:102C00000360117009B0BDE8F08FDAE90001FFF749
:102C10009BFE0022624B0EF07FFB614F00260246B6
:102C20000B46CDE902674EA7D7E900675748CDE9C3
:102C30000645CDE90445CDE9004502F049FA53497E
:102C4000012000F08DFFDAE90001FFF77DFED8E9F1
:102C50000023CDE9002302460B46DFF848914FF0F0
:102C60000008CDE90645CDE90289CDE9046747486A
:102C700002F02EFA4549022000F072FF9EE7DAE9E1
:102C80000001FFF761FEDFF804B1464F002602465F
:102C90000B46CDE902675846CDE90645CDE9044526
:102CA000CDE9004502F014FA5946484600F058FFB5
:102CB0002DA3D3E90023DBE900010EF02DFB224612
:102CC0002B4606460F460EF04BFF18BBD8E9000115
:102CD0000024002522462B460EF056FF20B324A3E5
:102CE000D3E90023304639460EF0C8FC2E4FDFF8FA
:102CF000B09000264FF0000802460B46CDE906458D
:102D0000CDE90467CDE90067CDE902891F4802F0EB
:102D1000DFF9AFE7304618A3D3E9002339460EF0B8
:102D2000FBFA06460F46D1E711A3D3E9002330464C
:102D300039460EF0A3FC0FF2480CDCE900BC1A4F38
:102D4000DFF8709000264FF0000802460B46CDE9F0
:102D50000645CDE90467CDE90089CDE902BC86E7E7
:102D60008FC2F5285C7F5640182D4454FB21F93F53
:102D7000F8C1631ADCA54C40182D4454FB211940BE
:102D80000000000000E0704000002440300D0020F2
:102D9000E80C0020600C0020580C0020B40C00202F
:102DA000008056400080664000804640600D002054
:102DB000200E0020008046C0014B01221A6070479F
:102DC000B40E00200000000043181A462DE9F04F11
:102DD00093A5D5E9004596498DB0089300230B6073
:102DE000944990420B6094490B60944BC3E90045B1
:102DF00000F02285DFF87CA28346DAF80060002E1E
:102E000000F0DE808E4A8F4B975D9B5D8E4AD41812
:102E10008E4B985DB7B17B1EE31811D29BF800E092
:102E2000214602E0531E99420AD85A1A52108D5C6C
:102E30000A447545F6D880F0B084511C9942F4D903
:102E40003C443844824B9F5DE7B104EB4702023AB1
:102E5000944200F29F849BF80060214603E09A1E92
:102E6000914200F29784531A5B1023F00103CD5C6A
:102E70000B44B542F3D85D78991CB542F0D31B1BC7
:102E800000EB6300734B1E5C734BCAF800601B5C65
:102E9000002B76D0714A591CD35C02EB010808EB79
:102EA0000309C8456BD018F8013B2E2BF9D801A2B5
:102EB00052F823F0793700085D370008F73600082C
:102EC000A9360008FD350008EF350008DB3500089D
:102ED000D3350008AF3500089B3500088B35000856
:102EE0007D35000873350008573500084335000864
:102EF000F1340008C7340008B9340008B3340008BE
:102F0000AB340008973400088D3400087934000889
:102F1000A32E00086B340008AD33000831330008DD
:102F2000273300081D330008133300080933000855
:102F3000FF320008F5320008133200080932000899
:102F4000FF310008F5310008EB310008E1310008DD
:102F5000D7310008CD3100089331000879300008DE
:102F60000F30000803300008C72F0008712F000839
:102F70002DA1D1E90001FFF7E7FCC84593D1DAF8AC
:102F80000060EEB1089B0BF1010B5B457FF43AAF9B
:102F9000334B324C9A5D284EA55C531C1C4425448F
:102FA000AC420DD014F8013B172BF9D1224B2D4820
:102FB0001B68002BF4D103F007F9AC423060F1D16B
:102FC0000DB0BDE8F08F0CF089FF0CAB43F8040D99
:102FD000184602F0EDFB046A0221436882680594FA
:102FE000049141690391C168029104691E490194E9
:102FF00004681C48009403F0C1F80F4A09231360C9
:103000004FE71A4BD3E90001FFF79EFC49E7184A46
:103010001368B3FA83F35B09136042E7AFF30080F0
:1030200083C8C96D305FC440CDCCCCCCCCCC10C0F3
:103030000C00002008000020280E0020C00E0020F8
:103040005C230108A0240108A02201085C240108D7
:10305000A8210108EC200108A0230108EC210108A7
:103060005C220108840C00200C250108600D002062
:10307000B00A0020B40E0020B349B1A3D3E9002365
:10308000D1E90045204629460EF0F8FA21F0004328
:1030900019460EF0A3FD07462046AC4C01262946F2
:1030A0000022002326700EF05BFD002840F0BF8355
:1030B000A74B09961E70A74BFE1783FB0731A0A3F1
:1030C000D3E900233944C6EBE1264FF4616101FBEB
:1030D0001671A148CD1780FB0140A04F0844C5EBF5
:1030E0006015DFF8C0C2DFF8C0E23D70C5EB051423
:1030F0009B4FA1EB84048EF80060DCE900013C707A
:10310000CDE906010EF0BAFA21F0004319460EF09F
:1031100065FD00220746DDE9060100230EF03EFDB5
:10312000002800F08D83894B00221A70894BE4B28D
:1031300083FB0713F9173B44C1EBE3214FF46163B1
:1031400003FB1177844B009483FB0703F8173B4480
:10315000C0EB6310C0EB0013A7EB8307814C099B06
:103160005FFA81FE05920193CDF808E0EBB2217081
:103170007D4DC1B27D4C0391F9B20491F2B2287039
:103180007B497C48277002F0F9FF7B4A09231360D2
:1031900087E67A4D7A497B487B4C2E787B4B7C4A7C
:1031A0000978007824781B789BF8005012780196F3
:1031B000784E009401396430774C3570C9B2C0B292
:1031C000FFF7A6FB6B4E238833806AE69BF800204E
:1031D000724B1A7065E69BF800206A4B1A7060E625
:1031E0009BF800206A4B1A705BE69BF80020644B4A
:1031F0001A7056E69BF80020604B1A7051E69BF857
:103200000020614B1A704CE69BF800205F4B1A704F
:1032100047E6544A4D4B9BF8006010781E700EF044
:10322000C7F947A3D3E900230EF028FA4E4B044612
:1032300018780D460EF0BCF90022594B0EF01EFA1C
:1032400002460B46204629460EF066F8474B0446D8
:1032500018780D460EF0ACF902460B46204629467A
:103260000EF05AF836A3D3E900230EF031FB002EFE
:1032700040F0C1820B4602464A49C1E900234A4B4D
:1032800018780EF095F92EA3D3E900230EF0F6F985
:10329000324B044618780D460EF08AF90022404B56
:1032A0000EF0ECF902460B46204629460EF034F8A3
:1032B0002B4B044618780D460EF07AF902460B4661
:1032C000204629460EF028F81DA3D3E900230EF06E
:1032D000FFFA02460B461E4D1B4C2D78C4E9002315
:1032E000002D40F0738101F1004184E80300214E7C
:1032F000294CCDE09BF800201C4B1A70D1E59BF8BF
:103300000020194B1A70CCE59BF80020154B1A7061
:10331000C7E59BF800200E4B1A70C2E59BF8002011
:103320000F4B1A70BDE59BF800200C4B1A70B8E5E6
:103330009BF800201C4B1A70B3E500BFAFF3008070
:10334000000000000020AC40200E002014000020EF
:103350004C090020C5B3A2918988888811000020FB
:103360001200002013000020050000202809002082
:103370000C250108840C0020280E0020CA0E002015
:10338000BC0E0020C90E0020C80E0020BF0E002079
:10339000CB0E0020BD0E00201C250108D40E0020FD
:1033A00000004E40600D0020100000209C4B9D4A04
:1033B0009D4C11681A689D4B11609D4A1B681168ED
:1033C0009C4A19609C4E238810689C4A3380D2E93D
:1033D00000450EF0EDF822462B460EF079FA06462F
:1033E000974B324618680B460F469649C1E90023B1
:1033F0000EF0DEF822462B460EF06AFA914D924C02
:10340000C5E9020135463E46904B2268C3E90056A5
:10341000C3E90201002A3FF444AD8A4801F0C0FB31
:103420007BA3D3E900238749894DD1E906010EF03A
:1034300025F9884BD3E900230EF04AFA0EF0CEFBB3
:1034400073A3D3E900237F492860D1E904010EF07A
:1034500015F9814B814DD3E900230EF039FA0EF0B6
:10346000BDFB0023286023601BE59BF800207C49FE
:10347000714802F083FE14E50123042279496E4865
:1034800002F07CFE784A032313600AE5664C6A4E1C
:103490002388338005E5754B71491A78664802F038
:1034A0006DFE714A02231360FBE4714B6C491A787C
:1034B000F4E701226A49F1E70A23042269495E48D8
:1034C00002F05CFEEDE4584C6A4B22885A4E1B78A1
:1034D0003280002B00F08281674A684B10681B68BD
:1034E000674D00FB03F00EF063F8C5E90001CFE77C
:1034F000604B1B78002B40F06181624B624E186874
:1035000000FB00F00EF054F8604B00220EF0B6F80D
:103510000D46594B0446186840420EF049F80246E1
:103520000B46204629460EF0A9F83F4CC6E900019B
:103530002388414E5649574A338000230B7013703D
:10354000AFE49BF800304B4AA3F11103B3FA83F3C5
:103550005B091370A5E4484A012313609BF800300F
:10356000072B02D0252B7FF49CAC4FF0FF33136068
:1035700097E4444B9BF800201A6092E43F4A9BF882
:10358000001013680B4413608BE43C4A9BF8001056
:10359000136803EB0123136083E43F4B27490122A7
:1035A0001A601DA3D3E90023C1E9002379E49BF845
:1035B0000030374A13704BB138482249D0E9002314
:1035C000C1E90023D0E90223C1E902231A4E164CB7
:1035D0005EE72F4B22491A7860E7114B1549134AD1
:1035E00019601749184B116001221A6059E40C4AFE
:1035F0002B490E4B11602B4A1A6052E4084B0D49BF
:103600000A4A19600E49104B116000221A6048E402
:103610007BAD3173C62D094183C8C96D305F44410C
:10362000D00E0020080000201C250108B80E002044
:103630000C00002000000020840C0020C00E0020A0
:1036400018000020300D0020B40A0020680D002072
:10365000580C0020280C0020300C0020600C0020AA
:103660000825010818250108280E0020B40C0020A8
:10367000E80C0020D50E0020340900204409002069
:103680003809002048090020500900200000694046
:10369000060000200400002040090020C00C00208B
:1036A000300900202C090020694F6A4BD3E90045FE
:1036B000D7E90623204629460DF0E0FF0EF08EFAEA
:1036C000D7E904230646644F204629463E600DF0A4
:1036D000D5FF0EF083FA614C614922680346086009
:1036E000002A5ED132465F495F4802F047FD002361
:1036F0002360FFF7D6BB574B554CD3E90023104648
:103700001946D4E90023CDE906010DF0B7FF0EF00C
:1037100065FA04F10805D5E900450746DDE906012B
:10372000524E22462B4637600DF0A8FF0EF056FA97
:10373000002206460023204629460EF011FA0028F2
:103740005FD14B4B454C1E602368002B2FD0334676
:103750003A464849444802F011FDC8E7464A9BF8FA
:1037600000301268392B03EB0213434A8CBF373BFE
:10377000303B1360FFF795BB404A9BF8003012685E
:10378000392B03EB02133D4A8CBF373B303B1360B0
:10379000FFF787BB3844FFF775BB121B1044FFF7D8
:1037A00071BB32463349304802F0E8FC9FE73346AC
:1037B0003A462C492C4802F0E1FC98E7304B314E58
:1037C000186800FB00F00DF0F3FE2F4B00220DF007
:1037D00055FF2E4B04460D4618689EE62B4B2C4A8F
:1037E0001B6810685B4200FB03F00DF0E1FE294B03
:1037F000C3E900014CE6284B01F1004183E80300D6
:103800003DE511A3D3E90023DDE906010DF036FF04
:10381000044630460D460DF0CBFE02460B462046D0
:1038200029460DF079FD0EF0D9F9064689E71B4AC5
:103830000023099313703EE4194B1E68FFF7A8BBE1
:10384000012273E4AFF30080182D4454FB2119408A
:10385000C00C0020C00E00202C09002040090020D0
:1038600030090020F8240108840C0020000000200A
:1038700018000020E42401080C00002008000020AB
:103880004809002038090020000069403409002060
:103890004409002050090020600D00204C09002040
:1038A000B40E0020F8B514461D46DDE90623104F7E
:1038B000104EC7E90045002737700F4F0F4EC7E97C
:1038C0000001C6E90023002200230EF03FF948B1B1
:1038D00000232046294600220EF038F94FF001035C
:1038E00018B1D8B2064B1870F8BD0346F9E700BF0F
:1038F00060090020900A0020580900206809002073
:10390000910A0020000000002DE9F04F14468DB010
:103910001D4602460B4646A1D1E900010DF0FAFC16
:10392000454B8046D3E900238946204629460DF0C1
:10393000F3FC04460D46404649460AF051FB8246D8
:103940008B46204629460AF04BFB06460F4640466A
:1039500049460AF065FCCDE90001204629460AF0F7
:103960005FFC3246804689463B46504659460DF03C
:1039700085FEDDE90023314CCDE902013046DDE969
:1039800002563946C4E900560DF078FE06460F4649
:103990002B4BCDE904891B78C4E90489C4E902678B
:1039A000002B41D1274A284BD2E90089D3E90023D3
:1039B000CDE9082342464B46CDE906890DF05EFE6F
:1039C000DDE90889CDE90A01DDE9000142464B46FF
:1039D0000DF054FE02460B46DDE90A010DF09AFC9B
:1039E000DDE902230DF098FC42464B46C4E9000194
:1039F000504659460DF042FEDDE9042380468946D3
:103A0000504659460DF03AFEDDE906230DF036FE2C
:103A100002460B46404649460DF07CFC32463B468A
:103A20000DF07AFCC4E902010DB0BDE8F08F00BFD3
:103A3000182D4454FB21194068090020980A0020E1
:103A4000910A002058090020600900202DE9F04F5C
:103A500089B016461F46804689460AF0C1FA82465A
:103A60008B46304639460AF0BBFA04460D464046BE
:103A700049460AF0D5FB80468946304639460AF069
:103A8000CFFB2246CDE900012B46504659460DF0AA
:103A9000F5FD2E4ECDE90201424620462946DDE9DC
:103AA00002454B46C6E900450DF0E8FD0D46DDE94F
:103AB00000120446264BC6E90C121B78C6E90645DF
:103AC000002B3FD1234A244B4046D2E90078CDE970
:103AD00004784946D3E90089DDE904230DF0CEFDE1
:103AE0004246CDE906014B46204629460DF0C6FD6B
:103AF00002460B46DDE906010DF00CFCDDE9022370
:103B00000DF00AFCDDE90023C6E9000150465946E4
:103B10000DF0B4FD42464B460DF0B0FDDDE9042347
:103B200080468946504659460DF0A8FD02460B4690
:103B3000404649460DF0EEFB22462B460DF0ECFBCD
:103B4000C6E9060109B0BDE8F08F00BFB809002042
:103B5000910A0020600900205809002000000000A0
:103B60002DE9F84F30A3D3E900230446304E0D462B
:103B7000D1E9080134700DF081FD02460B46D5E90C
:103B800000010DF0C7FB80468946D5E902010AF025
:103B900027FA06460F46404649460AF021FA0246F1
:103BA0000B46304639460DF069FD013CDFF88CA02C
:103BB000E4B24FEAC40B0AEB0B03C3E90001404631
:103BC00049460AF02DFB04F1030E02460B4630462F
:103BD00039464FEACE060DF051FD0AEB0603C3E964
:103BE0000001D5E902010AF01BFB0634E400A244FF
:103BF000CAE90001D5E90423D5E90601FFF784FEEF
:103C00000C4B0D491E449B441C44D1E90289D1E967
:103C10000023CBE90023D1E90423C6E90089C4E9E4
:103C20000023BDE8F88F00BF1FB0F5F6A71D133FB6
:103C3000900A0020B8090020980A0020700900208E
:103C40002DE9F04FDFF87CA28BB0DAE90E89DAE9D2
:103C50000634CDE90434DAE90C671846DAE90823BA
:103C60002146CDE9002342464B460DF007FDDDE934
:103C7000002304460D46304639460DF0FFFC02464F
:103C80000B46204629460DF045FBDAE90045CDE913
:103C90000201DAE9021213460A4630463946DDE9E6
:103CA0000267CDE90623CAE904670DF0E7FC224666
:103CB00006460F462B46404649460DF0DFFC0246BD
:103CC0000B46304639460DF025FB06460F46DDE92A
:103CD000000122462B46CAE90A670DF0CFFCDDE958
:103CE000062304460D46DDE904010DF0C7FC02463B
:103CF0000B46204629460DF00DFBDDE90223044664
:103D00000D4610461946CAE910450DF0B7FC32467B
:103D1000804689463B46304639460DF0AFFC0246A8
:103D20000B46404649460DF0F7FA224606460F4636
:103D30002B46204629460DF0A1FC02460B46304694
:103D400039460DF0E9FA0AF0B5FA04460D46024686
:103D50000B46DAE904010DF0BBFD22462B46CAE909
:103D60000401DAE90A010DF0B3FDDFF85CB1224687
:103D70002B46CAE90A01DAE910010DF0A9FDDBE9D9
:103D80000634DBE90E891E46DBE908232746DBE91A
:103D90000C45CDE90023CAE9100142464B463046A6
:103DA0003946CDE904670DF069FCDDE900230646DC
:103DB0000F46204629460DF061FC02460B46304670
:103DC00039460DF0A7FADBE90067CDE90201DBE92E
:103DD000021213460A4620462946DDE90245CDE98E
:103DE0000623CBE904450DF049FC324604460D4656
:103DF0003B4640464946CDE908670DF03FFC024688
:103E00000B46204629460DF085FADDE908230646D3
:103E10000F46DDE90001CBE90A670DF02FFCDDE973
:103E2000062304460D46DDE904010DF027FC024699
:103E30000B46204629460DF06DFADDE902230446C3
:103E40000D4610461946CBE910450DF017FC3246D9
:103E5000804689463B46304639460DF00FFC024607
:103E60000B46404649460DF057FA224606460F4695
:103E70002B46204629460DF001FC02460B463046F3
:103E800039460DF049FA0AF015FA04460D46024685
:103E90000B46DBE904010DF01BFD22462B46CBE966
:103EA0000401DBE90A010DF013FD2246CBE90A010A
:103EB000DBE910012B460DF00BFDCBE910010BB037
:103EC000BDE8F08F70090020B80900202DE9F04FFF
:103ED000AF4BA9B01B78022B00F05C864822AD499D
:103EE00016A801F099FDDDE92612DDE91634DDE9B9
:103EF0001EAB0D461646DDE91812CDE906340F4615
:103F00009046DDE92012CDE90012DDE9220152469A
:103F1000CDE90201184621465B460DF0AFFB2A466B
:103F20003346CDE908560DF0A9FBDDE90023044630
:103F30000D4638464146CDE90A780DF09FFBDDE994
:103F400002230DF09BFB02460B46204629460DF04E
:103F5000E3F9DDE91C67DDE9244580468946CDE9C2
:103F600004671A9F1B9E22462B46384631460DF0A9
:103F700085FBDDE904230DF081FB42464B460DF045
:103F8000CBF95B46804689465246384606F10041E9
:103F90000DF074FBDDE902230DF070FB22460646AE
:103FA0002B460F46DDE906010DF068FBDDE9002335
:103FB0000DF064FB02460B46304639460DF0AAF977
:103FC00042464B460DF0A8F9DDE9042304460D46B0
:103FD000DDE90A01704E0DF051FBDDE9082315966D
:103FE0000DF04CFB0B460246294620460DF092F997
:103FF000B34616ABCDE9060114931C460023089383
:104000004822644916A801F007FD00220023C4E9F4
:104010000623C4E90C23614B0022C4E90023DDE937
:104020001623DDE91E01CDE91223DDE91878CDE97B
:104030000A0110461946DDE9262315461E46DDE92C
:104040002223CDE90C78DDE92089CDE90E8990465F
:104050009946DDE90A230DF011FB2A463346CDE9E6
:1040600000560DF00BFBDDE90E2306460F46DDE999
:104070000C010DF003FB42464B46CDE902890DF0E1
:10408000FDFA02460B46304639460DF045F9DDE9AA
:104090001C678946DDE9241213460A4680461B9DAB
:1040A000CDE910671A9E29463046CDE904230DF06C
:1040B000E5FADDE910230DF0E1FA42464B460DF03A
:1040C0002BF9DDE90A2380468946304605F1004197
:1040D0000DF0D4FADDE902230DF0D0FADDE9042376
:1040E00006460F46DDE912010DF0C8FADDE90E23A0
:1040F0000DF0C4FA02460B46304639460DF00AF977
:1041000042464B460DF008F9DDE9102306460F46FE
:10411000DDE90C010DF0B2FADDE900230DF0AEFA95
:1041200002460B46304639460DF0F4F8DDE9062329
:104130000DF0CEFB00260027C4E90067174F0026CC
:10414000C4E90667DDE91E89DDE91667CBE90001F0
:10415000DDE918014246CDE90A014B4630463946B1
:10416000CDE90E67DDE92056CDE90C560DF086FA53
:10417000DDE900230DF082FADDE90C2306460F4647
:10418000DDE90A010DF07AFADDE9022308E000BF5B
:10419000900A002070090020480A00200000F03F2B
:1041A0000DF06CFA02460B46304639460DF0B4F875
:1041B000DDF868A01B9D089E52462B46CDE91001F4
:1041C000DDE9040108360896DDE91C670DF056FAB2
:1041D00032463B460DF052FADDE910230DF09CF813
:1041E0004246CDE910014B46504605F100410DF025
:1041F00045FADDE902230DF041FADDE90E238046A0
:104200008946DDE904010DF039FADDE90C230DF0F2
:1042100035FA02460B46404649460DF07BF8DDE98B
:1042200010230DF079F8324680468946DDE90A010F
:104230003B460DF023FADDE900230DF01FFA02469C
:104240000B46404649460DF065F8DDE9062300259A
:1042500000260DF03DFBC4E90656AF4E0025C4E92B
:104260000C56DDE91E78DDE916563A464346DDE98F
:104270001878CBE90201DDE92601CDE900012846E5
:104280003146CDE90278DDE92089CDE90C56CDE94A
:104290000489DDE92289CDE90E230DF0EFF9DDE98E
:1042A00000230DF0EBF9DDE9042306460F46DDE9B6
:1042B00002010DF0E3F942464B460DF0DFF90246EC
:1042C0000B46304639460DF027F8DDE92467DDF866
:1042D00068A01B9DCDE91001DDE91C123B46CDE92C
:1042E0000A125046324629460DF0C8F9DDE90A2384
:1042F0000DF0C4F9DDE910230DF00EF8DDE90E2311
:10430000CDE91001504605F100410DF0B7F94246E4
:104310004B460DF0B3F932463B4680468946DDE90F
:104320000C010DF0ABF9DDE904230DF0A7F902460D
:104330000B46404649460CF0EDFFDDE910230CF03A
:10434000EBFFDDE90A2306460F46DDE902010DF029
:1043500095F9DDE900230DF091F902460B46304650
:1043600039460CF0D7FFDDE906230DF0B1FA089EBF
:10437000CBE90401182E04F108040BF1180B7FF4AB
:104380003FAE664C48222046002101F0BBFB644B47
:10439000644DD3E900231046D5E90467D5E90089C7
:1043A000D5E902AB19465E4BCDE90667D3E9062392
:1043B000CDE904235A4BCDE91201D3E90C23CDE911
:1043C0001023574BD3E90267D3E90823CDE908232B
:1043D000534BCDE90267D3E90E67D3E90423CDE956
:1043E00000234F4BCDE90A67D3E90A67D3E91023CD
:1043F000CDE90E2342464B46CDE90C670DF03EF960
:10440000002200230CF088FF524606460F46DDE9E5
:1044100004015B460DF032F902460B463046394640
:104420000CF07AFFDDE9102306460F46DDE90601B0
:104430000DF024F902460B46304639460CF06CFF6D
:1044400042464B46C4E90001DDE902010DF016F9D0
:10445000002200230CF060FF524606460F46DDE9BD
:1044600008015B460DF00AF902460B463046394614
:104470000CF052FFDDE9062306460F46DDE90A018E
:104480000DF0FCF802460B46304639460CF044FF6E
:1044900042464B46C4E90201DDE900010DF0EEF8A9
:1044A000002200230CF038FF524606460F46DDE995
:1044B0000C015B460DF0E2F802460B4630463946E9
:1044C0000CF02AFFDDE90E2306460F46DDE9060162
:1044D0000DF0D4F802460B46304639460CF01CFF6E
:1044E000D5E906ABD5E90889C4E90401D5E90A1282
:1044F0005046CDE90612DDE9122359460DF0BEF80B
:10450000002200230CF008FF424606460F46DDE974
:1045100004014B4608E000BF0000F03F000A002005
:10452000480A0020B80900200DF0A8F802460B4602
:10453000304639460CF0F0FEDDE9102306460F4602
:10454000DDE906010DF09AF802460B463046394681
:104550000CF0E2FE52465B46C4E90601DDE90201C9
:104560000DF08CF8002200230CF0D6FE42460646E1
:104570000F46DDE908014B460DF080F802460B4678
:10458000304639460CF0C8FEDDE9062306460F46E4
:10459000DDE90A010DF072F802460B463046394655
:1045A0000CF0BAFE52465B46C4E90801DDE90001A1
:1045B0000DF064F8002200230CF0AEFE42460646E1
:1045C0000F46DDE90C014B460DF058F802460B464C
:1045D000304639460CF0A0FEDDE90E2306460F46B4
:1045E000DDE906010DF04AF802460B463046394631
:1045F0000CF092FED5E90C89DDE91223D5E90EAB6A
:10460000C4E90A0140464946CDE906ABD5E910ABFD
:104610000DF034F8002200230CF07EFEDDE90623C5
:1046200006460F46DDE904010DF028F802460B4668
:10463000304639460CF070FEDDE9102306460F4681
:10464000504659460DF01AF802460B463046394698
:104650000CF062FEDDE90223C4E90C014046494644
:104660000DF00CF8002200230CF056FEDDE90823C3
:1046700006460F46DDE906010DF000F802460B463E
:10468000304639460CF048FEDDE90A2306460F465F
:10469000504659460CF0F2FF02460B46304639466A
:1046A0000CF03AFEDDE90023C4E90E01404649461C
:1046B0000CF0E4FF002200230CF02EFEDDE90C23B9
:1046C00006460F46DDE906010CF0D8FF02460B4610
:1046D000304639460CF020FEDDE90E2306460F4633
:1046E000504659460CF0CAFF0B4602463946304642
:1046F0000CF012FE0023C4E91001DDF854B0149C44
:1047000008934822AE4916A801F086F9DDE91E019A
:10471000DDE91623DDE9187805460E46DDE92601B8
:10472000CDE90A23CDE90001104619462A46334651
:10473000CDE90278DDE92089CDE90C56CDE904897F
:10474000DDE922890CF09AFFDDE900230CF096FFE9
:10475000DDE9042306460F46DDE902010CF08EFF79
:1047600042464B460CF08AFF02460B46304639461D
:104770000CF0D2FDDDE92467DDF868A01B9DCDE9D2
:104780000E01DDE91C123B46CDE9061250463246C9
:1047900029460CF073FFDDE906230CF06FFFDDE91D
:1047A0000E230CF0B9FDDDE90C23CDE90E015046D6
:1047B00005F100410CF062FF42464B460CF05EFFF3
:1047C000324680468946DDE90A013B460CF056FF39
:1047D000DDE904230CF052FF02460B4640464946F1
:1047E0000CF098FDDDE90E230CF096FDDDE90623C3
:1047F00006460F46DDE902010CF040FFDDE900232B
:104800000CF03CFF02460B46304639460CF082FD68
:1048100000220023C4E90623C4E90C23694B0022CB
:10482000C4E90023DDE91623DDE91E89CDE906018F
:10483000CDE90E2310461946DDE9262315461E460E
:10484000DDE91823CDE90A23DDE92023CDE90C2396
:10485000DDE92223CDE9002342464B460CF00EFF52
:104860002A463346CDE902560CF008FFDDE90C2359
:1048700006460F46DDE90A010CF000FFDDE90023E2
:104880000CF0FCFE02460B46304639460CF044FD67
:10489000CDE91001DDE924120E461746DDF868A0C7
:1048A0001B9DCDE904673246089E3B46504629468B
:1048B00008360896DDE91C670CF0E0FE32463B4600
:1048C0000CF0DCFEDDE910230CF026FD4246CDE9BC
:1048D00010014B46504605F100410CF0CFFEDDE9DA
:1048E00000230CF0CBFEDDE9042380468946DDE998
:1048F0000E010CF0C3FEDDE90C230CF0BFFE0246F6
:104900000B46404649460CF005FDDDE910230CF04E
:1049100003FD324680468946DDE90A013B460CF03C
:10492000ADFEDDE902562A4633460CF0A7FE0246EC
:104930000B46404649460CF0EDFCDDE906230CF041
:10494000C7FF00274FF00008C4E90078DFF8748043
:104950000027C4E90678DDE91678DDE91E9ADDE96D
:104960002023CBE90001DDE91801CDE90C23CDE9D5
:104970000A014A46534638464146CDE91078CDE90A
:10498000129A0CF07BFE2A463346CDE902560CF013
:1049900075FEDDE90C2306460F46DDE90A010CF041
:1049A0006DFEDDE900230CF069FE02460B46304641
:1049B00039460CF0B1FC80468946DDE91C1203E063
:1049C000000A00200000F03F1A9E1B9DCDE90E1248
:1049D000DDE9040132462B460CF050FEDDE90E23E2
:1049E0000CF04CFE42464B460CF096FCDDE91223DF
:1049F00080468946304605F100410CF03FFEDDE976
:104A000000230CF03BFEDDE9102306460F46DDE9EE
:104A100004010CF033FEDDE90C230CF02FFE0246FE
:104A20000B46304639460CF075FC42464B460CF0BE
:104A300073FCDDE90E2306460F46DDE90A010CF0A2
:104A40001DFEDDE902230CF019FE02460B4630463E
:104A500039460CF05FFCDDE90623002500260CF04A
:104A600037FFC4E906564D4E0025C4E90C56DDE972
:104A70001E78DDE916563A464346DDE91878CBE95B
:104A80000201DDE92601CDE9000128463146CDE9E4
:104A90000278DDE92089CDE90C56CDE90489DDE90C
:104AA0002289CDE90E230CF0E9FDDDE900230CF0AD
:104AB000E5FDDDE9042306460F46DDE902010CF0C1
:104AC000DDFD42464B460CF0D9FD02460B46304612
:104AD00039460CF021FCDDE92467DDF868A01B9D58
:104AE000CDE91001DDE91C123B46CDE90A12504622
:104AF000324629460CF0C2FDDDE90A230CF0BEFD6A
:104B0000DDE910230CF008FCDDE90E23CDE91001EE
:104B1000504605F100410CF0B1FD42464B460CF009
:104B2000ADFD32463B4680468946DDE90C010CF07E
:104B3000A5FDDDE904230CF0A1FD02460B4640462D
:104B400049460CF0E7FBDDE910230CF0E5FBDDE95D
:104B50000A2306460F46DDE902010CF08FFDDDE970
:104B600000230CF08BFD02460B46304639460CF014
:104B7000D1FBDDE906230CF0ABFE089ECBE9040176
:104B8000182E04F108040BF1180B7FF4BAAD29B00C
:104B9000BDE8F08FFFF754F8FFF7A0B90000F03F31
:104BA0002DE9F04FB2A3D3E9002389B0824600F18A
:104BB0002001D1E900010CF061FD02460B46DAE963
:104BC00000010CF0A7FB06460F46DAE9020109F0E6
:104BD00007FA04460D463046394609F001FA024606
:104BE0000B46204629460CF049FD02460B46DFF8ED
:104BF0009C823046394616461F46C8E9002309F014
:104C00000FFB02460B46204629460CF037FD0346B3
:104C10000C46C8E90634CDE90201DAE9020109F0DF
:104C2000FFFA8C468346CDE90467304639465E4636
:104C30006746934DC8E90C67D5E90023CDE900BC70
:104C40000CF01CFD002200230CF066FBDDE902895C
:104C5000D5E9022306460F46404649460CF00EFDB4
:104C600002460B46304639460CF056FBD5E9042384
:104C700006460F46DDE900010CF000FD02460B463A
:104C8000304639460CF048FBD5E906238C4683466E
:104C9000DDE904017B4CCDE906BCC4E900BC0CF0A5
:104CA000EDFC002200230CF037FBD5E90823064673
:104CB0000F4640464946CDE902890CF0DFFC02462A
:104CC0000B46304639460CF027FBD5E90A23064649
:104CD0000F46DDE900010CF0D1FC02460B463046E0
:104CE00039460CF019FBD5E90C2380468946DDE9ED
:104CF0000401C4E906890CF0C1FC002200230CF079
:104D00000BFBD5E90E2306460F46DDE902010CF048
:104D1000B5FC02460B46304639460CF0FDFAD5E9A3
:104D2000102306460F46DDE900010CF0A7FC024601
:104D30000B46304639460CF0EFFADDE90623C4E9AC
:104D40000C01104619460CF099FC424606460F46E7
:104D50004B46404649460CF091FC02460B46304615
:104D600039460CF0D9FA09F0A5FA02460B46D4E907
:104D70000C0109F09DFAD4E9002306460F46D4E958
:104D8000060109F095FA32463B46FEF75FFED4E98C
:104D90000023D4E90689104619460CF06FFC424600
:104DA00006460F464B46404649460CF067FC024615
:104DB0000B46304639460CF0AFFA09F07BFA024652
:104DC0000B46D4E90C0109F073FAD4E90023064636
:104DD0000F46D4E9060109F06BFA2B4B0446D3E9E0
:104DE00000230D46304639460CF094FA22462B46F5
:104DF000CAE9040120A1D1E900010CF08BFA0446B4
:104E00000D4600220023CAE906450CF0A9FE80B138
:104E100019A3D3E90023204629460CF07DFA00228D
:104E2000002304460D460CF09BFE0028F0D1CAE991
:104E3000064511A3D3E90023204629460CF0AEFE17
:104E400088B10DA3D3E90023204629460CF062FA6D
:104E500009A3D3E9002304460D460CF09FFE002869
:104E6000EFD1CAE9064509B0BDE8F08FAFF3008085
:104E70001FB0F5F6A71D133F182D4454FB21194010
:104E8000000A0020B80900206809002070090020ED
:104E90002DE9F04FD0E90423894F87B0054600F192
:104EA0001801D1E90001FEF72FFDD7E90089D7E904
:104EB00002AB4046CDE9028907F11008D8E9007835
:104EC000CDE9007880467F4C7F4ED4E90023C6E9C7
:104ED0000089DDE900784946C6E90C78C6E906ABE9
:104EE0000CF0CCFB002200230CF016FAD4E90223CC
:104EF00006460F46504659460CF0C0FB02460B468C
:104F0000304639460CF008FAD4E9042306460F4629
:104F1000DDE900010CF0B2FB02460B463046394693
:104F20000CF0FAF9D4E9062307468846DDE90201C8
:104F3000664ECDE90478C6E900780CF09FFB0022AC
:104F400000230CF0E9F9D4E908238046894650464D
:104F500059460CF093FB02460B46404649460CF07E
:104F6000DBF9D4E90A2380468946DDE900010CF02B
:104F700085FB02460B46404649460CF0CDF9D4E984
:104F80000C2380468946DDE90201C6E90689CDE9A0
:104F900002890CF073FB002200230CF0BDF9D4E968
:104FA0000E2380468946504659460CF067FB024660
:104FB0000B46404649460CF0AFF9D4E91023804631
:104FC0008946DDE900010CF059FB02460B464046DC
:104FD00049460CF0A1F9DDE90423C6E90C011046AD
:104FE00019460CF04BFBDDE902238046894610464A
:104FF00019460CF043FB02460B46404649460CF06E
:105000008BF909F057F902460B46D6E90C0109F075
:105010004FF9C5E90201D6E90023D6E9060109F0F6
:1050200047F923A3D3E9002306460F46D5E9080133
:105030000CF024FB32463B460CF06EF906460F4658
:1050400000220023C5E900670CF08AFD80B11AA395
:10505000D3E90023304639460CF05EF900220023E4
:1050600006460F460CF07CFD0028F0D1C5E900672C
:1050700011A3D3E90023304639460CF08FFD88B1E7
:105080000DA3D3E90023304639460CF043F90AA3B7
:10509000D3E9002306460F460CF080FD0028EFD12F
:1050A000C5E9006707B0BDE8F08F00BFAFF300802F
:1050B0001FB0F5F6A71D133F182D4454FB211940CE
:1050C000980A0020480A002070090020B809002032
:1050D0002DE9D043DDE90C679046994614A3D3E946
:1050E00000230446494640460CF0F2FB10A3D3E9E6
:1050F0000023C4E90001DDE906010CF0E9FB0CA383
:10510000D3E90023C4E90201DDE908010CF0E0FB6A
:1051100007A3D3E90023C4E90601DDE90A010CF085
:10512000D7FBC4E90867C4E90401BDE8D08300BF28
:10513000F8C1631ADCA54C404878202805D0A0F1BE
:105140002200B0FA80F0400970471888062894BF02
:1051500000200120704700BF30B504460F4A83B0DD
:10516000009200254023022201210BF03FF9204646
:1051700000954023022282210BF038F92046009549
:105180001023032283210BF031F92046044B7F22A8
:10519000212103B0BDE830400BF018BAA55100083A
:1051A0003951000810B5064C4023224601210BF06E
:1051B00045F9044B186008B10023235410BD00BF0B
:1051C000980D0020580D0020014B18680BF00AB90B
:1051D000FC0C0020014B18680BF004B9FC0C0020FB
:1051E00000B54FF4007185B00E480AF0C5FE0E49B7
:1051F000802203230191029200930C4A0C4B0D492B
:105200000D480BF0C3F80D4B0D4918600BF0A4FCD2
:1052100014200BF0B1FD2A2005B05DF804EB0BF073
:10522000ABBD00BF000C01402C0E00207C25010806
:105230001C00002030250108902C0108FC0C0020E7
:105240005951000810B4044C8BB2024682212068E8
:1052500010BC0BF0ECB800BFFC0C002001282DE9BD
:10526000F8432BD1402A0F46904623DD0C46A2F18D
:1052700041039B095E1C154D01EB86194023224614
:10528000822128680BF0D3F80028F7D04034A145DC
:10529000F4D1B3019EB2C6EB0806B6B2FC18334691
:1052A0002246822128680BF0C2F80028F7D000209F
:1052B000BDE8F88300263346044DECE700F072FAAF
:1052C000052303604FF0FF30BDE8F883FC0C00209D
:1052D00010B582B00AF002FE02AB43F8040D184686
:1052E00000F066FA044643690269C16803F26C7310
:1052F0000132054800F02EFF23686268A168034868
:1053000000F028FF02B010BD142601082426010871
:105310000449D1E90023013243F10003C1E900232C
:10532000704700BFF00E0020F8B54FF400411C4854
:105330000AF020FE02214FF080400AF06DFE58B3C3
:10534000184C012123681848002B26DD0AF014FEB2
:1053500002214FF080400AF065FE4FF080400AF0D5
:10536000E7FF124B85B21B68114F2B449BB2114EC5
:105370001A4600214FF0804033803D800AF0C8FF7C
:105380000D4A236810684FF4004103441360044839
:10539000BDE8F8400AF0F0BDF8BD0AF0EBFDD7E734
:1053A00000100140480C002000080140380C00208B
:1053B000E60E0020EA0E0020580C0020F8B54FF44D
:1053C00080411B480AF0D8FD02211A480AF024FE49
:1053D00048B3194C4FF4005123681548002B23DDC6
:1053E0000AF0CAFD022113480AF01CFE11480AF017
:1053F0009FFF124B85B21B68114F2B449BB2114E7D
:105400001A4600210B4833803D800AF081FF0E4A86
:10541000236810684FF48041034413600448BDE8DA
:10542000F8400AF0A7BDF8BD0AF0A4FDDAE700BF16
:105430000010014000040040700C00205C0C0020B3
:10544000E20E0020E40E0020600C002000000000AE
:105450002DE9F043C44BC54A87B01A600AF09AFCA4
:1054600047F6FF7105200AF06BFD40F203300AF0A9
:1054700061FF4FF40071BE484FF480350AF07AFDA9
:1054800000BF013DFCD1FFF7ABFE4FF441700AF0C5
:1054900051FF40F202300AF04DFF2A464FF46043BC
:1054A0000321B4480AF034FB4FF40051B1480AF02C
:1054B00063FD4FF48041AF480AF05EFD4FF40041B8
:1054C000AC480AF059FD2A4601230321AA480AF0F4
:1054D0001FFB0121A8480AF04FFD28460BF030FCC5
:1054E00042F227300BF024FC0BF036FC0BF03CFCB6
:1054F0004FF460700AF01EFF1C200BF03DFC4FF0D3
:1055000080400AF045FD2B462A4629464FF0804050
:105510000AF08BFD4FF434714FF080400AF09DFD8E
:105520004FF080400AF08AFD4FF080400AF08BFD7A
:105530004FF6FF714FF080400AF091FD29464FF081
:1055400080400AF0A9FE02214FF080400AF0A4FE3C
:1055500004214FF080400AF09FFE06214FF080406A
:105560000AF09AFE29464FF080400AF07AFD29465B
:105570004FF080400AF075FE29464FF080400AF057
:105580008AFD2A4629464FF080400AF09EFD4FF4DE
:105590007A7229464FF080400AF0BAFE4FF0804000
:1055A0000AF04CFD4FF080400AF052FD02214FF00E
:1055B00080400AF02DFD40F281300AF0BBFE1D2034
:1055C0000BF0DAFB6D480AF0E3FC2B462A4629462D
:1055D0006A480AF02AFD4FF4347168480AF03DFD2C
:1055E00066480AF02BFD65480AF02DFD4FF6FF7165
:1055F00062480AF034FD294660480AF04DFE022157
:105600005E480AF049FE04215C480AF045FE062186
:105610005A480AF041FE294658480AF022FD294618
:1056200056480AF01EFE294654480AF034FD2A4620
:10563000294652480AF049FD4FF47A7229464F48EC
:105640000AF066FE4D480AF0F9FC4C480AF000FDED
:105650004B4F022149480AF0DBFC37A1D1E9000198
:1056600037A3D3E900230026CDE90001454C2846A5
:10567000FDF786FA34A3D3E90023CDE90467CDE929
:105680000023CDE9026729462846FCF761FDD4E9ED
:1056900000010BF0BDFF32463B460CF019F93A4DC4
:1056A0003A4FC5E908012846FFF77AFAD5E906011D
:1056B00027A3D3E900230BF0E1FF354B354ED3E9A7
:1056C00000230CF005F90CF089FA0022324B386007
:1056D000D5E904010BF0D2FF1FA3D3E900230BF09F
:1056E000CDFF1FA3D3E9002389462C498046D1E989
:1056F00000010BF0C3FF02460B46404649460CF042
:10570000E7F80CF06BFA4FF22441306003200AF006
:1057100017FC234D07E0D4E90001642200230CF0BC
:10572000F5FA134305D02B68002BF4D0FCF79AFE52
:10573000F1E7FCF7C1FFF6E75C8FC2F5285C424059
:10574000CDCCCCCCCCCC10C0333333333333D33F7C
:105750007BAD3173C62D0941000000000020AC4034
:10576000182D4454FB21094008ED00E000200008FA
:10577000000C0140001001400008014000040040FE
:1057800000408F40F00E0020300D0020580C00200B
:10579000280C0020600C002000806640300C0020A7
:1057A000580D0020014B1868704700BF50040020BE
:1057B000024B19687C3100F003B800BF5004002090
:1057C0002DE9F0410C46064605F0E2FB21468046F5
:1057D000304605F0E1FB4769044607F26C77B907EC
:1057E00000F0C880FA1787494FF4C87381FB07019E
:1057F000C2EBE11203FB1273B3FA83F35B095A00A5
:10580000814D134405EB031502F082F902F084F98F
:105810007E4B1B6843B3D8F804309F4205D038460E
:1058200002F0AEF8002800F0B380D8F8003083B959
:105830003368D8F81C20934280F2AE80D8F8382024
:105840009342B4BF0123002323620EDAD8F83C0050
:105850000DE03368D8F81C20934204DBD8F83820D8
:105860009342C0F2998000232362D8F82000684E4A
:10587000C11780FB06230344C1EBE3234FF46162AD
:1058800002FB1303634A86FB006E83FB027882FBF4
:10589000032608EB030770444FEAE37ECEEB67175D
:1058A000C7EB0717C1EBE02021681E44A268A3EBF9
:1058B00087036768CB1ACEEB661E121ACEEB070180
:1058C0003B2BA260236061604DDD01313C3B616098
:1058D00023603B2940DD01323C39A2606160172A18
:1058E0001DDDA369E1690133062BC8BF0023A36155
:1058F000E3680131E161183A01332169A260E36094
:1059000055F82120934205DD01319B1A0C29E360F3
:1059100045D0216102F0FEF82046BDE8F081002A62
:10592000F8DAA369E169013B48BF0623A361E36894
:1059300001391832013BE161A260E360002BE9D13B
:105940002369013B32D423619B00EB58E36002F0F2
:10595000E1F82046BDE8F0810029C0DA013A3C3187
:10596000A2606160BBE7002BB3DA01393C336160B0
:105970002360AEE7234BFA1783FB07136421C2EBC6
:10598000631301FB1373002B3FF42DAF012336E7A4
:105990004FF0FF33236268E70123236256E7636910
:1059A0000022013363612261E261B3E763690B2185
:1059B0005A1E62619207216113D003F26B71CA17FC
:1059C00010484FF4C87380FB0160C2EBE01203FB88
:1059D0001213B3FA83F35B0903F5B673E3612C2367
:1059E000B3E7084A03F26B7182FB0123CA17C2EBCB
:1059F0006313642000FB1313002BE1D040F26D13FE
:105A0000ECE700BF1F85EB5198260108D40A00205F
:105A1000C5B3A29189888888844641EA000313F0BF
:105A2000030349D1403A23D30B6803604B684360BA
:105A30008B688360CB68C3600B6903614B6943610A
:105A40008B698361CB69C3610B6A03624B6A4362F2
:105A50008B6A8362CB6AC3620B6B03634B6B4363DA
:105A60008B6B8363CB6BC36340304031403ADBD2F6
:105A700030320BD30B6803604B6843608B688360E4
:105A8000CB68C36010301031103AF3D20C3205D31A
:105A900051F8043B40F8043B043AF9D2043208D0F0
:105AA000D2071CBF11F8013B00F8013B01D30B8862
:105AB00003806046704700BF082A13D38B07B1D01C
:105AC00010F00303AED0C3F10403D21ADB071CBFEE
:105AD00011F8013B00F8013BA4D331F8023B20F858
:105AE000023B9FE7043AD9D3013A11F8013B00F891
:105AF000013BF9D20B7803704B7843708B7883703D
:105B00006046704770B4840746D0541E002A41D0C6
:105B1000CDB2034602E0621EE4B3144603F8015B13
:105B20009A07F8D1032C2ED9CDB245EA05250F2CC2
:105B300045EA054519D9264603F11002103E0F2EFD
:105B400042F8105C42F80C5C42F8085C42F8045CD5
:105B500002F11002F2D8A4F1100222F00F0204F0B8
:105B60000F041032032C13440DD91E462246043A6A
:105B7000032A46F8045BFAD8221F22F003020432FB
:105B8000134404F003042CB1C9B21C4403F8011BF4
:105B9000A342FBD170BC704714460346C2E700BF66
:105BA0002DE9F043016883B03B29044600F2BA8036
:105BB00041683B2900F2A980A168172900F298806A
:105BC00021690B2900F2878063699F073ED1744DDC
:105BD000DA1785FB03076426C2EB671206FB123255
:105BE000002A72D103F26C7385FB0325DA17C2EB2E
:105BF000E5154FF4C87202FB1533002B0CBF1D26B0
:105C00001C26E368002B25DD664FDFF894C14FF0BA
:105C1000000E4FF064084FF4C8794A1C07EB81006E
:105C20000BE005689D42A3EB050336DA0C2AE3601E
:105C3000226135D00131013204300129F1D19E4277
:105C4000A3EB060329DAE3602261F3E7E3681C268D
:105C5000002BD9DC5348524D64274FF4C87E07E02F
:105C600001290CBF324650F821201344002B12DCCE
:105C700011F1FF31F4D261694A1E9607626126D1A3
:105C800085FB026CD617C6EB6C1607FB1622002AA2
:105C900055D01D261CE02161E36003B0BDE8F08310
:105CA0006169C4F810E04A1C9007626102D01C26AA
:105CB0000021B2E78CFB0205D017C0EB651008FB92
:105CC0001022002A49D01D26F2E71D2699E71C263E
:105CD0000B211F22C9E70C22684603F015FD6269FB
:105CE000009B019913440029636153DB21616CE738
:105CF0001822684603F008FDE168009B019A0B44F6
:105D0000002AE36041DBA2605AE73C22684603F0C8
:105D1000FBFCA3680099019A1944002AA1602FDBBB
:105D200062604AE73C22684603F0EEFC6168009B33
:105D3000019A1944002A61601DDB226039E701F2F3
:105D40006B7185FB0126CA17C2EBE6120EFB12111E
:105D5000002914BF1C261D26BAE701F26D718CFBC9
:105D60000120CA17C2EBE01209FB1211002914BF6F
:105D70001C261D269CE73C3201392260616018E731
:105D80003C3201396260A16017E71832013BA26022
:105D9000E36015E70C31013B2161636115E700BF4A
:105DA0001F85EB51682601082DE9F84F064605F0DE
:105DB000EFF880463046FFF7F3FEC64C356973684E
:105DC0003168F26854F82540C3EB0313B06801EB67
:105DD00083034FF4616E013A012D0EFB003E144423
:105DE000756902DDAF0700F0C18044F6206205F559
:105DF0001C5310339342F46100F26381462D00F38B
:105E00008C8053D0452D00F0348140F26D1AB24F92
:105E100045234FF0640C4FF4C8791BE087FB031B4C
:105E2000C2EB6B120CFB123203F26C70C117002A2A
:105E300040F0C78087FB00B2C1EBE21109FB110003
:105E4000002814BF52464FF4B772013BAB42A4EB9B
:105E500002040AD099074FEAE372DFD040F26D12D4
:105E6000013BAB42A4EB0204F4D1AF0740F0018147
:105E7000994AEB1782FB0501C3EB6113642101FB17
:105E80001353002B40F0078105F26C7082FB001267
:105E9000C117C1EBE2124FF4C87101FB1202002AD4
:105EA00040F26D1308BF4FF4B773E41A8B4800FB40
:105EB00004E901F02DFE01F02FFE894B1F68002F31
:105EC00000F08280376A7069D8F80430012F00F240
:105ED0006C70A8BF0127984257D001F051FD0028EF
:105EE00053D1012F40F0D380D8F83C1009EB0105C5
:105EF000012701F00FFE7B48043484FB0001E31707
:105F00006218C3EBA203C3EBC303E31A48BF073312
:105F10003762B3612846BDE8F88F40F26D1A6E4FC4
:105F200046234FF0640C4FF4C87918E087FB031B3D
:105F3000C2EB6B120CFB123203F26C70C1170ABB7E
:105F400087FB00B2C1EBE21109FB1100002814BF6E
:105F500052464FF4B7720133AB421444A6D09807AF
:105F60004FEAE372E2D040F26D12F4E75A4AEB17BF
:105F700082FB0501C3EB6113642101FB135343B39F
:105F8000013432E74FF4B772E5E7D8F82020D8F8AB
:105F90003830D8F83C10C2EB030CE145104602DB68
:105FA0005B1A99459DDBD8F81C30C1EB030ED8F87D
:105FB0000030EBB1F1455FDA002F80F2C18000279D
:105FC00004E04FF4B77240E7D8F8200009EB000571
:105FD0008FE705F26C7182FB0132CB17C3EBE21243
:105FE0004FF4C87303FB1212002A7FF4FEAEC7E71A
:105FF000F14541DB002FFFF679AF7FF477AF511AFF
:1060000033688944194431603046F768FFF7C8FDAA
:10601000F368DB1B3FF468AF0127012B40F383805B
:106020004FF0FF33F2691C449B185DD4AA074ED190
:106030002948EA1780FB05E1C2EB6112642101FBEC
:106040001252002A73D105F26C7580FB0501E81726
:10605000C0EBE1104FF4C87101FB1051002940F270
:106060006D1208BF4FF4B7729A42D8BF9B1AF36102
:1060700037E740F26D1318E7E145ACBF0023012379
:10608000002F02DB5F40012F08D01F4629E7D8F818
:10609000202010469AE74FF4B77306E7511A002BF9
:1060A000AED13368C1EB0909591A31603046F7683F
:1060B000FFF776FDF368DB1B07D1D8F820001F46F9
:1060C00084E74FF0FF30BDE8F88F0027A5E740F2E6
:1060D0006D12C9E7382601081F85EB518051010078
:1060E000D40A002093244992681E810722D11849BE
:1060F000C21781FB00E3C2EB6312642303FB1203AC
:10610000DBB905F26B7581FB0512E917C1EBE211F2
:106110004FF4C87202FB1152002A40F26D1318BFEF
:106120004FF4B673A3E7981CD8BF01237AE74FF466
:10613000B77299E74FF4B67399E740F26D1396E79B
:10614000012F02D00027104640E7511AA9E700BFEF
:106150001F85EB510FB410B5074B82B004AC54F857
:10616000042B186823468168019401F06FFE02B089
:10617000BDE8104004B07047500400200EB4014642
:10618000F0B54FF6FF779CB021AC54F8042B0D48C6
:1061900023466FF00045029106914FF4027602A962
:1061A00000680194ADF81670ADF814600495079579
:1061B00000F038F8029B00221A701CB0BDE8F040D5
:1061C00003B070475004002020F0030110F00300DA
:1061D000C0F1000051F8043B00F1040C4FEACC0C74
:1061E0006FF000021CBF22FA0CF213434FF0010CB7
:1061F0004CEA0C2C4CEA0C4CA3EB0C0222EA0302F6
:1062000012EACC1204BF51F8043B0430F4D0C2F1BE
:10621000000102EA0102B2FA82F2C2F11F0200EBAF
:10622000D20070472DE9F04FC1B00C4609911546D8
:106230000E930A9004F09EFF036818461793FFF729
:10624000C3FFA38916901E0603D52369002B01F016
:106250005D8100231A46A8460DF1C009DFF860A44D
:10626000129319930B9325932493CDF88C90149249
:10627000159298F800304446EBB1252B02D11AE074
:10628000252B03D014F8013F002BF9D1C8EB0405EE
:106290008DB1249B259A01332A44072BC9F800802D
:1062A000C9F804502592249300F3328309F10809B8
:1062B0000B9B2B440B932378002B00F0EA814FF0CB
:1062C000FF3B5D4600231A468DF86F3019460C934C
:1062D0000793637804F1010808F10108A3F1200095
:1062E000582800F24586DFE810F0F3034306430622
:1062F000FC03430643064306430643064306590090
:10630000040443066600D0034306EC03BC05BC0549
:10631000BC05BC05BC05BC05BC05BC05BC054306ED
:106320004306430643064306430643064306430625
:106330004306E205F7044306F70443064306430613
:1063400043064205430643064A0543064306430601
:1063500043064306740543064306CD05430643063C
:1063600043064306430643064306430643064306E5
:106370001D060E06F704F704F70415060E0643067D
:106380004306A3044306A805AE046D000A044306B1
:106390001204430635044306430670040E9C23682A
:1063A00018460C932346002803F104030E9306DAE3
:1063B0000C9B5B420C93079B43F00403079398F8F4
:1063C000003089E7AB460E9A0027079830217823E2
:1063D000BB4514688DF8701002F104024FF00005FF
:1063E0008DF871308DF86F7040F00201C0F23D867B
:1063F00020F0800141F00201079154EA05010E925C
:106400001193AD4800F0318130AE230943EA0573A2
:10641000290904F00F020D461C46835C06F8013D75
:1064200054EA0503F1D130AB9B1B0D930D9B5B45EB
:10643000B8BF5B4608930023139317B1089B013341
:106440000893079B13F002030F9302D0089B0233BB
:106450000893079B13F08403109340F018810C9B62
:10646000089A9D1A002D40F31281102D2599249A27
:10647000924F27DD189648461024B946099E2F46AC
:106480000A9D04E0103F102F00F1080016DD0132D4
:106490008A4B1031072A2591249280E81800F1DDFB
:1064A00023AA3146284606F0F3F9002840F0F88088
:1064B000103F102F30A82599249AE8DC3D464F461E
:1064C0008146189E01326C18072A25942492C9F837
:1064D0000070C9F8045000F3D0809DF86F7009F186
:1064E000080977B1249B013401330DF16F010122BA
:1064F000072B2594249389E8060000F3208209F1F4
:1065000008090F9B6BB1249B023401331CA90222A2
:10651000072B2594249389E8060000F31C8209F1D7
:106520000809109B802B00F02C810D9BC3EB0B07FF
:10653000002F33DD624A102F249B0F9222DD22466A
:106540004FF0100B0A9D099C04E0103F102F09F139
:10655000080916DD01331032072B2592249389E8B0
:10656000000CF2DD23AA2146284606F091F9002806
:1065700040F09680103F102F0DF1C009259A249B02
:10658000E8DC144601330F9A3C44072B25942493EE
:1065900089E8840000F3C78109F10809079BDA053F
:1065A00000F19080249B0D9901330C44072B259416
:1065B000C9F80060C9F80410249300F3E28109F1DE
:1065C0000809079B590736D50C9B089A9D1A002D80
:1065D00031DD102D249B394F22DD22461026DDF8B7
:1065E00028B0099C04E0103D102D09F1080916DDC2
:1065F000013332491032072B2592249389E8420057
:10660000F1DD23AA2146584606F042F9002847D179
:10661000103D102D0DF1C009259A249BE8DC14468D
:1066200001332C44072B25942493C9F80070C9F832
:10663000045000F392840B9B0C9A08998A42ACBFD9
:106640009B185B180B93002C40F059810023249376
:106650000DF1C0090DE60027BB458DF86F70C0F243
:106660000E85079B23F080030793BBF1000F00F01A
:106670006C84002400250027C6E623AA09990A98FD
:1066800006F006F960B99DF86F700DF1C009259C00
:1066900027E7259B23B10A9823AA099906F0F8F861
:1066A000099B9B8913F0400F0B9B18BF4FF0FF33E2
:1066B000184641B0BDE8F08F2C270108F8260108E4
:1066C0004C270108119B652B40F39F801498159966
:1066D000002200230BF03AFA002800F06381249B8B
:1066E000AE49013301340122072B2594249389E814
:1066F000060000F3538409F108091D9B129A934286
:1067000003DB079BDB077FF55CAF249B1699013306
:10671000179A0C44072B2594C9F80020C9F80410D7
:10672000249300F3E68609F10809129B5D1E002DF3
:106730007FF747AF9A4A102D249B0F9240F31781A1
:1067400010260A9FDDF824B005E009F10809103D84
:10675000102D40F30C8101331034072B2594249322
:10676000C9F800A0C9F80460EFDD23AA59463846ED
:1067700006F08EF8002893D10DF1C009259C249BCA
:10678000E5E70C9B089A9F1A002F7FF7CEAE844A4C
:10679000102F249B0F922BDD4A462146B946102527
:1067A00037460A9C099E06E0A9F11009B9F1100FBD
:1067B00002F1080218DD01331031072B25912493D3
:1067C000C2F800A05560EFDD23AA3146204606F04E
:1067D0005FF800287FF464AFA9F11009B9F1100F38
:1067E00030AA2599249BE6DC3E460C464F4691464E
:1067F00001330F9A3C44072B2594249389E88400A5
:1068000000F32B8509F108098FE6129B249D012BCB
:1068100004F1010405F1010540F3E8840123072D8B
:106820002594C9F800602495C9F8043000F3F98470
:1068300009F10809169A0135179B1444072D259470
:106840002495C9F80030C9F8042000F3F88409F150
:10685000080900231498159900220BF077F9129B70
:10686000002800F0EA805E1E002E40F3F5804C4BBD
:10687000102E0F932CDDCDF834801027B046DDF8B4
:1068800028B0099E06E0A8F11008B8F1100F09F130
:1068900008091ADD01351034072D25942495C9F80F
:1068A00000A0C9F80470EEDD23AA3146584605F071
:1068B000EFFF00287FF4F4AEA8F11008B8F1100F34
:1068C0000DF1C009259C249DE4DC4646DDF83480AA
:1068D00001350F9B3444072D2594249589E8480001
:1068E00040F3B88023AA09990A9805F0D1FF00283F
:1068F0007FF4D6AE259C249D0DF1C009ACE023AAFF
:1069000009990A9805F0C4FF00283FF49FAEC7E636
:1069100023AA09990A9805F0BBFF00287FF4C0AEAE
:106920000DF1C009C4E423AA09990A9805F0B0FF43
:1069300000287FF4B5AE0DF1C009259C2EE623AAF0
:1069400009990A9805F0A4FF00287FF4A9AE0DF17B
:10695000C009259CD5E523AA09990A9805F098FF56
:1069600000287FF49DAE0DF1C009259CD9E50133C7
:106970000F9A2C44072B2594249389E824007FF751
:106980001EAE23AA09990A9805F082FF00287FF419
:1069900087AE259C0DF1C00913E600BF482701080A
:1069A0004C2701081D9D002D40F30E83139B129A66
:1069B0009342A8BF1346002B1D460DDD249B2C449B
:1069C0000133072B2594C9F80060C9F804502493BB
:1069D00000F3158609F10809139B002DA8BF5B1B66
:1069E000002B1D4640F3A083B94A102D249B0F9223
:1069F00040F3458522461027DDF828B0099C05E0C4
:106A000009F10809103D102D40F33885013310328B
:106A1000072B25922493C9F800A0C9F80470EFDD74
:106A200023AA2146584605F033FF00287FF438AEEC
:106A30000DF1C009259A249BE4E7013B013501369D
:106A40001C44072DC9F8006024952594C9F804302A
:106A50003FF748AF09F10809199A013514441FABF3
:106A6000072D25942495C9F80420C9F800307FF734
:106A7000A6AD23AA09990A9805F00AFF00287FF419
:106A80000FAE0DF1C009259C9BE598F8003008F188
:106A900001042A2B00F02B87A3F13000092898BFAE
:106AA000002500F2AF8614F8013B05EB850500EBED
:106AB0004505A3F130000928F5D945EAE575A0465A
:106AC0000CE4079B43F08003079398F8003003E43D
:106AD00098F8003000297FF4FFAB01222021FFF756
:106AE000FBBB079B43F00103079398F80030FFF7C7
:106AF000F3BB98F8003001222B21FFF7EDBB079B79
:106B000043F02003079398F80030FFF7E5BB0E9A97
:106B1000AB461668002511938DF86F50141D002E9A
:106B200000F0E585BBF1000FC0F23F855A462946CB
:106B3000304604F04BFE002800F05886AB46831B1D
:106B40000D9323EAE3730E940893CDF84CB09DF8AF
:106B50006F7072E41193AB46002A40F0ED86079AFD
:106B600012F0200300F043810E9C0027073424F02C
:106B7000070303F10801BB450E91D3E900458DF8E9
:106B80006F70C0F2C18222F08003079354EA0503BC
:106B900000F04881002D08BF0A2CC0F0488130AEBB
:106BA000204629460A2200230BF0B0F8303206F8BE
:106BB000012D2046294600230A220BF0A7F804469F
:106BC0000D4654EA0503EBD12DE41193AB46002AA0
:106BD00040F0CA86079B3F489D0640F15D810E9CB0
:106BE000073424F0070303F108020E92D3E90045AD
:106BF000079A12F0010700F0468254EA05033FF4B9
:106C00002AAD9DF8442000278DF87120079A302383
:106C1000BB458DF870308DF86F7042F00203C0F202
:106C20008D8522F0800343F002030793FFF7ECBB4E
:106C300098F800306C2B00F05284079840F0100058
:106C40000790FFF749BB1193AB46002A40F09486AA
:106C5000079A12F0200300F0A0800E9C0027073452
:106C600024F0070303F10801BB450E91D3E9004569
:106C70008DF86F700BDB22F08003079354EA050355
:106C800006D1BBF1000F00F0A285002400250027EB
:106C900030AEE20842EA4572E90804F007030D4607
:106CA0001446303354EA050206F8013DF1D1079A43
:106CB000D1077FF5B8AB302B3FF4B5AB3022731E54
:106CC00006F8012C30AAD21A0D921E46FFF7AEBB71
:106CD0004C2701082C2701081193AB46002A40F0ED
:106CE0004786079B0E9C1A0704F1070440F16C834A
:106CF00024F0070303F108020E921A685B681492ED
:106D00001593159B149D23F00044284621464FF00F
:106D1000FF32A94B0AF04CFF002840F0CD822846F4
:106D200021464FF0FF32A44B0AF024FF002840F028
:106D3000C38214981599002200230AF011FF00283D
:106D400040F0F6849DF86F7007999C4E21F0800109
:106D50009B4B0791119903224FF0000B0892472992
:106D6000D8BF1E460D92CDF84CB0FFF766BB079B0F
:106D700043F00803079398F80030FFF7ADBA11937A
:106D8000AB46002A40F0EC85079B43F010030793C5
:106D9000079A12F020037FF460AF079911F01002F8
:106DA00000F068820E98BBF1000F024604688DF86F
:106DB0006F3002F104024FF00005C0F2C28421F0EE
:106DC0008001079154EA05010E923FF45AAF1F4625
:106DD0005EE71193AB46002A40F0BE85079B43F067
:106DE00010030793079A12F020037FF4BDAE0799B2
:106DF00011F0100200F026830E98BBF1000F02463E
:106E000004688DF86F3002F104024FF00005C0F203
:106E10008C8421F08001079154EA05010E921F46EF
:106E20007FF4B8AEBBF1000F00F09080002440AEBC
:106E3000303406F8414DFFF7F6BA002A40F0888555
:106E4000079B9B0640F1CA820E9A134604330E93A9
:106E50000B9B1168DD171A462B46C1E90023FFF78B
:106E600008BAA3F1300000231C4618F8013B04EBDC
:106E7000840400EB4404A3F130000928F5D90C94F4
:106E8000FFF72CBA1193AB46002A40F05D85079BB3
:106E90004C489D063FF5A3AE079BDC0640F1B5824A
:106EA0000E9A00251346043314680E93A0E611933E
:106EB000AB46002A40F04485079B43F0100307933C
:106EC000079B980640F1F1800E9C073424F00704DC
:106ED000D4E9002304F108011D4614460E91002A4E
:106EE00073F10003C0F2F280BBF1000F9DF86F70E8
:106EF000C0F20A81079B23F08003079354EA05033D
:106F00007FF448AE8EE71193AB46002AD8D08DF8B7
:106F10006F10D5E7079B43F04003079398F80030C4
:106F2000FFF7DAB90E9911930A68002301201F4672
:106F30008DF86F309B4613930B1D08908DF89820A9
:106F40000E930D9026AEFFF77CBA5F464FF0000B14
:106F5000CDF834B030AEFFF769BA23AA09990A9880
:106F600005F096FC00287FF49BAB259CFFF763BBE4
:106F70001193002A40F0D384119A002A3FF489AB80
:106F8000002301211F4608918DF898208DF86F305D
:106F90009B4613930D9126AEFFF753BA23AA099986
:106FA0000A9805F075FC00287FF47AAB0DF1C00952
:106FB000259CFFF7A2BB00BFFFFFEF7F0C27010856
:106FC0000827010818270108249BB8490133013418
:106FD0000122072B2594249389E8060000F3C2823E
:106FE00009F108092DB9129B1BB9079BDF077FF533
:106FF000E8AA249B16990133179A0C44072B259471
:10700000C9F80020C9F80410249300F3FF8309F1A4
:1070100008096D42002D40F3DB82A54A102D0F9226
:1070200040F34B8322461027DDF828B0099C05E089
:1070300009F10809103D102D40F33E830133103251
:10704000072B25922493C9F800A0C9F80470EFDD3E
:1070500023AA2146584605F01BFC00287FF420ABEC
:107060000DF1C009259A249BE4E7924807911193FA
:1070700054EA05030E924FF000077FF4C5A90024DF
:107080000025FFF7C1B9BBF1000F8DF86F70C0F29A
:10709000038222F08003079354EA05037FF4B4A926
:1070A000BBF1000F7FF4E5AA4FE7079BD90640F13B
:1070B000BA810E9A13461C680433E51722460E93D4
:1070C0002B46002A73F10003BFF60EAF64424FF067
:1070D0002D0765EB4505BBF1000F8DF86F70FFF6CE
:1070E00059AD079B23F08003079353E50E9ABBF13C
:1070F000000F134614688DF86F7003F104034FF00E
:10710000000580F2E2810E9354EA05037FF442AD5C
:107110008DE623AA09990A9805F0BAFB00287FF4A6
:10712000BFAA259C0DF1C009139A1D9B3244174636
:10713000129A934249DB079AD50746D412990E4416
:10714000F51BCB1A9D42A8BF1D46002D2E460DDD16
:10715000249A2C440132072A2594C9F80070C9F8F2
:107160000450249200F3D28209F10809002EB4BF22
:107170001D469D1B002D7FF724AA4D4A102D249BF0
:107180000F927FF7F4AB10260A9FDDF824B005E0DC
:1071900009F10809103D102D7FF7E9AB01331034D8
:1071A000072B25942493C9F800A0C9F80460EFDDEB
:1071B00023AA5946384605F06BFB00287FF470AAD5
:1071C0000DF1C009259C249BE4E7249A169801320E
:1071D00017990444072A2594C9F80010C9F8040037
:1071E000249200F3778209F10809A7E7079BD807E3
:1071F0003FF514AB0123072D2594C9F800602495B1
:10720000C9F804307FF726AC23AA09990A9805F03B
:107210003FFB00287FF444AA0DF1C009259C249D62
:107220001AE423AA09990A9805F032FB00287FF492
:1072300037AA0DF1C009259C249DFFF7FBBA23AAAC
:1072400009990A9805F024FB00287FF429AA0DF17A
:10725000C009259C249DFFF7FCBA23AA09990A9826
:1072600005F016FB00287FF41BAA0DF1C009259C30
:10727000FFF75BB9079911F0400700F00F810E98F6
:10728000BBF1000F034604888DF86F2003F104035F
:107290004FF00005C0F2738121F08001079154EA9C
:1072A00005010E933FF4EDAC1746F1E448270108C1
:1072B0004C2701082C270108149C22462046159CC7
:1072C000234621460AF074FC002840F0C182119B3D
:1072D000BBF1FF3F23F020030D9300F04982472BC1
:1072E00000F05081079B43F480731093159B1F1E81
:1072F000149B0893B7BF3B46002303F100472D239F
:107300000F93119B662B00F01F82462B00F00D811E
:107310000D9B21A8452B18BF5D461EA908BF0BF188
:107320000105049003911DA802213B460290089A92
:10733000019500910A9802F09BFA119B0646672B73
:1073400040F03482079BDA0740F16F827419089885
:107350003946002200230AF0F9FB002840F04D8155
:10736000219B9C4206D930215A1C21921970219BE5
:107370009C42F9D89B1B12930D9B472B00F0368142
:10738000119B652B40F32182119B662B1D9B139350
:1073900000F0FE81139A12998A42C0F2EC81079B99
:1073A000D90700F1448222EAE2730D92672211921A
:1073B0000F9A002A40F0EF800893109B93460793A2
:1073C0009DF86F70FFF739B824F007042368149311
:1073D0006368159304F108030E9392E4079BDF069C
:1073E0000BD4079B5E0608D50E9A136804320E92E2
:1073F000BDF82C201A80FEF73CBF0E9A13680432A9
:107400000E920B9A1A60FEF734BF0E9A079B002566
:1074100013F0400F134603F104030CBF14681488E3
:107420000E93FFF7E5BB079B0E9A13F0400F134630
:107430003FF441AEB2F900400433E5170E93224603
:107440002B464CE5079911F040073FF44FAE0E98DC
:10745000BBF1000F034604888DF86F2003F104038D
:107460004FF00005C0F2948021F08001079154EAAA
:1074700005010E9317467FF48DABD3E41446013318
:107480000F9A2C44072B2594249389E824003FF776
:1074900040AE09F1080947E60E9AE9E50E9ABBF1FC
:1074A000000F134614688DF86F7003F104034FF05A
:1074B000000564DB079A0E9322F08002079254EADB
:1074C00005027FF4E5ABFFF7DCBB079A0E9322F0D1
:1074D0008002079254EA05027FF45CABA2E4079BAA
:1074E00008F1010843F02003079398F80030FEF7F5
:1074F000F3BE23AA09990A9805F0CAF900287FF477
:10750000CFA80DF1C009259CFFF70FB940210A98BB
:1075100003F0B0FE099A10601061002800F0F581B8
:10752000099A40235361FEF794BE21A81EA9049036
:1075300003911DA803210290089A3B46CDF804B0A0
:1075400000910A9802F094F95D460646119B741961
:10755000462B7FF4FCAE3378302B00F097811D9DD5
:107560002C44F4E623AA09990A9805F091F9002819
:107570007FF496A80DF1C0091D9D259C32E50E9360
:10758000FFF785BBBBF1000F08BF4FF0010BA9E669
:107590000E931746B8E50893109B2D2707938DF897
:1075A0006F704FF0000BFEF749BF3046FEF70CFE40
:1075B000AB460346FFF7C4BA23AA09990A9805F017
:1075C00067F900287FF46CA8259C249B0DF1C00965
:1075D000129901330C44072B25942493C9F80060B9
:1075E000C9F804107EF7EBAFFFF7CBB91D9BDD1C8C
:1075F00012DB9B4510DB1393CCE62346BAE623AAA5
:1076000009990A9805F044F900287FF449A80DF17A
:10761000C009259CFFF7E0B9119A023A1192013B8B
:107620009DF84420002B1D93B8BF5B428DF87C2051
:10763000B4BF2D222B22092B8DF87D2040F3008131
:107640000DF18B000446B84A82FB0321DA17C2EB26
:10765000A10101EB8102A3EB4202303209290B4662
:1076600004F8012DEFDC21463033DAB201F8012DA8
:10767000884240F251810DF17E01234601E013F86A
:10768000012B984201F8012BF9D1431C1B1B0DF172
:107690007E0213441FAA9B1A129A1993012A1344BB
:1076A0000D9340F309810D9B169A134400220D930C
:1076B000139223EAE3737BE6144601330F9A2C44BA
:1076C000072B2594249389E824003FF775AF09F12F
:1076D00008097DE723AA09990A9805F0D9F8002836
:1076E0007EF4DEAF0DF1C0091D9B259C26E55B46AF
:1076F000062B28BF06230D9323EAE373B3463746D0
:1077000013960E940893894EFEF797BE23AA099903
:107710000A9805F0BDF800287EF4C2AF1D9B129AAE
:10772000259CD31A0DF1C00920E50E921F46EBE40B
:107730002D231F468DF86F30FFF706BB0793FEF72A
:1077400063BE0E92FFF7A3BA21A81EA9049003916D
:107750001DA803210290089A3B46CDF804B0009181
:107760000A9802F085F85D46064600EB0B04F2E647
:107770004FF0060BB6E5169A129B1344139A0D931D
:10778000002A40F39180672223EAE37311920FE607
:10779000002B40F39B80BBF1000F6ED1079AD407FA
:1077A0006BD41A4623EAE3730D9201E6119B472B33
:1077B0007FF4CCAD079BDB073FF5C8AE219B9B1B3D
:1077C00012930D9B472B3FF411AF1D9B27E7079B9F
:1077D0005F46DB0705D540AE302306F8413DFEF796
:1077E00022BECDF834B030AEFEF720BE2BEAEB73EC
:1077F000CDF834B0089383460E9413909DF86F70C3
:10780000FEF71BBEA0460025FEF768BD23AA099916
:107810000A9805F03DF800287EF442AF0DF1C0094A
:107820001D9D259C249BFFF7F4BB219BA2E5169A86
:10783000139B134467220D93119223EAE373B7E578
:10784000303330228DF87F308DF87E2020AB21E759
:107850000799374E21F08001364B07911199032289
:107860004FF0000B08924729D8BF1E460D92CDF865
:107870004CB09DF86F70FEF7E0BD139B169A9D18F3
:1078800005EB0B030D9323EAE37391E50898394662
:10789000002200230AF05AF900287FF460AEC5F1F7
:1078A00001051D952C4452E5139B0D9AC3F101036C
:1078B0001A4413460D9266E7079B13F001037FF409
:1078C000F2AE13930D9B23EAE37371E5BBF1000F56
:1078D00002D1079BD80707D5169B5D1C05EB0B0350
:1078E0000D9323EAE37363E501230D9360E50E989E
:1078F00098F8013005680430002D0E90A046BEF6C1
:10790000EBAC4FF0FF35FEF7E7BC0A9A0C2313608F
:107910004FF0FF30FEF7CDBE0DF17E03BAE68DF8D5
:107920006F10FFF729BB00BF676666664027010836
:1079300014270108102701088DF86F10FFF70FB901
:107940008DF86F10FFF7B8BA8DF86F10FFF79FBA78
:107950008DF86F10FFF774BA8DF86F10FFF73EBA0D
:107960008DF86F10FFF710BA8DF86F10FFF732B96E
:107970008DF86F10FFF7B5B98DF86F10FFF768B984
:107980002DE9F04F83B0804603F002FB40F2B17363
:10799000984540F39A805A4A40F26D1C82FB083E9B
:1079A0004FEAE875C5EBEE164FF4C87303FB168675
:1079B000B6FA86F704466FF4F66141448910C5EBC8
:1079C0006E15A8F2B27E0CFB0E1CA8F26D736FF45C
:1079D000C86E82FB03A908EB0E0182FB012E642214
:1079E00002FB1585DA17A2EB6913C9176344C1EBD3
:1079F000EE1103EB010C08F00303C0F804807F09CB
:107A0000019300F1380E237A4A2B63D0442B72D0B5
:107A1000019B002B54D03B464FEA430AE1689A444D
:107A2000384B012903EB0A1A634667DD01F18041F7
:107A300002394FEA81090AEB0908AAF1040252F857
:107A4000041F90450B44FAD109F104012E4A03F1B9
:107A5000040B8BFB02894FEAEB720BEB0908C2EBBC
:107A6000A802C2EBC2086269C8EB0B0BB2EB0B0BAE
:107A7000226948BF0BF1070B013A5AF80110C2EB1B
:107A8000C2025A448A4202DB073A8A42FCDA1344B1
:107A9000226AA16900921D4A02FB0311009B19444E
:107AA00044F81C1F7445AED1C369816B01228B421F
:107AB000ACBF002301230360104603B0BDE8F08F84
:107AC000002D0CBF3B460123A6E70022104603B061
:107AD000BDE8F08F636901990CEB030239B935B148
