:020000040800F2
:102000000050002039F5000835F5000833F50008C8
:1020100033F5000833F5000833F500080000000030
:1020200000000000000000000000000035F500087E
:1020300035F500080000000035F500084D3B0008AC
:1020400033F5000833F5000833F5000833F50008D0
:1020500033F5000833F5000833F5000833F50008C0
:1020600033F5000833F5000833F5000833F50008B0
:1020700033F5000833F5000833F5000833F50008A0
:1020800033F5000833F5000833F5000833F5000890
:102090005D3A000833F5000833F5000833F5000811
:1020A00033F5000833F5000833F5000833F5000870
:1020B000653B0008D53B000833F5000833F5000800
:1020C00033F5000833F5000833F5000833F5000850
:1020D00033F5000833F5000833F5000833F5000840
:1020E00033F5000833F50008693A000833F50008B5
:1020F00033F5000833F5000833F5000833F5000820
:1021000033F5000833F5000833F5000833F500080F
:1021100033F5000833F5000833F5000833F50008FF
:1021200033F5000833F5000833F5000833F50008EF
:1021300033F5000833F5000833F5000833F50008DF
:1021400033F5000833F5000833F5000833F50008CF
:1021500010B50B4C20600B4801600B49C1E900230E
:10216000DDE90201094BC3E90001DDE90401084B87
:10217000C3E90001DDE90601064BC3E9000110BD1A
:10218000500C0020580C0020200C0020280C0020AF
:10219000180C0020380C00202DE9F843424C07466B
:1021A000266865680022414B304625F000410EF05C
:1021B00041F990B100220023304629460EF01CF967
:1021C00040B900220023304629460EF033F918B9F1
:1021D000002702E0364F00E0364F38460DF046FE4D
:1021E0008046894602460B46304629460EF0FAF8EC
:1021F000002852D142464B46304629460EF0FCF8A4
:102200002D4BD3E9002360B1304629460DF0D0FCB8
:1022100006460F4602460B46404649460EF0F6F883
:102220000BE0304629460DF0C1FC06460F4602463B
:102230000B46404649460EF0F3F810B1C4E9008958
:1022400001E0C4E9006716A3D3E900231B49256810
:102250006468D1E900010DF05DFE2A4624F00043D8
:102260000DF082FF0AF046FB0EF02CF9144B002211
:1022700018602146002328460EF0BEF848B9002217
:102280000023284621460EF0D5F8003018BF012063
:1022900001E04FF0FF300B4B1860BDE8F88300BF42
:1022A00000000000006AF840700C00200040BF40B1
:1022B0000000FAC50000FA45180C0020200C002090
:1022C000300C0020400C00202DE9F843424C07461A
:1022D000266865680DF0CAFD32462B460EF082F87E
:1022E000002872D100223D4B304625F000410EF00F
:1022F000A1F890B100220023304629460EF07CF868
:1023000040B900220023304629460EF093F818B950
:10231000002702E0324F00E0324F38460DF0A6FDB4
:1023200002460B4680468946304629460EF064F840
:102330002D4BD3E9002360B1304629460DF038FC1F
:1023400006460F4602460B46404649460EF054F8F4
:102350000BE0304629460DF029FC06460F460246A2
:102360000B46404649460EF065F810B1C4E90089B5
:1023700001E0C4E9006716A3D3E900231B492568DF
:102380006468D1E900010DF0C5FD2A4624F0004340
:102390000DF0EAFE0AF0AEFA0EF094F8144B0022AB
:1023A00018602146002328460EF026F848B900227E
:1023B0000023284621460EF03DF8003018BF0120CA
:1023C00001E04FF0FF300B4B1860BDE8F88300BF11
:1023D00000000000006AF840600C00200040BF4090
:1023E0000000FAC50000FA45380C0020280C002037
:1023F000540C0020680C002010B5084C00F004FAC2
:102400002168074800F008FA00232360054B0648BE
:102410001968BDE8104001F059BB00BF500D002005
:10242000900D0020200E0020780C00207FB50CF0CD
:1024300099F906AB43F8040D184601F0FBFD03685B
:10244000026941690293436801320193836801F292
:102450006C710093C368034802F0BEFA07B05DF8E0
:1024600004FB00BFC40801082DE9F04FDFF8088223
:10247000734C8DB00421002001F056FCD4E90667AE
:10248000D8E9060132463B460DF090FB66A3D3E93E
:1024900000230DF03FFD04F11005D5E9004582460B
:1024A0008B46D8E9040122462B460DF07FFB5EA344
:1024B000D3E900230DF02EFD5DA3D3E90023CDE980
:1024C0000801304639460DF025FD59A3D3E9002314
:1024D00080468946204629460DF01CFD594D06468A
:1024E0000F46D5E900010DF0DFFC0022564B0DF040
:1024F0003BFEDDE90834CDE90267CDE90634CDE9DC
:10250000008902460B46CDE904AB504802F064FA5C
:1025100049A3D3E90023404649460DF0FBFC4C4B50
:102520004C4C8046186889460DF08EFCD4E9002397
:102530000DF0F0FC02460B46404649460DF036FBD6
:102540003DA3D3E90023CDE90A01304639460DF019
:10255000E1FC414BDFF82481064618680F460DF078
:1025600073FCD8E900230DF0D5FC02460B4630463B
:1025700039460DF01BFBDDE90A23CDE900013748A0
:1025800002F02AFAD4E90023504659460DF0ECFD3A
:10259000D8E9002306460F46DDE908010DF0E4FD09
:1025A0003246CDE900013B462D4802F015FAD4E948
:1025B00000232C49D1E900010DF0D6FD2A4B0F462E
:1025C000D3E90023CDE902232849D8E900230646B0
:1025D000D1E900010DF0C8FD32463B46CDE90001CE
:1025E000234802F0F9F90CF0BDF80DF02DFC064679
:1025F0000F46D5E900010DF057FC0022124B0DF0FB
:10260000B3FD02460B46304639460DF0CFFA02467E
:102610000B46184802F0E0F90DB0BDE8F04FFFF7A7
:1026200005BF00BFAFF300807BAD3173C62D0941FC
:10263000F8C1631ADCA54C40000000000020AC404B
:10264000280D0020E80E002000408F40E20801081D
:10265000500C0020200C0020580C00200E0901080E
:1026600025090108880D0020700C0020E80C0020CE
:102670003809010849090108600D0020280C0020D4
:102680002DE9F84F484B494CD3E900010DF00CFC03
:102690000022474B0DF068FD464EDFF834A1C4E937
:1026A0000801C6E90801444F304600F0FDFFDAF8A2
:1026B00000000DF0C9FBD7E900230DF02BFC38A377
:1026C000D3E900230DF050FD3C4DC4E90601286814
:1026D0000DF0BAFB3A4BDFF8FCB0D3E900230DF064
:1026E00019FC2FA3D3E900230DF03EFDC4E904013A
:1026F000204601F0A5F8D6E908010022314B0DF083
:1027000057FACBE90801584600F0CEFF24A3D3E9DD
:102710000023DBE90601D7E900670DF0FBFB8046EB
:10272000DAF8000089460DF08FFB32463B460DF08B
:10273000F1FB02460B46404649460DF037FA18A316
:10274000D3E90023204CDFF890A0C4E90001DBE9C5
:1027500004010DF0DFFB8046286889460DF074FB0C
:1027600032463B460DF0D6FB0B46024649464046F4
:102770000DF01CFA154BCAE900011B680BB1FFF7FD
:1027800073FED4E900010DF0BDFEFFF705FDDAE9A7
:1027900000010DF0B7FEBDE8F84FFFF795BD00BF93
:1027A0007BAD3173C62D0941E80E0020B80C002026
:1027B00000408F40280D0020200C0020580C0020E5
:1027C000280C00200000F03F880D0020A80A0020FF
:1027D000500C0020600D0020E80C002000B58BB0EC
:1027E00003930C9B069002930D9B0AA840F8243D8E
:1027F0000591049201F01AFF002801DB0BF0BCFFE9
:102800000BB05DF804FB0000014B01221A60704719
:10281000AC0E0020000000002DE9F04FAEA7D7E974
:1028200000670446B04AB14DB148002361182B60DF
:1028300013600360AF4B8FB08C42C3E90067079110
:102840000D920A9300F05682AB4B1A68002A00F0F2
:1028500069820B930B9BA94A1F68A94BA949DB5DB1
:1028600011F807E01A44A84BDB5DBEF1000F1BD046
:1028700010460EF1FF361644B04213D8C0EB060CDA
:102880004FEA6C0C00EB0C0194F8008010F80CC0BF
:10289000E04501D24E1EEFE701D9481CECE78A1A49
:1028A000134423E072447344984911F807E0BEF1E1
:1028B000000F1BD0164602EB4E07023FBE4214D853
:1028C000B81B401020F00100311894F800C0305CB3
:1028D000604501D98F1EF1E74878604501D28E1C12
:1028E000ECE78A1A03EB620300E07344884AD15C88
:1028F000814A1160874AD35C2BB90B9B1B68002B64
:1029000040F0F3810EE2844A03F1010AD35C924461
:1029100053440C930C9B9A45EFD01AF8013B1D2BA6
:10292000F8D801A252F823F0A1290008B52900081F
:10293000C92900085F2A0008A52A0008B52A00084E
:10294000C12A00084D2B0008532B00085B2B000800
:102950006F2B00087B2B0008852B00088B2B0008B1
:10296000912B0008AF2B0008AF2B0008992B000813
:10297000A72B0008A72B0008AB2B0008AF2B0008E3
:10298000B92B000815290008C92B0008D52B000811
:10299000852C0008C12C0008CF2C0008E52C00086D
:1029A000514A23781168392B03EB01138CBF373B55
:1029B000303B8AE123782A68392B03EB02138CBF62
:1029C000373B303B2B60A5E7544F4A4BDFF858B1FB
:1029D000D3E90089D7E90023404649460DF09AFA29
:1029E0000DF048FD4E4B064618604946D7E90223D4
:1029F0004046CDE908230DF08DFA0DF03BFD002295
:102A00000746DDE9080100230DF0F6FC10B9CBF80C
:102A1000007015E032A3D3E90023404649460DF08B
:102A200079FA8046384689460DF00EFA02460B4682
:102A3000404649460DF0BCF80DF01CFDCBF80000F7
:102A4000384B1A68384B1B680AB1324626E03246CA
:102A50003649374801F0D4FF0022324B2EE10A9B61
:102A6000DFF8B890D3E90067D9E906233046394644
:102A70000DF050FA0DF0FEFC2E4B804618603946E2
:102A8000D9E9042330460DF045FA0DF0F3FC2A4A4B
:102A900003461060234A126812B142462749D8E71C
:102AA0004246D5E71E4A264B1A601F4A254B1A603C
:102AB00000220CE0204A224B1A601E4A214BFDE006
:102AC000174A1F4B1A60184A1E4B1A6001221E4BF0
:102AD000F4E000BFAFF3008083C8C96D305FC4402D
:102AE000182D4454FB211940080000200C00002040
:102AF000200E0020B80E0020AC0E0020D40A0108E1
:102B0000080D0108860B0108C60C0108030A01081C
:102B10004E090108110C0108450A0108B80C0020F3
:102B2000000000204009002018000020D90B0108F7
:102B3000780C00203409002038090020C80B010857
:102B4000C40E0020B00E0020AC0A00207C4B1A7886
:102B50003BE022787A4B1A7029E07A4B01221A6006
:102B6000794B73A2D2E90012C3E90012D2E6774A88
:102B70002178136803EB0123A7E0744A21781368D6
:102B80000B44A2E02278724B98E00122714B95E051
:102B9000714B01221A70BDE60A2304226F49704866
:102BA00001F02EFFB6E601220FE06E4900E06E490B
:102BB0006B4801F04BFFADE600231A4667496848B1
:102BC00001F01EFF032278E022786849644801F092
:102BD00017FF9FE60D9B64491A68654B60481B68A8
:102BE000DFF8ECB11A60634B2A681B681A6001F0C9
:102BF0002DFF0A9BD3E900895F4B18680DF024F97B
:102C000042464B460DF0B0FA06460F465B4BCBE909
:102C1000006718680DF018F94B4642460DF0A4FA0B
:102C2000574BCBE90201C3E90067564EC3E90201E5
:102C30003368002B3FF46EAE584600F035FD3EA3DE
:102C4000D3E90023DBE906010DF064F94E4BD3E92B
:102C500000230DF089FA0DF00DFC4C4B186036A3E3
:102C6000D3E90023DBE904010DF054F9484BD3E923
:102C700000230DF079FA0DF0FDFB464B18600023A0
:102C8000336047E64449454B0978454A1B7812783A
:102C900005914449324809780491434909780391E0
:102CA00042490978029142490978019141490978DC
:102CB0000091414901F0A4FE0922404B1A6029E627
:102CC0003F4A1368B3FA83F35B09136022E62122BB
:102CD00000238DE80C000A210F2302227420FFF745
:102CE0007DFD17E6FFF7A2FB14E6079B0134A34224
:102CF0007FF4B0AD334B344A1B68304ED35C334A5B
:102D00005C1CD55C144415F1FF350BD314F8013B62
:102D1000172BF8D13368002BF5D1114801F0F4FEE0
:102D20003060F0E70FB0BDE8F08F00BFAFF3008078
:102D300083C8C96D305F44417BAD3173C62D0941F5
:102D40000400002040090020B80E002044090020A3
:102D50001C0000203C090020C80E0020FF0B0108C9
:102D6000780C0020E60B0108D70B0108010C0108C4
:102D7000C40E0020B00E002000000020180000202B
:102D8000600D0020AC0A0020200C0020500C002018
:102D9000280C0020580C00201400002011000020F6
:102DA0001000002030090020200000201300002027
:102DB0004809002012000020F30B0108200E00201B
:102DC000A80A0020AC0E0020920A0108450A01085A
:102DD000280D002070B514461D460F4B00221A70B6
:102DE0000E4B0F4EC3E900010E4BC3E90045DDE970
:102DF0000423C6E90023002200230DF0F3FA40B1BA
:102E000000220023204629460DF0ECFA003018BFBE
:102E10000120054B187070BD880A00205009002061
:102E20006009002058090020890A002000000000E5
:102E30002DE9F04F14468BB01D4602460B4646A1C5
:102E4000D1E900010CF0B2FE454B0646D3E9002360
:102E50000F46204629460CF0ABFE04460D46304690
:102E6000394609F0FFFC82468B462046294609F088
:102E7000F9FC804689463046394609F08BFD064606
:102E80000F462046294609F085FD4246CDE900015E
:102E90004B46504659460DF03DF802460B46314C24
:102EA000CDE90601C4E90023404632463B46494687
:102EB0000DF030F8DDE9002380468946C4E904239B
:102EC000294BC4E902891B78002B3FD1274BD3E95A
:102ED0000023CDE90223264BD3E90023CDE90423C7
:102EE000DDE902230DF016F8DDE90423CDE9080140
:102EF000304639460DF00EF802460B46DDE9080172
:102F00000CF054FEDDE906230CF052FEDDE904234B
:102F1000C4E90001504659460CF0FCFFDDE90023EE
:102F200006460F46504659460CF0F4FFDDE90223F1
:102F30000CF0F0FF02460B46304639460CF036FEE8
:102F400042464B460CF034FEC4E902010BB0BDE82A
:102F5000F08F00BFAFF30080182D4454FB211940BF
:102F600060090020900A0020890A002050090020F2
:102F7000580900202DE9F04F89B090469946044643
:102F80000D4609F06FFC82468B464046494609F0E3
:102F900069FC06460F462046294609F0FBFC04461C
:102FA0000D464046494609F0F5FC3246CDE90001A0
:102FB0003B46504659460CF0ADFF02460B46DFF843
:102FC000C480CDE90601C8E90023304622462B46DD
:102FD00039460CF09FFFDDE9002306460F46C8E99D
:102FE0000C23254BC8E906671B78002B41D1234BE6
:102FF0002046D3E90023CDE90223214B2946D3E91A
:103000000023CDE90423DDE902230CF083FFDDE991
:10301000042304460D46304639460CF07BFF024639
:103020000B46204629460CF0C1FDDDE906230CF0D5
:10303000BFFDDDE90023C8E90001504659460CF008
:1030400069FFDDE904230CF065FFDDE90223044696
:103050000D46504659460CF05DFF02460B46204691
:1030600029460CF0A3FD32463B460CF0A1FDC8E911
:10307000060109B0BDE8F08F890A00205809002038
:1030800050090020B00900202DE9F04FD0E90034AC
:103090008DB0CDE90034D0E90834CDE90234D0E96F
:1030A00010348246CDE90434D0E90234CDE9063447
:1030B000D0E90A34CDE90834D0E90C34DDE9000167
:1030C000CDE90A34DDE902230CF024FFDDE9042315
:1030D0000CF020FFDDE9082304460D46DDE906017A
:1030E0000CF018FFDDE90A230CF014FF02460B4632
:1030F000204629460CF05CFDDAE90E4580468946FB
:10310000DAF81070DAF8146022460AF1180BDBE9DD
:1031100000AB2B46384631460CF0FCFE52465B466F
:103120000CF0F8FE42464B460CF042FDDDE902236E
:1031300080468946384606F100410CF0EBFEDDE999
:103140000A230CF0E7FE224606460F46DDE90001A1
:103150002B460CF0DFFEDDE908230CF0DBFE024617
:103160000B46304639460CF021FD42464B460CF0EA
:103170001FFD524604460D46DDE906015B460CF094
:10318000C9FEDDE904230CF0C5FE02460B462046CD
:1031900029460CF00BFD0DB0BDE8F08F2DE9F0478E
:1031A000164C0546D4E90023D4E906898A46104620
:1031B00019460CF0AFFE424606460F464B464046C7
:1031C00049460CF0A7FE02460B46304639460CF045
:1031D000EFFC09F029FC02460B46D4E90C0109F08A
:1031E00021FCCAE90001D4E90023D4E9060109F071
:1031F00019FCC5E90001BDE8F08700BFB009002057
:103200002DE9F84F304B0D46187004462CA3D3E936
:103210000023D1E908010CF07DFE02460B46D5E9FA
:1032200000010CF0C3FC80468946D5E9020109F093
:1032300019FB82468B464046494609F013FB02467D
:103240000B46504659460CF065FE013CE4B21F4E59
:10325000E700F319C3E900014046494609F09AFB2B
:1032600002460B46504659460CF054FE04F1030842
:103270004FEAC80806EB0809C9E90001D5E90201CF
:1032800009F088FB0634E4002644C6E90001D5E9CC
:103290000601D5E90423FFF7CBFD0D480D4907448E
:1032A00080440444D1E90023C7E90023D1E9022383
:1032B000C8E90023D1E90423C4E90023BDE8F88F5D
:1032C0001FB0F5F6A71D133F880A002068090020EB
:1032D000B0090020900A00202DE9F047DFF854A241
:1032E0008AB0DAE90634CDE90034DAE90E89DAE9A0
:1032F0000823DDE90001CDE90223DAE90C45424665
:103300004B460CF007FEDDE9022306460F46204639
:1033100029460CF0FFFD02460B46304639460CF0BC
:1033200045FC02460B46CAE90423DAE90223CDE94B
:103330000423DAE90023CDE90801CDE90623DDE91C
:103340000423204629460CF0E5FDDDE9062304466A
:103350000D46404649460CF0DDFD02460B46204630
:1033600029460CF023FCDDE9062306460F46DDE97D
:103370000201CAE90A670CF0CDFDDDE90423044629
:103380000D46DDE900010CF0C5FD02460B46204666
:1033900029460CF00BFCDDE9082304460D461046D7
:1033A000CAE9104519460CF0B5FD32463B46804649
:1033B0008946304639460CF0ADFD02460B46404684
:1033C00049460CF0F5FB224606460F462B462046A2
:1033D00029460CF09FFD02460B46304639460CF05C
:1033E000E7FB09F021FB06460F460AF14804DAE93B
:1033F000040132463B460CF0B7FE0AF1180A4AE9CE
:103400000201A245F3D1DFF830A1DAE90634CDE9B3
:103410000034DAE90E89DAE90823DDE90001CDE9B3
:103420000223DAE90C4542464B460CF073FDDDE918
:10343000022306460F46204629460CF06BFD024645
:103440000B46304639460CF0B1FB02460B46CAE942
:103450000423DAE90223CDE90423DAE90023CDE9E4
:103460000801CDE90623DDE90423204629460CF0B6
:1034700051FDDDE9062304460D46404649460CF061
:1034800049FD02460B46204629460CF08FFBDDE93C
:10349000062306460F46DDE90201CAE90A670CF079
:1034A00039FDDDE9042304460D46DDE900010CF099
:1034B00031FD02460B46204629460CF077FBDDE93C
:1034C000082304460D461046CAE9104519460CF07B
:1034D00021FD32463B4680468946304639460CF04F
:1034E00019FD02460B46404649460CF061FB224658
:1034F00006460F462B46204629460CF00BFD024699
:103500000B46304639460CF053FB09F08DFA06465F
:103510000F460AF14804DAE9040132463B460CF052
:1035200023FE0AF1180A4AE90201A245F3D10AB0C2
:10353000BDE8F08768090020B00900202DE9F04FB0
:10354000514B95B01B78022B01D1FFF7C5FE4822E5
:103550004E4902A800F0A2FE02A8FFF795FD02ACBA
:103560002546CDE9000100264FF000084FF0000984
:103570004822464902A800F091FE454B002706EB81
:10358000030A444AEB190021C5E90089C5E9068907
:10359000C5E90C8902A8C3E90012FFF775FDDDE952
:1035A00000230CF0E1FD1837482FEAE90201E8D1C9
:1035B0001836482E05F10805DAD132460021364882
:1035C00000F0E2FEDFF8D8B00027334BA7F108097E
:1035D00003EB09080026F8E90223CDE900232F4B6D
:1035E000002503EB090A05EB450131445944FAE98A
:1035F0000223D1E900010CF08DFC02460B46DDE907
:1036000000010CF0D5FA0835182DCDE90001EAD1FA
:1036100002460B460836182EC8E90023DBD11837BE
:10362000482FD2D1DFF878A0002548221A4902A8F5
:1036300000F034FE02A8FFF727FD80468946A5F179
:1036400008075744002600220023C4E90023C4E9E8
:103650000623C4E90C230F4AA3190021C3E9001271
:1036600002A8FFF711FD42464B460CF07DFD1836CF
:10367000482EE7E90201E6D11835482D04F1080487
:10368000D3D115B0BDE8F08F880A0020680900206A
:10369000380A00200000F03FF8090020B00900209F
:1036A000400A0020000000002DE9F04F5CA3D3E9A0
:1036B000002387B0044600F12001D1E900010CF09D
:1036C00029FC02460B46D4E900010CF06FFA8B4648
:1036D0008246D4E90201CDE902AB09F0C3F8804685
:1036E000894650465946CDE9048909F0BBF802469F
:1036F0000B46404649460CF00DFC4D4E4D4DC6E97B
:1037000000015946504609F045F902460B4640462D
:1037100049460CF0FFFBC6E90601D4E9020109F0B5
:1037200039F900220023C6E90C01C5E90023C5E9E7
:103730000623C5E90C23DFF804B14FF0000805EBC0
:10374000080ADAE90023CDE90023A8F10809D944E1
:10375000002707EB47013144F9E90223D1E90001D1
:103760000CF0D8FB02460B46DDE900010CF020FA14
:103770000837182FCDE90001EBD102460B4608F1BE
:103780001808B8F1480FCAE90023D8D104A902A843
:10379000FFF704FDDDE90423DDE90201FFF7EAFBA1
:1037A00004A902A8FFF7FAFCDDE90401224BD3E9E2
:1037B00000230CF0FBF9DDE90223C4E904011AA19E
:1037C000D1E900010CF0F2F9C4E906010022D4E9C4
:1037D00006670023304639460CF00EFE38B112A3BE
:1037E000D3E90023304639460CF0E2F9ECE7D4E99E
:1037F00006670DA3D3E90023304639460CF01AFEC4
:1038000048B109A3D3E90023304639460CF0CEF97C
:10381000C4E90601EBE707B0BDE8F08FAFF3008025
:103820001FB0F5F6A71D133F182D4454FB21194076
:1038300068090020B009002060090020F809002074
:103840002DE9F74FD0E90423044600F11801D1E92E
:103850000001FFF7EDFA424E4249434DD1E9002302
:10386000C6E90023D1E90223C6E90623D1E90423EE
:10387000C6E90C2300220023C5E90023C5E906237D
:10388000C5E90C23DFF8E4B04FF0000805EB080AA7
:10389000DAE90023CDE90023A8F10809D94400277B
:1038A00007EB47013144F9E90223D1E900010CF0AB
:1038B00031FB02460B46DDE900010CF079F90837CF
:1038C000182FCDE90001EBD102460B4608F118088C
:1038D000B8F1480FCAE90023D8D104F10801204605
:1038E000FFF75CFC1AA3D3E90023D4E908010CF02C
:1038F00011FB02460B46D4E900010CF059F9C4E96A
:1039000000010022D4E900670023304639460CF05C
:1039100073FD28B110A3D3E9002330463946ECE704
:10392000D4E900670CA3D3E90023304639460CF0F4
:1039300081FD48B108A3D3E90023304639460CF095
:1039400035F9C4E90001EBE703B0BDE8F08F00BF33
:103950001FB0F5F6A71D133F182D4454FB21194045
:1039600068090020900A0020B0090020400A0020C9
:1039700010B519460446104613A3D3E900230CF0F2
:10398000F3FB11A3D3E90023C4E90001DDE902013F
:103990000CF0EAFB0CA3D3E90023C4E90201DDE942
:1039A00004010CF0E1FB08A3D3E90023C4E90601FC
:1039B000DDE906010CF0D8FBDDE90823C4E90401C8
:1039C000C4E9082310BD00BFF8C1631ADCA54C4050
:1039D0004878202804D0A0F122035842584170476B
:1039E0001888062894BF00200120704737B5044688
:1039F0000F4B002500930222402301210BF042F9D6
:103A0000204600954023022282210BF03BF92046FC
:103A100000951023032283210BF034F92046054B37
:103A20007F22212103B0BDE830400BF01BBA00BF5C
:103A3000393A0008D139000810B5064C4023224617
:103A400001210BF047F9044B186008B100232354FF
:103A500010BD00BF900D0020500D0020014B1868D4
:103A60000BF00CB9F40C0020FFF7F8BF1FB54FF4B2
:103A700000710E480AF0C4FE802302930C4B0D4ADD
:103A80000193032300930C490C4B0D480BF0CAF82B
:103A90000C4B0D4918600BF0ABFC14200BF0B8FD7B
:103AA0002A2005B05DF804EB0BF0B2BD000C01401C
:103AB000240E00207A0D01084A0D01082400002080
:103AC00080140108F40C0020ED3900080246034878
:103AD0008BB2006882210BF0F6B800BFF40C002016
:103AE00001282DE9F0478946144625D100252E46A8
:103AF000DFF854A0631B402B09EB0507DFF8488073
:103B00000BDD40233A468221DAF800000BF0DBF8A7
:103B10000028F6D001364035ECE7A4EB8614A4B2B9
:103B200023463A468221D8F800000BF0CCF8002852
:103B3000F6D00020BDE8F08700F076FA0523036098
:103B40004FF0FF30BDE8F087F40C00200449D1E9C4
:103B50000023013243F10003C1E90023704700BF95
:103B6000E80E002008B502214FF080400AF0A0FEC8
:103B700018B302214FF080400AF0A0FE4FF08040C1
:103B80000BF022F80D4B80B218800D4B00211B6802
:103B9000C2180C4B92B24FF080401A800BF004F820
:103BA000094A0A4B11681B6809480B4413604FF41B
:103BB0000051BDE808400AF026BE08BDDE0E002018
:103BC000300C0020E20E0020500C0020400C0020A1
:103BD0000010014008B5022112480AF069FE00B346
:103BE000022110480AF06AFE0E480AF0EDFF0E4B63
:103BF00080B218800D4B00211B68C2180C4B92B28A
:103C000008481A800AF0D0FF0A4A0B4B11681B685B
:103C10000A480B4413604FF48041BDE808400AF0A5
:103C2000F2BD08BD00040040DA0E0020540C002054
:103C3000DC0E0020580C0020680C00200010014011
:103C40002DE9F04730A7D7E9006788B000240025A8
:103C5000DFF8C8A0DFF8C890294622462B46204648
:103C60004FF00008CDE90045FFF7B4F8CDE904674F
:103C7000CDE9008922462B465046CDE90645CDE9DF
:103C80000245FFF775FE51460120FFF7B9FA204BB8
:103C90000022CDE90489CDE90223CDE9006722465F
:103CA0002B4650461B4FDFF87C90CDE90645FFF7C9
:103CB0005FFE0026514602204FF00008FFF7A0FAF1
:103CC000FFF73CFC32463B465046CDE90645CDE980
:103CD0000445CDE90245CDE90089FFF749FECDE96C
:103CE0000645CDE90445CDE90245CDE900893246D6
:103CF0003B460948FFF73CFE504608B0BDE8F04798
:103D0000FFF7D2BCAFF30080666666666666424027
:103D10000080664000406640600D0020280D0020B5
:103D2000008056400000244003460A4601481B21FB
:103D300000F052BE170E0108F0B5AD4AAD4B87B08A
:103D40001A600AF06BFC40F203300AF03FFF4FF4B8
:103D50000071A9480AF052FD4FF4803400BF013CC5
:103D6000FCD1FFF783FE4FF441700AF02FFF22468B
:103D70004FF4C0430321A1480AF00EFB4FF4005159
:103D80009E480AF03DFD20460BF026FC42F227300B
:103D90000BF01AFC0BF02CFC0BF032FC4FF46070B3
:103DA0000AF014FF1C200BF033FC4FF080400AF0A7
:103DB0003BFD2346224621464FF080400AF081FD1C
:103DC0004FF434714FF080400AF093FD4FF0804083
:103DD0000AF080FD4FF080400AF081FD4FF6FF7140
:103DE0004FF080400AF087FD21464FF080400AF0F6
:103DF0009FFE02214FF080400AF09AFE04214FF00E
:103E000080400AF095FE06214FF080400AF090FEB7
:103E100021464FF080400AF070FD21464FF080406F
:103E20000AF06BFE21464FF080400AF080FD2246EA
:103E300021464FF080400AF094FD4FF47A722146FB
:103E40004FF080400AF0B0FE4FF080400AF042FD93
:103E50004FF080400AF048FD02214FF080400AF008
:103E600023FD40F281300AF0B1FE1D200BF0D0FBA3
:103E700063480AF0D9FC23462246214660480AF0EE
:103E800020FD4FF434715E480AF033FD5C480AF0BF
:103E900021FD5B480AF023FD4FF6FF7158480AF0F8
:103EA0002AFD214656480AF043FE022154480AF0F2
:103EB0003FFE042152480AF03BFE062150480AF01A
:103EC00037FE21464E480AF018FD21464C480AF0BC
:103ED00014FE21464A480AF02AFD22462146484857
:103EE0000AF03FFD4FF47A72214645480AF05CFE25
:103EF00043480AF0EFFC42480AF0F6FC414F022129
:103F00003F480AF0D1FC0026FFF79AFE30A3D3E920
:103F10000023214620463C4CCDE90023CDE904672F
:103F2000CDE90267FEF714F9D4E900010BF0BCFFFC
:103F300032463B460CF018F9344DC5E908012846D5
:103F4000FFF7B2FB24A3D3E90023D5E906010BF068
:103F5000E1FF2F4BD3E900230CF006F90CF08AFAAD
:103F60002C4B00221860D5E904012B4B0BF0D2FF3B
:103F70001BA3D3E900230BF0CDFF1BA3D3E9002340
:103F80000F4626490646D1E900010BF0C3FF024661
:103F90000B46304639460CF0E7F80CF06BFA204B34
:103FA0004FF22441186003200AF00EFC1D4D2B68CF
:103FB0000BB1FEF721FAD4E90001642200230CF0D2
:103FC000F1FA1343F3D1FEF75BFBF0E7AFF30080A8
:103FD000333333333333D33F7BAD3173C62D094194
:103FE000000000000020AC40182D4454FB21094083
:103FF0000020000808ED00E0000C01400010014026
:104000000004004000408F40E80E0020280D0020F2
:10401000200C0020500C002000806640280C00205E
:10402000580C0020500D0020014B1868704700BF4D
:1040300058040020024B19687C3100F003B800BF1F
:10404000580400202DE9F0410C46064605F040FCDE
:1040500021468046304605F03FFC4769044607F29A
:104060006C77B90700F0C880FA1787494FF4C87316
:1040700081FB0701C2EBE11203FB1273B3FA83F376
:104080005B095A00814D134405EB031502F0E0F97A
:1040900002F0E2F97E4B1B6843B3D8F804309F422C
:1040A00005D0384602F00CF9002800F0B380D8F8AB
:1040B000003083B93368D8F81C20934280F2AE8078
:1040C000D8F838209342B4BF0123002323620EDACC
:1040D000D8F83C000DE03368D8F81C20934204DB8C
:1040E000D8F838209342C0F2998000232362D8F890
:1040F0002000684EC11780FB06230344C1EBE32375
:104100004FF4616202FB1303634A86FB006E83FB7C
:10411000027882FB032608EB030770444FEAE37E34
:10412000CEEB6717C7EB0717C1EBE02021681E44F1
:10413000A268A3EB87036768CB1ACEEB661E121A40
:10414000CEEB07013B2BA260236061604DDD0131A6
:104150003C3B616023603B2940DD01323C39A26079
:104160006160172A1DDDA369E1690133062BC8BF11
:104170000023A361E3680131E161183A0133216949
:10418000A260E36055F82120934205DD01319B1ABE
:104190000C29E36045D0216102F05CF92046BDE8BE
:1041A000F081002AF8DAA369E169013B48BF0623E0
:1041B000A361E36801391832013BE161A260E36069
:1041C000002BE9D12369013B32D423619B00EB58DA
:1041D000E36002F03FF92046BDE8F0810029C0DA33
:1041E000013A3C31A2606160BBE7002BB3DA0139D0
:1041F0003C3361602360AEE7234BFA1783FB071360
:104200006421C2EB631301FB1373002B3FF42DAF4A
:10421000012336E74FF0FF33236268E7012323626F
:1042200056E763690022013363612261E261B3E70B
:1042300063690B215A1E62619207216113D003F258
:104240006B71CA1710484FF4C87380FB0160C2EB52
:10425000E01203FB1213B3FA83F35B0903F5B673A1
:10426000E3612C23B3E7084A03F26B7182FB01235D
:10427000CA17C2EB6313642000FB1313002BE1D0B9
:1042800040F26D13ECE700BF1F85EB51880E01086B
:10429000CC0A0020C5B3A29189888888844641EA67
:1042A000000313F0030349D1403A23D30B680360A2
:1042B0004B6843608B688360CB68C3600B690361A4
:1042C0004B6943618B698361CB69C3610B6A03628C
:1042D0004B6A43628B6A8362CB6AC3620B6B036374
:1042E0004B6B43638B6B8363CB6BC3634030403159
:1042F000403ADBD230320BD30B6803604B6843602B
:104300008B688360CB68C36010301031103AF3D2F1
:104310000C3205D351F8043B40F8043B043AF9D27F
:10432000043208D0D2071CBF11F8013B00F8013B52
:1043300001D30B8803806046704700BF082A13D35F
:104340008B07B1D010F00303AED0C3F10403D21A2F
:10435000DB071CBF11F8013B00F8013BA4D331F887
:10436000023B20F8023B9FE7043AD9D3013A11F807
:10437000013B00F8013BF9D20B7803704B78437096
:104380008B7883706046704770B4840746D0541EA3
:10439000002A41D0CDB2034602E0621EE4B31446C7
:1043A00003F8015B9A07F8D1032C2ED9CDB245EA68
:1043B00005250F2C45EA054519D9264603F11002BB
:1043C000103E0F2E42F8105C42F80C5C42F8085C7C
:1043D00042F8045C02F11002F2D8A4F1100222F0BB
:1043E0000F0204F00F041032032C13440DD91E46A3
:1043F0002246043A032A46F8045BFAD8221F22F028
:1044000003020432134404F003042CB1C9B21C4467
:1044100003F8011BA342FBD170BC7047144603464E
:10442000C2E700BF2DE9F043016883B03B29044691
:1044300000F2BA8041683B2900F2A980A1681729DF
:1044400000F2988021690B2900F2878063699F0739
:104450003ED1744DDA1785FB03076426C2EB671261
:1044600006FB1232002A72D103F26C7385FB03251E
:10447000DA17C2EBE5154FF4C87202FB1533002BB7
:104480000CBF1D261C26E368002B25DD664FDFF8D8
:1044900094C14FF0000E4FF064084FF4C8794A1CE5
:1044A00007EB81000BE005689D42A3EB050336DABC
:1044B0000C2AE360226135D0013101320430012938
:1044C000F1D19E42A3EB060329DAE3602261F3E710
:1044D000E3681C26002BD9DC5348524D64274FF467
:1044E000C87E07E001290CBF324650F82120134452
:1044F000002B12DC11F1FF31F4D261694A1E9607DC
:10450000626126D185FB026CD617C6EB6C1607FBE1
:104510001622002A55D01D261CE02161E36003B05D
:10452000BDE8F0836169C4F810E04A1C900762613D
:1045300002D01C260021B2E78CFB0205D017C0EB8D
:10454000651008FB1022002A49D01D26F2E71D261F
:1045500099E71C260B211F22C9E70C22684603F0AD
:1045600073FD6269009B019913440029636153DB69
:1045700021616CE71822684603F066FDE168009B44
:10458000019A0B44002AE36041DBA2605AE73C2217
:10459000684603F059FDA3680099019A1944002A5E
:1045A000A1602FDB62604AE73C22684603F04CFDC5
:1045B0006168009B019A1944002A61601DDB22603A
:1045C00039E701F26B7185FB0126CA17C2EBE612CF
:1045D0000EFB1211002914BF1C261D26BAE701F29A
:1045E0006D718CFB0120CA17C2EBE01209FB12119E
:1045F000002914BF1C261D269CE73C32013922608D
:10460000616018E73C3201396260A16017E7183237
:10461000013BA260E36015E70C31013B216163615E
:1046200015E700BF1F85EB51580E01082DE9F84F23
:10463000064605F04DF980463046FFF7F3FEC64CBE
:10464000356973683168F26854F82540C3EB031389
:10465000B06801EB83034FF4616E013A012D0EFB4C
:10466000003E1444756902DDAF0700F0C18044F6D6
:10467000206205F51C5310339342F46100F263810C
:10468000462D00F38C8053D0452D00F0348140F24C
:104690006D1AB24F45234FF0640C4FF4C8791BE0FC
:1046A00087FB031BC2EB6B120CFB123203F26C7024
:1046B000C117002A40F0C78087FB00B2C1EBE211AE
:1046C00009FB1100002814BF52464FF4B772013B9A
:1046D000AB42A4EB02040AD099074FEAE372DFD0A1
:1046E00040F26D12013BAB42A4EB0204F4D1AF07E0
:1046F00040F00181994AEB1782FB0501C3EB61137E
:10470000642101FB1353002B40F0078105F26C700C
:1047100082FB0012C117C1EBE2124FF4C87101FB1A
:104720001202002A40F26D1308BF4FF4B773E41A67
:104730008B4800FB04E901F08BFE01F08DFE894BF4
:104740001F68002F00F08280376A7069D8F8043043
:10475000012F00F26C70A8BF0127984257D001F0DA
:10476000AFFD002853D1012F40F0D380D8F83C1082
:1047700009EB0105012701F06DFE7B48043484FB41
:104780000001E3176218C3EBA203C3EBC303E31AF0
:1047900048BF07333762B3612846BDE8F88F40F25F
:1047A0006D1A6E4F46234FF0640C4FF4C87918E031
:1047B00087FB031BC2EB6B120CFB123203F26C7013
:1047C000C1170ABB87FB00B2C1EBE21109FB110064
:1047D000002814BF52464FF4B7720133AB42144461
:1047E000A6D098074FEAE372E2D040F26D12F4E7E8
:1047F0005A4AEB1782FB0501C3EB6113642101FBED
:10480000135343B3013432E74FF4B772E5E7D8F8F6
:104810002020D8F83830D8F83C10C2EB030CE14522
:10482000104602DB5B1A99459DDBD8F81C30C1EBC2
:10483000030ED8F80030EBB1F1455FDA002F80F2BB
:10484000C180002704E04FF4B77240E7D8F8200099
:1048500009EB00058FE705F26C7182FB0132CB1783
:10486000C3EBE2124FF4C87303FB1212002A7FF469
:10487000FEAEC7E7F14541DB002FFFF679AF7FF4CD
:1048800077AF511A33688944194431603046F7686C
:10489000FFF7C8FDF368DB1B3FF468AF0127012B6E
:1048A00040F383804FF0FF33F2691C449B185DD4C2
:1048B000AA074ED12948EA1780FB05E1C2EB611235
:1048C000642101FB1252002A73D105F26C7580FB42
:1048D0000501E817C0EBE1104FF4C87101FB10515E
:1048E000002940F26D1208BF4FF4B7729A42D8BF48
:1048F0009B1AF36137E740F26D1318E7E145ACBF4F
:1049000000230123002F02DB5F40012F08D01F4648
:1049100029E7D8F8202010469AE74FF4B77306E746
:10492000511A002BAED13368C1EB0909591A316015
:104930003046F768FFF776FDF368DB1B07D1D8F840
:1049400020001F4684E74FF0FF30BDE8F88F0027B6
:10495000A5E740F26D12C9E7280E01081F85EB514B
:1049600080510100CC0A002093244992681E8107DF
:1049700022D11849C21781FB00E3C2EB6312642302
:1049800003FB1203DBB905F26B7581FB0512E91716
:10499000C1EBE2114FF4C87202FB1152002A40F23F
:1049A0006D1318BF4FF4B673A3E7981CD8BF01234B
:1049B0007AE74FF4B77299E74FF4B67399E740F28C
:1049C0006D1396E7012F02D00027104640E7511AD9
:1049D000A9E700BF1F85EB510FB410B5074B82B09C
:1049E00004AC54F8042B186823468168019401F044
:1049F000CDFE02B0BDE8104004B07047580400205E
:104A00000EB40146F0B54FF6FF779CB021AC54F8D8
:104A1000042B0D4823466FF00045029106914FF498
:104A2000027602A900680194ADF81670ADF8146022
:104A30000495079500F096F8029B00221A701CB0AE
:104A4000BDE8F04003B070475804002080EA01023E
:104A5000844612F0030F4FD111F0030F32D14DF8FD
:104A6000044D11F0040F51F8043B0BD0A3F10132B7
:104A70009A4312F0803F04BF4CF8043B51F8043BCA
:104A800016D100BF51F8044BA3F101329A4312F042
:104A9000803FA4F101320BD14CF8043BA24312F049
:104AA000803F04BF51F8043B4CF8044BEAD0234646
:104AB0000CF8013B13F0FF0F4FEA3323F8D15DF8F8
:104AC000044B704711F0010F06D011F8012B0CF8C0
:104AD000012B002A08BF704711F0020FBFD031F838
:104AE000022B12F0FF0F16BF2CF8022B8CF80020BF
:104AF00012F47F4FB3D1704711F8012B0CF8012B42
:104B0000002AF9D1704700BF20F0030110F0030024
:104B1000C0F1000051F8043B00F1040C4FEACC0C4A
:104B20006FF000021CBF22FA0CF213434FF0010C8D
:104B30004CEA0C2C4CEA0C4CA3EB0C0222EA0302CC
:104B400012EACC1204BF51F8043B0430F4D0C2F195
:104B5000000102EA0102B2FA82F2C2F11F0200EB86
:104B6000D20070472DE9F04FC1B00C4609911546AF
:104B70000E930A9004F09EFF036818461793FFF700
:104B8000C3FFA38916901E0603D52369002B01F0ED
:104B90005D8100231A46A8460DF1C009DFF860A424
:104BA000129319930B9325932493CDF88C90149220
:104BB000159298F800304446EBB1252B02D11AE04B
:104BC000252B03D014F8013F002BF9D1C8EB0405C5
:104BD0008DB1249B259A01332A44072BC9F8008004
:104BE000C9F804502592249300F3328309F108098F
:104BF0000B9B2B440B932378002B00F0EA814FF0A2
:104C0000FF3B5D4600231A468DF86F3019460C9322
:104C10000793637804F1010808F10108A3F120006B
:104C2000582800F24586DFE810F0F30343064306F8
:104C3000FC03430643064306430643064306590066
:104C4000040443066600D0034306EC03BC05BC0520
:104C5000BC05BC05BC05BC05BC05BC05BC054306C4
:104C600043064306430643064306430643064306FC
:104C70004306E205F7044306F704430643064306EA
:104C800043064205430643064A05430643064306D8
:104C900043064306740543064306CD054306430613
:104CA00043064306430643064306430643064306BC
:104CB0001D060E06F704F704F70415060E06430654
:104CC0004306A3044306A805AE046D000A04430688
:104CD0001204430635044306430670040E9C236801
:104CE00018460C932346002803F104030E9306DABA
:104CF0000C9B5B420C93079B43F00403079398F8CB
:104D0000003089E7AB460E9A0027079830217823B8
:104D1000BB4514688DF8701002F104024FF00005D5
:104D20008DF871308DF86F7040F00201C0F23D8651
:104D300020F0800141F00201079154EA05010E9232
:104D40001193AD4800F0318130AE230943EA057379
:104D5000290904F00F020D461C46835C06F8013D4C
:104D600054EA0503F1D130AB9B1B0D930D9B5B45C2
:104D7000B8BF5B4608930023139317B1089B013318
:104D80000893079B13F002030F9302D0089B023392
:104D90000893079B13F08403109340F018810C9B39
:104DA000089A9D1A002D40F31281102D2599249AFE
:104DB000924F27DD189648461024B946099E2F4683
:104DC0000A9D04E0103F102F00F1080016DD0132AB
:104DD0008A4B1031072A2591249280E81800F1DDD2
:104DE00023AA3146284606F095F9002840F0F880BD
:104DF000103F102F30A82599249AE8DC3D464F46F5
:104E00008146189E01326C18072A25942492C9F80D
:104E10000070C9F8045000F3D0809DF86F7009F15C
:104E2000080977B1249B013401330DF16F01012290
:104E3000072B2594249389E8060000F3208209F1CA
:104E400008090F9B6BB1249B023401331CA9022279
:104E5000072B2594249389E8060000F31C8209F1AE
:104E60000809109B802B00F02C810D9BC3EB0B07D6
:104E7000002F33DD624A102F249B0F9222DD224641
:104E80004FF0100B0A9D099C04E0103F102F09F110
:104E9000080916DD01331032072B2592249389E887
:104EA000000CF2DD23AA2146284606F033F900283B
:104EB00040F09680103F102F0DF1C009259A249BD9
:104EC000E8DC144601330F9A3C44072B25942493C5
:104ED00089E8840000F3C78109F10809079BDA0516
:104EE00000F19080249B0D9901330C44072B2594ED
:104EF000C9F80060C9F80410249300F3E28109F1B5
:104F00000809079B590736D50C9B089A9D1A002D56
:104F100031DD102D249B394F22DD22461026DDF88D
:104F200028B0099C04E0103D102D09F1080916DD98
:104F3000013332491032072B2592249389E842002D
:104F4000F1DD23AA2146584606F0E4F8002847D1AF
:104F5000103D102D0DF1C009259A249BE8DC144664
:104F600001332C44072B25942493C9F80070C9F809
:104F7000045000F392840B9B0C9A08998A42ACBFB0
:104F80009B185B180B93002C40F05981002324934D
:104F90000DF1C0090DE60027BB458DF86F70C0F21A
:104FA0000E85079B23F080030793BBF1000F00F0F1
:104FB0006C84002400250027C6E623AA09990A98D4
:104FC00006F0A8F860B99DF86F700DF1C009259C36
:104FD00027E7259B23B10A9823AA099906F09AF896
:104FE000099B9B8913F0400F0B9B18BF4FF0FF33B9
:104FF000184641B0BDE8F08F1C0F0108E80E01080B
:105000003C0F0108119B652B40F39F801498159964
:10501000002200230BF0E6F9002800F06381249BB6
:10502000AE49013301340122072B2594249389E8EA
:10503000060000F3538409F108091D9B129A93425C
:1050400003DB079BDB077FF55CAF249B16990133DD
:10505000179A0C44072B2594C9F80020C9F80410AE
:10506000249300F3E68609F10809129B5D1E002DCA
:105070007FF747AF9A4A102D249B0F9240F3178178
:1050800010260A9FDDF824B005E009F10809103D5B
:10509000102D40F30C8101331034072B25942493F9
:1050A000C9F800A0C9F80460EFDD23AA59463846C4
:1050B00006F030F8002893D10DF1C009259C249BFF
:1050C000E5E70C9B089A9F1A002F7FF7CEAE844A23
:1050D000102F249B0F922BDD4A462146B9461025FE
:1050E00037460A9C099E06E0A9F11009B9F1100F94
:1050F00002F1080218DD01331031072B25912493AA
:10510000C2F800A05560EFDD23AA3146204606F024
:1051100001F800287FF464AFA9F11009B9F1100F6C
:1051200030AA2599249BE6DC3E460C464F46914624
:1051300001330F9A3C44072B2594249389E884007B
:1051400000F32B8509F108098FE6129B249D012BA2
:1051500004F1010405F1010540F3E8840123072D62
:105160002594C9F800602495C9F8043000F3F98447
:1051700009F10809169A0135179B1444072D259447
:105180002495C9F80030C9F8042000F3F88409F127
:10519000080900231498159900220BF023F9129B9B
:1051A000002800F0EA805E1E002E40F3F5804C4B94
:1051B000102E0F932CDDCDF834801027B046DDF88B
:1051C00028B0099E06E0A8F11008B8F1100F09F107
:1051D00008091ADD01351034072D25942495C9F8E6
:1051E00000A0C9F80470EEDD23AA3146584605F048
:1051F00091FF00287FF4F4AEA8F11008B8F1100F69
:105200000DF1C009259C249DE4DC4646DDF8348080
:1052100001350F9B3444072D2594249589E84800D7
:1052200040F3B88023AA09990A9805F073FF002873
:105230007FF4D6AE259C249D0DF1C009ACE023AAD5
:1052400009990A9805F066FF00283FF49FAEC7E66B
:1052500023AA09990A9805F05DFF00287FF4C0AEE3
:105260000DF1C009C4E423AA09990A9805F052FF78
:1052700000287FF4B5AE0DF1C009259C2EE623AAC7
:1052800009990A9805F046FF00287FF4A9AE0DF1B0
:10529000C009259CD5E523AA09990A9805F03AFF8B
:1052A00000287FF49DAE0DF1C009259CD9E501339E
:1052B0000F9A2C44072B2594249389E824007FF728
:1052C0001EAE23AA09990A9805F024FF00287FF44E
:1052D00087AE259C0DF1C00913E600BF380F010809
:1052E0003C0F01081D9D002D40F30E83139B129A65
:1052F0009342A8BF1346002B1D460DDD249B2C4472
:105300000133072B2594C9F80060C9F80450249391
:1053100000F3158609F10809139B002DA8BF5B1B3C
:10532000002B1D4640F3A083B94A102D249B0F92F9
:1053300040F3458522461027DDF828B0099C05E09A
:1053400009F10809103D102D40F338850133103262
:10535000072B25922493C9F800A0C9F80470EFDD4B
:1053600023AA2146584605F0D5FE00287FF438AE22
:105370000DF1C009259A249BE4E7013B0135013674
:105380001C44072DC9F8006024952594C9F8043001
:105390003FF748AF09F10809199A013514441FABCA
:1053A000072D25942495C9F80420C9F800307FF70B
:1053B000A6AD23AA09990A9805F0ACFE00287FF44F
:1053C0000FAE0DF1C009259C9BE598F8003008F15F
:1053D00001042A2B00F02B87A3F13000092898BF85
:1053E000002500F2AF8614F8013B05EB850500EBC4
:1053F0004505A3F130000928F5D945EAE575A04631
:105400000CE4079B43F08003079398F8003003E413
:1054100098F8003000297FF4FFAB01222021FFF72C
:10542000FBBB079B43F00103079398F80030FFF79D
:10543000F3BB98F8003001222B21FFF7EDBB079B4F
:1054400043F02003079398F80030FFF7E5BB0E9A6E
:10545000AB461668002511938DF86F50141D002E71
:1054600000F0E585BBF1000FC0F23F855A462946A2
:10547000304604F04BFE002800F05886AB46831BF4
:105480000D9323EAE3730E940893CDF84CB09DF886
:105490006F7072E41193AB46002A40F0ED86079AD4
:1054A00012F0200300F043810E9C0027073424F003
:1054B000070303F10801BB450E91D3E900458DF8C0
:1054C0006F70C0F2C18222F08003079354EA050393
:1054D00000F04881002D08BF0A2CC0F0488130AE92
:1054E000204629460A2200230BF05CF8303206F8E9
:1054F000012D2046294600230A220BF053F80446CA
:105500000D4654EA0503EBD12DE41193AB46002A76
:1055100040F0CA86079B3F489D0640F15D810E9C86
:10552000073424F0070303F108020E92D3E9004583
:10553000079A12F0010700F0468254EA05033FF48F
:105540002AAD9DF8442000278DF87120079A30235A
:10555000BB458DF870308DF86F7042F00203C0F2D9
:105560008D8522F0800343F002030793FFF7ECBB25
:1055700098F800306C2B00F05284079840F010002F
:105580000790FFF749BB1193AB46002A40F0948681
:10559000079A12F0200300F0A0800E9C0027073429
:1055A00024F0070303F10801BB450E91D3E9004540
:1055B0008DF86F700BDB22F08003079354EA05032C
:1055C00006D1BBF1000F00F0A285002400250027C2
:1055D00030AEE20842EA4572E90804F007030D46DE
:1055E0001446303354EA050206F8013DF1D1079A1A
:1055F000D1077FF5B8AB302B3FF4B5AB3022731E2B
:1056000006F8012C30AAD21A0D921E46FFF7AEBB47
:105610003C0F01081C0F01081193AB46002A40F013
:105620004786079B0E9C1A0704F1070440F16C8320
:1056300024F0070303F108020E921A685B681492C3
:105640001593159B149D23F00044284621464FF0E6
:10565000FF32A94B0AF0F8FE002840F0CD82284620
:1056600021464FF0FF32A44B0AF0D0FE002840F054
:10567000C38214981599002200230AF0BDFE002869
:1056800040F0F6849DF86F7007999C4E21F08001E0
:105690009B4B0791119903224FF0000B0892472969
:1056A000D8BF1E460D92CDF84CB0FFF766BB079BE6
:1056B00043F00803079398F80030FFF7ADBA119351
:1056C000AB46002A40F0EC85079B43F0100307939C
:1056D000079A12F020037FF460AF079911F01002CF
:1056E00000F068820E98BBF1000F024604688DF846
:1056F0006F3002F104024FF00005C0F2C28421F0C5
:105700008001079154EA05010E923FF45AAF1F46FB
:105710005EE71193AB46002A40F0BE85079B43F03D
:1057200010030793079A12F020037FF4BDAE079988
:1057300011F0100200F026830E98BBF1000F024614
:1057400004688DF86F3002F104024FF00005C0F2DA
:105750008C8421F08001079154EA05010E921F46C6
:105760007FF4B8AEBBF1000F00F09080002440AE93
:10577000303406F8414DFFF7F6BA002A40F088852C
:10578000079B9B0640F1CA820E9A134604330E9380
:105790000B9B1168DD171A462B46C1E90023FFF762
:1057A00008BAA3F1300000231C4618F8013B04EBB3
:1057B000840400EB4404A3F130000928F5D90C94CB
:1057C000FFF72CBA1193AB46002A40F05D85079B8A
:1057D0004C489D063FF5A3AE079BDC0640F1B58221
:1057E0000E9A00251346043314680E93A0E6119315
:1057F000AB46002A40F04485079B43F01003079313
:10580000079B980640F1F1800E9C073424F00704B2
:10581000D4E9002304F108011D4614460E91002A24
:1058200073F10003C0F2F280BBF1000F9DF86F70BE
:10583000C0F20A81079B23F08003079354EA050313
:105840007FF448AE8EE71193AB46002AD8D08DF88E
:105850006F10D5E7079B43F04003079398F800309B
:10586000FFF7DAB90E9911930A68002301201F4649
:105870008DF86F309B4613930B1D08908DF8982080
:105880000E930D9026AEFFF77CBA5F464FF0000BEB
:10589000CDF834B030AEFFF769BA23AA09990A9857
:1058A00005F038FC00287FF49BAB259CFFF763BB19
:1058B0001193002A40F0D384119A002A3FF489AB57
:1058C000002301211F4608918DF898208DF86F3034
:1058D0009B4613930D9126AEFFF753BA23AA09995D
:1058E0000A9805F017FC00287FF47AAB0DF1C00987
:1058F000259CFFF7A2BB00BFFFFFEF7FFC0E010856
:10590000F80E0108080F0108249BB849013301343F
:105910000122072B2594249389E8060000F3C28214
:1059200009F108092DB9129B1BB9079BDF077FF509
:10593000E8AA249B16990133179A0C44072B259447
:10594000C9F80020C9F80410249300F3FF8309F17B
:1059500008096D42002D40F3DB82A54A102D0F92FD
:1059600040F34B8322461027DDF828B0099C05E060
:1059700009F10809103D102D40F33E830133103228
:10598000072B25922493C9F800A0C9F80470EFDD15
:1059900023AA2146584605F0BDFB00287FF420AB22
:1059A0000DF1C009259A249BE4E7924807911193D1
:1059B00054EA05030E924FF000077FF4C5A90024B6
:1059C0000025FFF7C1B9BBF1000F8DF86F70C0F271
:1059D000038222F08003079354EA05037FF4B4A9FD
:1059E000BBF1000F7FF4E5AA4FE7079BD90640F112
:1059F000BA810E9A13461C680433E51722460E93AB
:105A00002B46002A73F10003BFF60EAF64424FF03D
:105A10002D0765EB4505BBF1000F8DF86F70FFF6A4
:105A200059AD079B23F08003079353E50E9ABBF112
:105A3000000F134614688DF86F7003F104034FF0E4
:105A4000000580F2E2810E9354EA05037FF442AD33
:105A50008DE623AA09990A9805F05CFB00287FF4DB
:105A6000BFAA259C0DF1C009139A1D9B324417460D
:105A7000129A934249DB079AD50746D412990E44ED
:105A8000F51BCB1A9D42A8BF1D46002D2E460DDDED
:105A9000249A2C440132072A2594C9F80070C9F8C9
:105AA0000450249200F3D28209F10809002EB4BFF9
:105AB0001D469D1B002D7FF724AA4D4A102D249BC7
:105AC0000F927FF7F4AB10260A9FDDF824B005E0B3
:105AD00009F10809103D102D7FF7E9AB01331034AF
:105AE000072B25942493C9F800A0C9F80460EFDDC2
:105AF00023AA5946384605F00DFB00287FF470AA0A
:105B00000DF1C009259C249BE4E7249A16980132E4
:105B100017990444072A2594C9F80010C9F804000D
:105B2000249200F3778209F10809A7E7079BD807B9
:105B30003FF514AB0123072D2594C9F80060249587
:105B4000C9F804307FF726AC23AA09990A9805F012
:105B5000E1FA00287FF444AA0DF1C009259C249D98
:105B60001AE423AA09990A9805F0D4FA00287FF4C8
:105B700037AA0DF1C009259C249DFFF7FBBA23AA83
:105B800009990A9805F0C6FA00287FF429AA0DF1B0
:105B9000C009259C249DFFF7FCBA23AA09990A98FD
:105BA00005F0B8FA00287FF41BAA0DF1C009259C66
:105BB000FFF75BB9079911F0400700F00F810E98CD
:105BC000BBF1000F034604888DF86F2003F1040336
:105BD0004FF00005C0F2738121F08001079154EA73
:105BE00005010E933FF4EDAC1746F1E4380F0108C0
:105BF0003C0F01081C0F0108149C22462046159CEE
:105C0000234621460AF020FC002840F0C182119B67
:105C1000BBF1FF3F23F020030D9300F04982472B97
:105C200000F05081079B43F480731093159B1F1E57
:105C3000149B0893B7BF3B46002303F100472D2375
:105C40000F93119B662B00F01F82462B00F00D81F5
:105C50000D9B21A8452B18BF5D461EA908BF0BF15F
:105C60000105049003911DA802213B460290089A69
:105C7000019500910A9802F09BFA119B0646672B4A
:105C800040F03482079BDA0740F16F82741908985C
:105C90003946002200230AF0A5FB002840F04D8180
:105CA000219B9C4206D930215A1C21921970219BBC
:105CB0009C42F9D89B1B12930D9B472B00F0368119
:105CC000119B652B40F32182119B662B1D9B139327
:105CD00000F0FE81139A12998A42C0F2EC81079B70
:105CE000D90700F1448222EAE2730D9267221192F1
:105CF0000F9A002A40F0EF800893109B9346079379
:105D00009DF86F70FFF739B824F0070423681493E7
:105D10006368159304F108030E9392E4079BDF0672
:105D20000BD4079B5E0608D50E9A136804320E92B8
:105D3000BDF82C201A80FEF73CBF0E9A136804327F
:105D40000E920B9A1A60FEF734BF0E9A079B00253D
:105D500013F0400F134603F104030CBF14681488BA
:105D60000E93FFF7E5BB079B0E9A13F0400F134607
:105D70003FF441AEB2F900400433E5170E932246DA
:105D80002B464CE5079911F040073FF44FAE0E98B3
:105D9000BBF1000F034604888DF86F2003F1040364
:105DA0004FF00005C0F2948021F08001079154EA81
:105DB00005010E9317467FF48DABD3E414460133EF
:105DC0000F9A2C44072B2594249389E824003FF74D
:105DD00040AE09F1080947E60E9AE9E50E9ABBF1D3
:105DE000000F134614688DF86F7003F104034FF031
:105DF000000564DB079A0E9322F08002079254EAB2
:105E000005027FF4E5ABFFF7DCBB079A0E9322F0A7
:105E10008002079254EA05027FF45CABA2E4079B80
:105E200008F1010843F02003079398F80030FEF7CB
:105E3000F3BE23AA09990A9805F06CF900287FF4AB
:105E4000CFA80DF1C009259CFFF70FB940210A9892
:105E500003F0B0FE099A10601061002800F0F5818F
:105E6000099A40235361FEF794BE21A81EA904900D
:105E700003911DA803210290089A3B46CDF804B077
:105E800000910A9802F094F95D460646119B741938
:105E9000462B7FF4FCAE3378302B00F097811D9DAC
:105EA0002C44F4E623AA09990A9805F033F900284E
:105EB0007FF496A80DF1C0091D9D259C32E50E9337
:105EC000FFF785BBBBF1000F08BF4FF0010BA9E640
:105ED0000E931746B8E50893109B2D2707938DF86E
:105EE0006F704FF0000BFEF749BF3046FEF70CFE17
:105EF000AB460346FFF7C4BA23AA09990A9805F0EE
:105F000009F900287FF46CA8259C249B0DF1C00999
:105F1000129901330C44072B25942493C9F800608F
:105F2000C9F804107EF7EBAFFFF7CBB91D9BDD1C62
:105F300012DB9B4510DB1393CCE62346BAE623AA7B
:105F400009990A9805F0E6F800287FF449A80DF1B0
:105F5000C009259CFFF7E0B9119A023A1192013B62
:105F60009DF84420002B1D93B8BF5B428DF87C2028
:105F7000B4BF2D222B22092B8DF87D2040F3008108
:105F80000DF18B000446B84A82FB0321DA17C2EBFD
:105F9000A10101EB8102A3EB4202303209290B4639
:105FA00004F8012DEFDC21463033DAB201F8012D7F
:105FB000884240F251810DF17E01234601E013F841
:105FC000012B984201F8012BF9D1431C1B1B0DF149
:105FD0007E0213441FAA9B1A129A1993012A134492
:105FE0000D9340F309810D9B169A134400220D93E3
:105FF000139223EAE3737BE6144601330F9A2C4491
:10600000072B2594249389E824003FF775AF09F105
:1060100008097DE723AA09990A9805F07BF800286A
:106020007EF4DEAF0DF1C0091D9B259C26E55B4685
:10603000062B28BF06230D9323EAE373B3463746A6
:1060400013960E940893894EFEF797BE23AA0999DA
:106050000A9805F05FF800287EF4C2AF1D9B129AE3
:10606000259CD31A0DF1C00920E50E921F46EBE4E2
:106070002D231F468DF86F30FFF706BB0793FEF701
:1060800063BE0E92FFF7A3BA21A81EA90490039144
:106090001DA803210290089A3B46CDF804B0009158
:1060A0000A9802F085F85D46064600EB0B04F2E61E
:1060B0004FF0060BB6E5169A129B1344139A0D93F4
:1060C000002A40F39180672223EAE37311920FE6DE
:1060D000002B40F39B80BBF1000F6ED1079AD407D1
:1060E0006BD41A4623EAE3730D9201E6119B472B0A
:1060F0007FF4CCAD079BDB073FF5C8AE219B9B1B14
:1061000012930D9B472B3FF411AF1D9B27E7079B75
:106110005F46DB0705D540AE302306F8413DFEF76C
:1061200022BECDF834B030AEFEF720BE2BEAEB73C2
:10613000CDF834B0089383460E9413909DF86F7099
:10614000FEF71BBEA0460025FEF768BD23AA0999ED
:106150000A9804F0DFFF00287EF442AF0DF1C00979
:106160001D9D259C249BFFF7F4BB219BA2E5169A5D
:10617000139B134467220D93119223EAE373B7E54F
:10618000303330228DF87F308DF87E2020AB21E730
:106190000799374E21F08001364B07911199032260
:1061A0004FF0000B08924729D8BF1E460D92CDF83C
:1061B0004CB09DF86F70FEF7E0BD139B169A9D18CA
:1061C00005EB0B030D9323EAE37391E50898394639
:1061D000002200230AF006F900287FF460AEC5F122
:1061E00001051D952C4452E5139B0D9AC3F1010343
:1061F0001A4413460D9266E7079B13F001037FF4E0
:10620000F2AE13930D9B23EAE37371E5BBF1000F2C
:1062100002D1079BD80707D5169B5D1C05EB0B0326
:106220000D9323EAE37363E501230D9360E50E9874
:1062300098F8013005680430002D0E90A046BEF697
:10624000EBAC4FF0FF35FEF7E7BC0A9A0C23136066
:106250004FF0FF30FEF7CDBE0DF17E03BAE68DF8AC
:106260006F10FFF729BB00BF67666666300F010835
:10627000040F0108000F01088DF86F10FFF70FB928
:106280008DF86F10FFF7B8BA8DF86F10FFF79FBA4F
:106290008DF86F10FFF774BA8DF86F10FFF73EBAE4
:1062A0008DF86F10FFF710BA8DF86F10FFF732B945
:1062B0008DF86F10FFF7B5B98DF86F10FFF768B95B
:1062C0002DE9F04F83B0804603F002FB40F2B1733A
:1062D000984540F39A805A4A40F26D1C82FB083E72
:1062E0004FEAE875C5EBEE164FF4C87303FB16864C
:1062F000B6FA86F704466FF4F66141448910C5EB9F
:106300006E15A8F2B27E0CFB0E1CA8F26D736FF432
:10631000C86E82FB03A908EB0E0182FB012E6422EA
:1063200002FB1585DA17A2EB6913C9176344C1EBA9
:10633000EE1103EB010C08F00303C0F804807F09A1
:10634000019300F1380E237A4A2B63D0442B72D08C
:10635000019B002B54D03B464FEA430AE1689A4424
:10636000384B012903EB0A1A634667DD01F18041CE
:1063700002394FEA81090AEB0908AAF1040252F82E
:10638000041F90450B44FAD109F104012E4A03F190
:10639000040B8BFB02894FEAEB720BEB0908C2EB93
:1063A000A802C2EBC2086269C8EB0B0BB2EB0B0B85
:1063B000226948BF0BF1070B013A5AF80110C2EBF2
:1063C000C2025A448A4202DB073A8A42FCDA134488
:1063D000226AA16900921D4A02FB0311009B194425
:1063E00044F81C1F7445AED1C369816B01228B42F6
:1063F000ACBF002301230360104603B0BDE8F08F5B
:10640000002D0CBF3B460123A6E70022104603B037
:10641000BDE8F08F636901990CEB030239B935B11E
:106420003B2BD4BF002301231344013BD0E7002EB4
:10643000F6D00023F8E763696344C9E70021A5E7C4
:106440001F85EB51880E0108932449928051010069
:10645000704700BF704700BF014B186800F002B8DA
:10646000580400202DE9F0478AB0064603F030FAC0
:10647000BA490746304603F023FAB94D04460028CE
:1064800000F0F580296831B104F072FC10B90AB04F
:10649000BDE8F0872968084603F084FB2046FEF734
:1064A00033FB411C304603F085FB286010B12146C8
:1064B000FEF7CCFA237808AD3A2B08BF01342B46FF
:1064C000A84AA949204604F0E1FB0028DFDD089B2B
:1064D000E25C1C442D2A00F0C6802B2A08BF013440
:1064E0004FF0010806AB02930DF11603002600934E
:1064F0000395019505AA2B469C492046ADF81660E8
:10650000ADF8186004F0C2FBB042C0DDBDF8163033
:10651000BDF81810BDF81420C3EB031301EB83037F
:106520004FF4616101FB023308FB03F3089ADFF8C3
:1065300058921444DFF82CE2DFF83C823B6220469C
:106540004A462B468849C8F800E004F09FFBB04259
:106550007FDD089BC8F80490E25C1C442D2A00F003
:1065600093802B2A08BF01344FF0010806AB029339
:106570000DF1160300260093039501952B4605AAFD
:106580007A492046ADF81460ADF81660ADF8186091
:10659000089604F07BFBB0427ADDBDF81630BDF8FA
:1065A0001810C3EB0313BDF8142001EB83034FF461
:1065B000616101FB023308FB03F3FB63B846089BF0
:1065C0004FF000091C4426782C2E04BF6678013455
:1065D0004D2E62D04A2E08BF01344FF00A0209A99D
:1065E00020460CBFB2464FF0440A04F087FD099ED6
:1065F000ADF81E00B44200F09A8080B2C8F81400D2
:1066000088F808A000240223ADF81430ADF8164035
:10661000ADF81840089433782F2B6BD04FF4E1532A
:1066200009F10109B9F1020FC8F81830344408F132
:106630001C08C8D17868FFF743FE3A6AFB6B4C48E8
:106640009B1A4C4918BF012303600A600AB0BDE8D9
:10665000F087386A4749D8F80020454B0860C8F8E9
:1066600004201E6013E701344FF0FF383AE7424B35
:10667000424A3F493F4E286834600C601A605A60B5
:1066800003F090FA2C6002E701344FF0FF386DE719
:106690003B6AA3F56163FB6390E70DF11E0207AB54
:1066A00002920093039501952B460DF11A0234498D
:1066B000204604F0EBFA03287FF4E9AEBDF81A3067
:1066C0005A1E0B2A3FF6E3AEBDF81C20511E0429CA
:1066D0003FF6DDAEBDF81E1006293FF6D8AE88F8AD
:1066E0000860C8F80C30C8F81020C8F81410089ECC
:1066F000264487E706AB02930DF11603009305AA23
:106700002B46204903950195304604F0BFFABDF8A9
:106710001620BDF81810C2EB0213BDF8142001EBCF
:1067200083034FF4616101FB0233089C78E7B9F100
:10673000000F09D04D220B2387F82420BB620122D1
:106740000023FA623B635DE74D2303223B72022381
:10675000C7F81490FA603B6154E700BF4C0F010882
:10676000C80A0020BC0A0020540F0108640F010869
:10677000CC0A0020D00A00205C040020500F010841
:10678000780F01088C0F0108B00A00202DE9F04FA6
:10679000C1B01C460891164605460A9003F08AF9D6
:1067A00003680E9418461793FEF7AEF916901DB1C4
:1067B000AB6B002B00F0BD830898B0F90C2093B2AE
:1067C000990407D4416E42F4005321F400518381AF
:1067D00041669BB21A0740F1E482089A1269002AC6
:1067E00000F0DF8203F01A030A2B00F0E882002396
:1067F0001A46B0460DF1C00ADFF85C941293199363
:106800000B9325932493CDF88CA01492159298F8AD
:1068100000304446EBB1252B02D11AE0252B03D0E2
:1068200014F8013F002BF9D1C8EB04058DB1249B6E
:10683000259A01332A44072BCAF80080CAF804506D
:106840002592249300F330830AF1080A0B9B2B4412
:106850000B932378002B00F0EA814FF0FF3B5D465D
:1068600000231A468DF86F3019460C93079363780E
:1068700004F1010808F10108A3F12000582800F2F2
:106880004086DFE810F0DC053E063E06E5053E06E4
:106890003E063E063E063E063E065900AA053E0658
:1068A0006600AA033E06C603CD03CD03CD03CD0388
:1068B000CD03CD03CD03CD03CD033E063E063E06FC
:1068C0003E063E063E063E063E063E063E06DD030C
:1068D00057053E0657053E063E063E063E06A20505
:1068E0003E063E06BC043E063E063E063E063E060C
:1068F000E4043E063E0611053E063E063E063E0602
:106900003E063E063E063E063E063E0644058D0415
:1069100057055705570595048D043E063E069D0410
:106920003E06A8044A046D00B0053E06B8053E06C2
:1069300021043E063E06ED050E9C236818460C9386
:106940002346002803F104030E9306DA0C9B5B42F6
:106950000C93079B43F00403079398F8003089E7F2
:10696000AB460E9A0027079830217823BB45146860
:106970008DF8701002F104024FF000058DF87130AF
:106980008DF86F7040F00201C0F2D18520F08001D7
:1069900041F00201079154EA05010E921193AC48AF
:1069A00000F0318130AE230943EA0573290904F070
:1069B0000F020D461C46835C06F8013D54EA0503B0
:1069C000F1D130AB9B1B0D930D9B5B45B8BF5B4674
:1069D00009930023139317B1099B01330993079B74
:1069E00013F002030F9302D0099B02330993079B14
:1069F00013F08403109340F018810C9B099A9D1AA0
:106A0000002D40F31281102D2599249A914F27DDF6
:106A1000189650461024BA46089E2F460A9D04E058
:106A2000103F102F00F1080016DD0132894B1031A4
:106A3000072A2591249280E81800F1DD23AA314627
:106A4000284605F04DFA002840F0F880103F102F3E
:106A500030A82599249AE8DC3D4657468246189E80
:106A600001326C18072A25942492CAF80070CAF8DB
:106A7000045000F3D0809DF86F700AF1080A77B1D6
:106A8000249B013401330DF16F010122072B259462
:106A900024938AE8060000F31E820AF1080A0F9B7D
:106AA0006BB1249B023401331CA90222072B2594CD
:106AB00024938AE8060000F31A820AF1080A109B60
:106AC000802B00F02A810D9BC3EB0B07002F33DDD9
:106AD000614A102F249B0F9222DD22464FF0100BAB
:106AE0000A9D089C04E0103F102F0AF1080A16DDE9
:106AF00001331032072B259224938AE8000AF2DD35
:106B000023AA2146284605F0EBF9002840F096809C
:106B1000103F102F0DF1C00A259A249BE8DC144683
:106B200001330F9A3C44072B259424938AE8840070
:106B300000F3C5810AF1080A079BDD0500F18E808C
:106B4000249B0D9901330C44072B2594CAF800604F
:106B5000CAF80410249300F3E0810AF1080A079BA5
:106B6000580736D50C9B099A9D1A002D31DD102D42
:106B7000249B384F22DD22461026DDF828B0089CE1
:106B800004E0103D102D0AF1080A16DD01333149E9
:106B90001032072B259224938AE84200F1DD23AAC4
:106BA0002146584605F09CF9002847D1103D102D8C
:106BB0000DF1C00A259A249BE8DC144601332C44CD
:106BC000072B25942493CAF80070CAF8045000F3E8
:106BD0008D840B9B0C9A09998A42ACBF9B185B1859
:106BE0000B93002C40F05781002324930DF1C00A31
:106BF0000DE60027BB458DF86F70C0F2A284079B9D
:106C000023F080030793BBF1000F00F0678400249A
:106C100000250027C6E623AA08990A9805F060F91E
:106C200060B99DF86F700DF1C00A259C27E7259B80
:106C300023B10A9823AA089905F052F9089B9B8969
:106C4000590600F10E870B9841B0BDE8F08F00BFE8
:106C50001C0F0108A00F0108B00F0108119B652B44
:106C600040F3BB80149815990022002309F0BAFB69
:106C7000002800F06781249BB049013301340122D0
:106C8000072B259424938AE8060000F38B860AF1EB
:106C9000080A1D9B129A934203DB079BD8077FF5D6
:106CA0005EAF249B16990133179A0C44072B259449
:106CB000CAF80020CAF80410249300F32B870AF1C5
:106CC000080A129B5D1E002D7FF749AF9C4A102DCC
:106CD000249B0F9240F3178110260A9FDDF820B005
:106CE00005E00AF1080A103D102D40F30C81013334
:106CF0001034072B25942493CAF80090CAF8046036
:106D0000EFDD23AA5946384605F0EAF8002895D168
:106D10000DF1C00A259C249BE5E70C9B099A9F1A5C
:106D2000002F7FF7D0AE864A102F249B0F922BDDC9
:106D300052462146BA46102537460A9C089E06E070
:106D4000AAF1100ABAF1100F02F1080218DD01339E
:106D50001031072B25912493C2F800905560EFDD88
:106D600023AA3146204605F0BBF800287FF466AF21
:106D7000AAF1100ABAF1100F30AA2599249BE6DC7B
:106D80003E460C465746924601330F9A3C44072B29
:106D9000259424938AE8840000F3D6840AF1080A33
:106DA00091E608990A9801F0EBF8002840F059861E
:106DB000089B9B8903F01A030A2B7FF418AD0899EE
:106DC000B1F90E30002BFFF612AD234632460A9879
:106DD00001F0A0F841B0BDE8F08F129B249D012B7B
:106DE00004F1010405F1010540F35D840123072D41
:106DF0002594CAF800602495CAF8043000F36E8424
:106E00000AF1080A169A0135179B1444072D259498
:106E10002495CAF80030CAF8042000F36D840AF102
:106E2000080A002314981599002209F0DBFA129B36
:106E3000002800F02A835E1E002E40F33583404B6D
:106E4000102E0F9340F36984CDF834801027B0469C
:106E5000DDF828B0089E07E00AF1080AA8F110083A
:106E6000B8F1100F40F3568401351034072D2594E6
:106E70002495CAF80090CAF80470EDDD23AA3146C3
:106E8000584605F02DF800287FF4D8AE0DF1C00A61
:106E9000259C249DE2E723AA08990A9805F020F88A
:106EA00000283FF4A1AEC9E623AA08990A9805F084
:106EB00017F800287FF4C2AE0DF1C00AC6E423AA79
:106EC00008990A9805F00CF800287FF4B7AE0DF188
:106ED000C00A259C30E623AA08990A9805F000F814
:106EE00000287FF4ABAE0DF1C00A259CD7E523AA9C
:106EF00008990A9804F0F4FF00287FF49FAE0DF182
:106F0000C00A259CDBE501330F9A2C44072B2594FE
:106F100024938AE824007FF720AE23AA08990A98D0
:106F200004F0DEFF00287FF489AE259C0DF1C00A35
:106F300015E60A9802F09AF93EE400BF380F0108FE
:106F4000B00F01081D9D002D40F33B85139B129A45
:106F50009342A8BF1346002B1D460DDD249B2C44F5
:106F60000133072B2594CAF80060CAF80450249313
:106F700000F30E860AF1080A139B002DA8BF5B1BC5
:106F8000002B1D4640F32D83C64A102D249B0F92E3
:106F900040F3FB8422461027DDF828B0089C05E06A
:106FA0000AF1080A103D102D40F3EE84013310322F
:106FB000072B25922493CAF80090CAF80470EFDDDD
:106FC00023AA2146584604F08BFF00287FF436AEF2
:106FD0000DF1C00A259A249BE4E798F8003008F1E7
:106FE00001042A2B00F04587A3F13000092898BF3F
:106FF000002500F2D78614F8013B05EB850500EB70
:107000004505A3F130000928F5D945EAE575A04604
:1070100032E4079B43F08003079398F8003029E49B
:10702000A3F1300000231C4618F8013B04EB840454
:1070300000EB4404A3F130000928F5D90C941BE4BB
:107040001193AB46002A40F03B87079B43F01003A7
:107050000793079B9F0640F18A820E9C073424F019
:107060000704D4E9002304F108011D4614460E91DB
:10707000002A73F10003C0F27483BBF1000F9DF886
:107080006F70C0F29482079B23F08003079354EA49
:10709000050338D0002D08BF0A2C39D330AE204666
:1070A00029460A22002309F07DFA303206F8012D24
:1070B0002046294600230A2209F074FA04460D46A8
:1070C00054EA0503EBD17CE41193AB46002A40F06F
:1070D000F386079A12F0200300F0C7800E9C002769
:1070E000073424F0070303F10801BB450E91D3E9EF
:1070F00000458DF86F70C0F25A8222F0800307932A
:1071000054EA0503C6D1BBF1000F00F0E88100246A
:1071100040AE303406F8414D53E41193AB46002A9B
:1071200040F0C686079A12F0200375D00E9C002707
:10713000073424F0070303F10801BB450E91D3E99E
:1071400000458DF86F700BDB22F08003079354EA43
:10715000050306D1BBF1000F00F0048600240025D2
:10716000002730AEE20842EA4572E90804F007035E
:107170000D461446303354EA050206F8013DF1D1BC
:10718000079AD2077FF51DAC302B3FF41AAC3022A2
:10719000731E06F8012C30AAD21A0D921E4613E473
:1071A0001193AB46002A3FF454AF8DF86F1050E7AF
:1071B000079B43F04003079398F80030FFF75ABB52
:1071C00098F800306C2B00F09B84079840F010007A
:1071D0000790FFF74FBB002A40F08686079B9F066B
:1071E00040F10E830E9A134604330E930B9B1168E5
:1071F000DD171A462B46C1E90023FFF708BB1193A0
:10720000AB46002A40F06486079B43F010030793C7
:10721000079A12F0200389D1079911F0100200F0AB
:10722000B0820E98BBF1000F024604688DF86F30F3
:1072300002F104024FF00005C0F2478521F0800101
:10724000079154EA05010E9284D01F4689E71193F5
:10725000AB46002A40F03886079B43F010030793A3
:10726000079A12F020037FF439AF079911F010024A
:1072700000F08A810E98BBF1000F024604688DF879
:107280006F3002F104024FF00005C0F2218521F0B9
:107290008001079154EA05010E921F467FF4FAAE71
:1072A00031E700BFB00F01081193AB46002A40F050
:1072B0001786079BC0489C0640F1DC800E9C073473
:1072C00024F0070303F108020E92D3E90045079A60
:1072D00012F0010700F0398154EA05033FF489AC4C
:1072E0009DF8442000278DF87120079A3023BB4574
:1072F0008DF870308DF86F7042F00203C0F2058592
:1073000022F0800343F002030793FFF74BBB0E9973
:1073100011930A68002301201F468DF86F309B46A9
:1073200013930B1D09908DF898200E930D9026AEA7
:10733000FFF755BB1193AB46002A40F0CD85079B64
:107340000E9C1D0704F1070440F1148324F0070389
:1073500003F108020E921A685B6814921593159B4C
:10736000149D23F00044284621464FF0FF32934BF2
:1073700009F06AF8002840F07582284621464FF04F
:10738000FF328E4B09F042F8002840F06B821498CF
:1073900015990022002309F02FF8002840F0AF844F
:1073A0009DF86F700799864E21F08001854B0791FB
:1073B000119903224FF0000B09924729D8BF1E46AE
:1073C0000D92CDF84CB0FFF706BB079B43F00803C6
:1073D000079398F80030FFF74DBA98F80030012273
:1073E0002B21FFF747BA079B43F02003079398F838
:1073F0000030FFF73FBA0E9AAB461668002511938E
:107400008DF86F50141D002E00F05084BBF1000F5A
:10741000C0F28D835A462946304602F077FE002896
:1074200000F09484AB46831B0D9323EAE3730E9420
:107430000993CDF84CB09DF86F70FFF7CCBA98F86F
:10744000003000297FF416AA01222021FFF712BA8A
:10745000079B43F00103079398F80030FFF70ABA3F
:107460001193AB46002A40F04685079B56489C0680
:107470003FF524AF079BD90640F1B5810E9A002550
:107480001346043314680E9321E7013B013501369E
:107490001C44072DCAF8006024952594CAF80430CE
:1074A00000F345810AF1080A199A013514441FAB0B
:1074B000072D25942495CAF80420CAF800307FF7D8
:1074C0004CAB23AA08990A9804F00AFD00287FF41F
:1074D000B5AB0DF1C00A259CFFF741BB5F464FF0ED
:1074E000000BCDF834B030AEFFF76EBA23AA08997E
:1074F0000A9804F0F5FC00287FF4A0AB259CFFF768
:1075000068BB1193002A40F0FA84119A002A3FF4D4
:107510008EAB002301211F4609918DF898208DF82C
:107520006F309B4613930D9126AEFFF758BA26484D
:107530000791119354EA05030E924FF000077FF470
:1075400031AA00240025FFF72DBABBF1000F8DF8FA
:107550006F70C0F2348222F08003079354EA05036F
:107560007FF420AABBF1000F7FF451ABB6E7079B75
:10757000DE0640F15C810E9A13461C680433E51761
:107580000E9322462B4673E5079911F0400740F011
:107590006C820E9ABBF1000F134614688DF86F7061
:1075A00003F104034FF0000580F250810E9354EA7A
:1075B00005037FF46FADABE5080F0108FFFFEF7F18
:1075C000FC0E0108F80E01081C0F010823AA0899F7
:1075D0000A9804F085FC00287FF430AB259C0DF15F
:1075E000C00A139A1D9B32441746129A934249DBF4
:1075F000079AD20746D412990E44F51BCB1A9D4226
:10760000A8BF1D46002D2E460DDD249A2C440132C4
:10761000072A2594CAF80070CAF80450249200F38F
:1076200030830AF1080A002EB4BF1D469D1B002DB1
:107630007FF795AA8A4A102D249B0F927FF763AC9F
:1076400010260A9FDDF820B005E00AF1080A103D77
:10765000102D7FF758AC01331034072B2594249359
:10766000CAF80090CAF80460EFDD23AA59463846EC
:1076700004F036FC00287FF4E1AA0DF1C00A259C35
:10768000249BE4E7249A1698013217990444072AA8
:107690002594CAF80010CAF80400249200F38782E7
:1076A0000AF1080AA7E7079BDF073FF59FAB012315
:1076B000072D2594CAF800602495CAF804307FF796
:1076C000F1AE23AA08990A9804F00AFC00287FF476
:1076D000B5AA0DF1C00A259C249DE5E623AA0899C8
:1076E0000A9804F0FDFB00287FF4A8AA0DF1C00A57
:1076F000259C249DFFF786BB23AA08990A9804F0CD
:10770000EFFB00287FF49AAA0DF1C00A259C249D66
:10771000FFF787BB4646DDF8348001350F9B3444C4
:10772000072D259424958AE848007FF7BBAE23AA4D
:1077300008990A9804F0D4FB00287FF47FAA259CBE
:10774000249D0DF1C00AAFE623AA08990A9804F017
:10775000C7FB00287FF472AA0DF1C00A259CFFF731
:10776000B2B964424FF02D0765EB4505BBF1000F40
:107770008DF86F70FFF68EAC079B23F080030793A4
:1077800088E4079911F0400716D00E98BBF1000F5E
:10779000034604888DF86F2003F104034FF00005C1
:1077A000C0F2A58121F08001079154EA05010E93F2
:1077B0003FF4D0AC1746D4E40E9ABBF1000F134649
:1077C00014688DF86F7003F104034FF00005C0F2E8
:1077D0008E81079A0E9322F08002079254EA0502E6
:1077E0007FF4BFACB6E40E9A079B002513F0400F60
:1077F000134603F104030CBF146814880E9366E566
:10780000079BDE060BD4079B5D0608D50E9A13680E
:1078100004320E92BDF82C201A80FEF7F8BF0E9AA3
:10782000136804320E920B9A1A60FEF7F0BF079BA2
:107830000E9A13F0400F13463FF49FAEB2F900408A
:107840000433E5170E9322462B4611E4079A0E9354
:1078500022F08002079254EA05027FF41BAC52E446
:10786000B00F0108149C22462046159C2346214651
:1078700008F0EAFD002840F0BE82119BBBF1FF3FFB
:1078800023F020030D9300F04382472B00F0328158
:10789000079B43F480731093159B1F1E149B099341
:1078A000B7BF3B46002303F100472D230F93119BE5
:1078B000662B00F01082462B00F0FC800D9B21A867
:1078C000452B18BF5D461EA908BF0BF101050490AA
:1078D00003911DA802213B460290099A019500914F
:1078E0000A9800F065FC119B0646672B40F0498220
:1078F000079BDA0740F17182741909983946002212
:10790000002308F06FFD002840F04F81219B9C422E
:1079100006D930215A1C21921970219B9C42F9D81A
:107920009B1B12930D9B472B00F02B81119B652B0A
:1079300040F33682119B662B1D9B139300F0F88158
:10794000139A12998A42C0F2E681079BDB0700F185
:107950003B8222EAE2730D92672211920F9A002A6B
:1079600040F005810993109B934607939DF86F7033
:10797000FFF731B824F00704236814936368159364
:1079800004F108030E93EAE4144601330F9A2C44E1
:10799000072B259424938AE824003FF717AE0AF1B9
:1079A000080A1EE623AA08990A9804F099FA002802
:1079B0007FF444A90DF1C00A259CFFF76AB90E9A1D
:1079C000B8E5249BB649013301340122072B2594E5
:1079D00024938AE8060060DC0AF1080A2DB9129B9C
:1079E0001BB9079BD9077FF5BAA8249B16990133C9
:1079F000179A0C44072B2594CAF80020CAF80410E3
:107A0000249300F3D3810AF1080A6D42002D40F35C
:107A1000A080A44A102D0F9240F3D7802246102751
:107A2000DDF828B0089C05E00AF1080A103D102D89
:107A300040F3CA8001331032072B25922493CAF8F1
:107A40000090CAF80470EFDD23AA2146584604F0DE
:107A500047FA00287FF4F2A80DF1C00A259A249B6A
:107A6000E4E74FF0FF30FFF7EFB80E98BBF1000FDF
:107A7000034604888DF86F2003F104034FF00005DE
:107A8000C0F2AD8121F08001079154EA05010E9307
:107A900017467FF4FFAAFFF736BB23AA08990A9876
:107AA00004F01EFA00287FF4C9A80DF1C00A1D9D3C
:107AB000259C93E721A81EA9049003911DA80321EA
:107AC0000290099A3B46CDF804B000910A9800F064
:107AD0006FFB5D460646119B7419462B7FF40DAF74
