:020000040800F2
:10200000005000202DCD000829CD000827CD000864
:1020100027CD000827CD000827CD000800000000CC
:1020200000000000000000000000000029CD0008B2
:1020300029CD00080000000029CD00085138000813
:1020400027CD000827CD000827CD000827CD0008A0
:1020500027CD000827CD000827CD000827CD000890
:1020600027CD000827CD000827CD000827CD000880
:1020700027CD000827CD000827CD000827CD000870
:1020800027CD000827CD000827CD000827CD000860
:102090005137000827CD000827CD000827CD0008BC
:1020A00027CD000827CD000827CD000827CD000840
:1020B00069380008DD38000827CD000827CD000862
:1020C00027CD000827CD000827CD000827CD000820
:1020D00027CD000827CD000827CD000827CD000810
:1020E00027CD000827CD00085D37000827CD000860
:1020F00027CD000827CD000827CD000827CD0008F0
:1021000027CD000827CD000827CD000827CD0008DF
:1021100027CD000827CD000827CD000827CD0008CF
:1021200027CD000827CD000827CD000827CD0008BF
:1021300027CD000827CD000827CD000827CD0008AF
:1021400027CD000827CD000827CD000827CD00089F
:102150002DE9F003DDE908890B4C0C4D0C4E0D4FB9
:10216000C4E90023DDE90623C5E90023DDE90A23EC
:10217000C6E90023084A094BC7E90089BDE8F00316
:1021800010601960704700BFA80B0020B00B002042
:10219000C00B0020A00B0020D80B0020E00B00207B
:1021A0002DE9F041DFF84C810446D8F80070D8F8EA
:1021B0000460384600224A4B26F000410BF034FD03
:1021C000002851D120460BF04BFA04460D4622461A
:1021D00038462B4631460BF0FFFC002842D1224600
:1021E00038462B4631460BF001FD00284DD03D4BC3
:1021F0003846D3E9002331460BF0D4F822462B466B
:1022000007460E460BF006FD002854D022462B460A
:10221000C8E9002330A3D3E900233349DFF8D8808D
:10222000D1E900010BF070FA224625F000430BF0D3
:1022300095FB08F061F80BF03FFD0022C8F80000A4
:102240000023204629460BF0D1FC00283DD1204632
:102250002946002200230BF0E7FC003018BF0120C4
:10226000224B1860BDE8F081384631460022002339
:102270000BF0BCFC044628BB384631460022002344
:102280000BF0D2FC20B3164DA1E7164B3846D3E92C
:10229000002331460BF084F822462B4607460E46B3
:1022A0000BF0AEFC0028B1D13A4633463C463546E9
:1022B000C8E90023AEE73A4633463C46C8E9002366
:1022C0003546A7E700240A4D81E74FF0FF30C7E706
:1022D000044605467BE700BF00000000006AF840A6
:1022E0000040BF40A00B0020A80B0020C80B00201E
:1022F0000040BFC0F80B0020B80B00200000000019
:102300002DE9F8430BF0ACF9DFF840810446D8F82A
:102310000070D8F804603A4633460D460BF05CFC7A
:1023200000285CD1814626F0004138460022424B0D
:102330000BF07AFC88B138463146002200230BF0BE
:1023400055FC044600286FD1384631460022002350
:102350000BF06AFC002861D0374D224638462B46E8
:1023600031460BF043FC00283BD0344B3846D3E9D0
:10237000002331460BF016F822462B4607460E4640
:102380000BF052FC002842D022462B46C8E900231D
:1023900027A3D3E900232A49DFF8B480D1E900015B
:1023A0000BF0B2F9224625F000430BF0D7FA07F004
:1023B000A3FF0BF081FC0022C8F800000023204698
:1023C00029460BF013FC60BB20462946002200235F
:1023D0000BF02AFC003018BF01201A4B1860BDE832
:1023E000F883164B3846D3E9002331460AF0D8FF6C
:1023F00022462B4607460E460BF0F8FB0028C3D1B9
:102400003A4633463C463546C8E90023C0E73A46DB
:1024100033463C46C8E900233546B9E7044605463D
:102420009BE74FF0FF30D8E74C46074D95E700BFDC
:1024300000000000006AF8400040BF40C00B0020D0
:10244000B00B0020F00B00200040BFC0E80B0020C4
:10245000DC0B0020014B01221A6070472C0C00207D
:10246000AB4A00232DE9F04FA5A5D5E9004513603F
:10247000A84A00EB010B1360A74A58451360A74B0D
:1024800089B0C3E9004500F08282DFF8F492D9F800
:102490000060002E00F0BD80CDF818B08346A04A41
:1024A000A04B975D9B5DA04AD418A04B985DB7B137
:1024B0007B1EE31811D29BF800E0214602E0531E78
:1024C0008B420AD35A1A52108D5C0A447545F6D8CD
:1024D00080F04182511C8B42F4D23C443844944BEE
:1024E0009F5DE7B104EB4702023A944200F2318269
:1024F0009BF80060214603E09A1E914200F2298277
:10250000531A5B1023F00103CD5C0B44B542F3D8A2
:102510005D78991CB542F0D31B1B00EB6300854B23
:102520001E5C854BC9F800601B5C002B52D0834AAF
:102530005C1CD55C14442544CDF81C90AC4245D0BD
:1025400014F8013B1B2BF9D801A252F823F000BF6D
:1025500017290008FD280008992800087B28000892
:10256000672800085928000845280008372800086F
:10257000252800081128000801280008F327000872
:10258000E9270008E1270008D9270008C12500082D
:10259000C1250008ED2600081926000819260008A4
:1025A00025260008C12500083F2900083D25000810
:1025B000312900083726000889270008C9270008A4
:1025C0005F4A604B1288AC421A80B9D1DDF81C908A
:1025D000D9F80060EEB1069B0BF1010B5B457FF46F
:1025E0005EAF594B554C9A5D4B4EA55C531C1C4439
:1025F0002544AC420DD014F8013B172BF9D1464BC2
:1026000050481B68002BF4D101F046FEAC4230600C
:10261000F1D109B0BDE8F08F01224C49494801F0E1
:1026200015FE8BE74A4B474E07CB1B783060337360
:102630007160B26082E7474B364ADFF84881116823
:102640001A68454B1160324A444910681A683C4B7D
:1026500010601A883B4B086830491A80D1E900673E
:102660000AF0ECFF32463B460BF078F981463C4BD2
:102670004A4618680B46C8E900238A460AF0DEFF7E
:1026800032463B460BF06AF9364E374B3268C8E9A2
:102690000201C3E9009AC3E90201002A3FF44EAFE8
:1026A000404600F055FE18A3D3E90023D8E90601FF
:1026B0000BF02AF82D4B2E4FD3E900230BF04EF9E7
:1026C0000BF0D2FA10A3D3E900233860D8E9040153
:1026D0000BF01AF8274B284FD3E900230BF03EF9F3
:1026E0000BF0C2FA00233860336027E70A23042284
:1026F0002249144801F0AAFD20E700BFAFF3008093
:1027000009C7C96D305FC440A8AB3173C62D0941FC
:102710000C00002008000020C00C0020B80C002095
:10272000F4E2000830E4000840E20008ECE30008AE
:102730006CE10008B8E0000838E30008B0E10008E8
:10274000CCE40008040C0020FCE10008A8E4000828
:10275000ACE40008C80C0020300C00200000002071
:10276000180000205C0A0020900C0020A80B00201C
:10277000D80B0020B00B0020E00B0020C8E40008BC
:102780002C0C0020680C0020874F884E884889490F
:10279000894B97F800E01B783778884A06780878E4
:1027A0008749127809780393864BCDF814E0049793
:1027B0001B780190009102968349844801F046FD00
:1027C000834A09231360B9E6824B824A1B68B3FA35
:1027D00083F35B091360B1E67F4B01221A70ADE60B
:1027E0007E4B01221A60A9E67D4B9BF800201A60FF
:1027F000A4E67C4A9BF8001013680B4413609DE626
:10280000784A9BF80010136803EB0123136095E6E8
:10281000754B7649012260A7D7E90067C1E90067D7
:102820001A608BE6724B9BF8002018886749714B41
:1028300008801A7082E66F4B6F491A78634801F07E
:1028400005FD7BE66D4B6E496E4A19606E496F4B14
:10285000116001221A6071E6684A6D49694B116086
:102860006C4A1A606AE6654B6549664A19606649B2
:10287000664B116000221A6060E65B4E3368002BE5
:102880006CD0634B634A1B68126863494F4801F080
:10289000DDFC0023336051E6604E544BD3E90089E0
:1028A000D6E90023404649460AF02EFF0BF0DCF93A
:1028B00006F10807D7E900678246DFF844E13046B1
:1028C000394600220023CEF800A00BF0A3F900281F
:1028D00053D032463B46404649460AF015FF0BF0BE
:1028E000C3F9414E484A034610603268002A3ED080
:1028F00052464B49354801F0A9FCCAE7494A9BF8C2
:1029000000301268392B03EB0213464A8CBF373B69
:10291000303B136012E6444A9BF800301268392BB2
:1029200003EB0213404A8CBF373B303B136005E694
:102930009BF800203049254801F088FCFEE5002383
:102940001A463A49214801F081FC214A03231360C9
:10295000F4E53844E3E5121B1044E0E52C4B2D4A26
:102960001B6812683249194801F070FC91E7524621
:102970002F49164801F06AFC8BE709A3D3E900232D
:10298000304639460AF00EFD42464B46A5E7294B34
:102990001E6826E6AFF3008009C7C96D305F444169
:1029A000EA2E4454FB21194014000020E0080020C6
:1029B00013000020F8080020200000201000002054
:1029C0001200002011000020BCE40008040C0020CC
:1029D000C00C0020580A0020CC0C0020EC0800207D
:1029E0001C000020F4080020F0080020B80C002093
:1029F000CCE4000804000020A8E40008C80C002073
:102A000000000020300C0020180000205C0A00208C
:102A1000E8080020E408002098E40008380C0020B2
:102A200074E400080C00002008000020C8E400083E
:102A300088E400082C0C0020F8B514461D46DDE99A
:102A40000623104F104EC7E90045002737700F4F7F
:102A50000F4EC7E90001C6E90023002200230BF056
:102A6000BBF848B100232046294600220BF0B4F8F9
:102A70004FF0010318B1D8B2064B1870F8BD0346E9
:102A8000F9E700BF08090020380A002000090020EB
:102A900010090020390A00202DE9F04F14468DB0AE
:102AA0001D4602460B4646A1D1E900010AF078FC1A
:102AB000454B8046D3E900238946204629460AF043
:102AC00071FC04460D464046494607F0CDFB824660
:102AD0008B462046294607F0C7FB06460F46404670
:102AE000494607F059FCCDE900012046294607F088
:102AF00053FC3246804689463B46504659460AF0CA
:102B000003FEDDE90023314CCDE902013046DDE969
:102B100002563946C4E900560AF0F6FD06460F464D
:102B20002B4BCDE904891B78C4E90489C4E9026709
:102B3000002B41D1274A284BD2E90089D3E9002351
:102B4000CDE9082342464B46CDE906890AF0DCFD73
:102B5000DDE90889CDE90A01DDE9000142464B467D
:102B60000AF0D2FD02460B46DDE90A010AF018FC24
:102B7000DDE902230AF016FC42464B46C4E9000197
:102B8000504659460AF0C0FDDDE9042380468946D7
:102B9000504659460AF0B8FDDDE906230AF0B4FDB7
:102BA00002460B46404649460AF0FAFB32463B468F
:102BB0000AF0F8FBC4E902010DB0BDE8F08F00BFD8
:102BC000EA2E4454FB21194010090020400A00203D
:102BD000390A002000090020080900202DE9F04FE3
:102BE00089B016461F468046894607F03DFB82465F
:102BF0008B463046394607F037FB04460D464046C3
:102C0000494607F0C9FB804689463046394607F0F9
:102C1000C3FB2246CDE900012B46504659460AF037
:102C200073FD2E4ECDE90201424620462946DDE9DC
:102C300002454B46C6E900450AF066FD0D46DDE952
:102C400000120446264BC6E90C121B78C6E906455D
:102C5000002B3FD1234A244B4046D2E90078CDE9EE
:102C600004784946D3E90089DDE904230AF04CFDE4
:102C70004246CDE906014B46204629460AF044FD6E
:102C800002460B46DDE906010AF08AFBDDE9022374
:102C90000AF088FBDDE90023C6E9000150465946E9
:102CA0000AF032FD42464B460AF02EFDDDE90423D0
:102CB00080468946504659460AF026FD02460B4694
:102CC000404649460AF06CFB22462B460AF06AFB56
:102CD000C6E9060109B0BDE8F08F00BF6009002019
:102CE000390A002008090020000900202DE9F04FD2
:102CF000D0E90812D0E9003406468DB00F46D6E977
:102D00000CBC9046CDE904341846D6E91023214680
:102D10001D461446D6E9022391469A46D6E90A236F
:102D2000CDE900233A464346CDE902BCCDE9067819
:102D30000AF0EAFC22462B46CDE908450AF0E4FCFD
:102D4000DDE9002304460D4648465146CDE90A9A7E
:102D50000AF0DAFCDDE902230AF0D6FC02460B4653
:102D6000204629460AF01EFBD6E90E45D6E906ABF9
:102D7000804689463769766922462B463846314671
:102D80000AF0C2FC52465B460AF0BEFC42464B4685
:102D90000AF008FBDDE9062380468946384606F13D
:102DA00000410AF0B1FCDDE902230AF0ADFC224645
:102DB00006460F46DDE904012B460AF0A5FCDDE9D5
:102DC00000230AF0A1FC02460B46304639460AF0C1
:102DD000E7FA42464B460AF0E5FA524604460D46EB
:102DE000DDE90A015B460AF08FFCDDE908230AF001
:102DF0008BFC02460B46204629460AF0D1FA0DB05C
:102E0000BDE8F08F2DE9F047164C0546D4E90023C4
:102E1000D4E906898A46104619460AF075FC4246EE
:102E200006460F464B46404649460AF06DFC0246B0
:102E30000B46304639460AF0B5FA07F0F7FA024673
:102E40000B46D4E90C0107F0EFFACAE90001D4E916
:102E50000023D4E9060107F0E7FAC5E90001BDE85F
:102E6000F08700BF600900202DE9F84F30A3D3E9B7
:102E700000230446304E0D46D1E9080134700AF0B3
:102E800043FC02460B46D5E900010AF089FA804668
:102E90008946D5E9020107F0E7F906460F464046A4
:102EA000494607F0E1F902460B46304639460AF03A
:102EB0002BFC013CDFF88CA0E4B24FEAC40B0AEB18
:102EC0000B03C3E900014046494607F065FA04F1E7
:102ED000030E02460B46304639464FEACE060AF04C
:102EE00013FC0AEB0603C3E90001D5E9020107F070
:102EF00053FA0634E400A244CAE90001D5E90423E8
:102F0000D5E90601FFF7C8FD0C4B0D491E449B4453
:102F10001C44D1E90289D1E90023CBE90023D1E99E
:102F20000423C6E90089C4E90023BDE8F88F00BF87
:102F300082B1F5F6A71D133F380A00206009002072
:102F4000400A0020180900202DE9F04FDFF864A2A4
:102F50008BB0DAE90E89DAE90634CDE90434184693
:102F6000DAE908232146DAE90C45CDE90023424697
:102F70004B460AF0C9FBDDE9002306460F46204612
:102F800029460AF0C1FB02460B46304639460AF094
:102F900007FA8C46DAE9021283460E461746DAE94A
:102FA00000122046CDE902125C46294665463246AB
:102FB0003B46CAE90445CDE908BCCDE906670AF0FD
:102FC000A3FBDDE9022304460D46404649460AF0CC
:102FD0009BFB02460B46204629460AF0E1F9DDE953
:102FE000022306460F46DDE90001CAE90A670AF036
:102FF0008BFBDDE9062304460D46DDE904010AF0FA
:1030000083FB02460B46204629460AF0C9F9DDE952
:10301000082304460D4610461946CAE910450AF031
:1030200073FB32463B4680468946304639460AF0B5
:103030006BFB02460B46404649460AF0B3F922466E
:1030400006460F462B46204629460AF05DFB0246FF
:103050000B46304639460AF0A5F907F0E7F906466F
:103060000F460AF14804DAE9040132463B460AF009
:1030700075FC0AF1180A4AE90201A245F3D1DFF80A
:1030800038A1DAE90E89DAE90634CDE904341846C4
:10309000DAE908232146DAE90C45CDE90023424666
:1030A0004B460AF031FBDDE9002306460F46204679
:1030B00029460AF029FB02460B46304639460AF0FB
:1030C0006FF98C46DAE9021283460E461746DAE9B2
:1030D00000122046CDE902125C462946654632467A
:1030E0003B46CAE90445CDE908BCCDE906670AF0CC
:1030F0000BFBDDE9022304460D46404649460AF033
:1031000003FB02460B46204629460AF049F9DDE951
:10311000022306460F46DDE90001CAE90A670AF004
:10312000F3FADDE9062304460D46DDE904010AF061
:10313000EBFA02460B46204629460AF031F9DDE952
:10314000082304460D4610461946CAE910450AF000
:10315000DBFA32463B4680468946304639460AF01D
:10316000D3FA02460B46404649460AF01BF922466E
:1031700006460F462B46204629460AF0C5FA024667
:103180000B46304639460AF00DF907F04FF906466E
:103190000F460AF14804DAE9040132463B460AF0D8
:1031A000DDFB0AF1180A4AE90201A245F3D10BB08E
:1031B000BDE8F08F18090020600900202DE9F04FCC
:1031C0005C4B97B01B78022B00F0B18048225A4923
:1031D00004A800F063FF04A8FFF788FD002704ABF4
:1031E0001C463E46CDE9000103934FF0000A4FF024
:1031F000000B4822504904A800F050FF4F4B04F147
:10320000480903EB060847462546B0464E464C4B58
:103210000022C4E900ABC4E906ABC4E90CAB04A8C6
:10322000E5E80623FFF762FDDDE900230AF096FBDF
:10323000B542E7E80201EAD146461836482E04F1C5
:103240000804D6D1324600213E4800F09DFF3D4B98
:103250004FF0000B009300260027DDF800A04FF090
:103260000009364B09F148089844374B03EB0B052E
:10327000324B03EB0904F4E80623F5E802010AF0F7
:1032800043FA02460B46304639460AF08BF844456D
:1032900006460F46EFD109F10809B9F1180FEAE81F
:1032A000026702D0DAE90067DBE70BF1180BBBF12C
:1032B000480F04D0009BF3E906670093CDE74FF079
:1032C00000084646039C4FF0000A4FF0000B4822CE
:1032D0001C4904A800F0E2FE04A8FFF707FD174B05
:1032E00004F1480803EB060900964F46464625467A
:1032F00080468946124B0022C4E900ABC4E906AB04
:10330000C4E90CAB04A8E5E80623FFF7EFFC42464E
:103310004B460AF023FBB542E7E80201EAD1009EE2
:1033200008341836482ED2D117B0BDE8F08FFFF719
:103330000BFE4BE7380A002018090020F009002096
:103340000000F03FA80900206009002000000000F4
:103350002DE9F04F64A3D3E9002387B0834600F141
:103360002001D1E900010AF0CFF902460B46DBE962
:1033700000010AF015F806460F46DBE90201CDE927
:10338000026706F071FF04460D4630463946CDE926
:10339000044506F069FF02460B46204629460AF01E
:1033A000B3F902460B46DFF8549130463946C9E975
:1033B0000023CDE9002306F0EFFF0B460246294625
:1033C00020460AF0A1F9C9E90601DBE9020106F08D
:1033D000E3FF494B00240025C3E90045C3E9064546
:1033E000C3E90C45C9E90C0103F118084FF00009C5
:1033F000424E434B06F1300A03EB0907DDE9002397
:10340000F7E802010AF080F902460B4620462946F9
:1034100009F0C8FF564504460D4602D0F6E90623DA
:10342000EEE709F11809B9F1480F48E9064508F136
:10343000180802D058E90645DAE704A902A8FFF700
:10344000E1FCDDE90423DDE90201FFF7C7FB04A984
:1034500002A8FFF7D7FCDDE904012A4BD3E90023DA
:1034600009F09EFFDDE90223CBE9040120A1D1E9A7
:10347000000109F095FF04460D4600220023CBE928
:1034800006450AF0B3FB80B119A3D3E90023204617
:10349000294609F087FF0022002304460D460AF062
:1034A000A5FB0028F0D1CBE9064511A3D3E9002301
:1034B000204629460AF0B8FB88B10DA3D3E90023C2
:1034C0002046294609F06CFF09A3D3E900230446EE
:1034D0000D460AF0A9FB0028EFD1CBE9064507B05D
:1034E000BDE8F08FAFF3008082B1F5F6A71D133F62
:1034F000EA2E4454FB2119406009002018090020DD
:10350000A8090020100900202DE9F04FD0E904237C
:103510004D4E83B0834600F11801D1E90001FFF759
:10352000BBFAD6E9002398461746D6E90223474955
:10353000474800240025C0E90623D6E90423C1E951
:103540000045C0E90C23C1E90645C1E90C45CDE9B8
:103550000078C0E900784FF0000901F118083C4EEE
:103560003C4B06F1300A03EB0907DDE90023F7E8DD
:1035700002010AF0C9F802460B462046294609F026
:1035800011FF564504460D4602D0F6E90623EEE744
:1035900009F11809B9F1480F48E9064508F118087A
:1035A00002D058E90645DAE70BF108015846FFF763
:1035B00029FC21A3D3E90023DBE908010AF0A4F8E0
:1035C000DBE9002309F0EEFE04460D46002200234D
:1035D000CBE900450AF00AFB80B119A3D3E9002327
:1035E0002046294609F0DEFE0022002304460D464F
:1035F0000AF0FCFA0028F0D1CBE9004510A3D3E98A
:103600000023204629460AF00FFB88B10CA3D3E91A
:1036100000232046294609F0C3FE09A3D3E900236D
:1036200004460D460AF000FB0028EFD1CBE9004527
:1036300003B0BDE8F08F00BF82B1F5F6A71D133FC0
:10364000EA2E4454FB211940400A00206009002062
:1036500018090020F00900202DE9D043DDE90C67AE
:103660009046994614A3D3E90023044649464046B0
:103670000AF074F910A3D3E90023C4E90001DDE9DD
:1036800006010AF06BF90CA3D3E90023C4E9020197
:10369000DDE908010AF062F907A3D3E90023C4E9D0
:1036A0000601DDE90A010AF059F9C4E90867C4E92D
:1036B0000401BDE8D08300BFE5BF631ADCA54C4020
:1036C0004878202805D0A0F12200B0FA80F0400907
:1036D00070471888062894BF00200120704700BF5B
:1036E00030B504460F4A83B00092002540230222E1
:1036F000012108F0C1FE20460095402302228221CC
:1037000008F0BAFE2046009510230322832108F01A
:10371000B3FE2046044B7F22212103B0BDE8304098
:1037200008F09ABF2D370008C136000810B5064CC6
:1037300040232246012108F0C7FE044B186008B15F
:103740000023235410BD00BFD80C0020D40C00204F
:10375000014B186808F08CBED00C0020FFF7F8BFB2
:1037600000B54FF4007185B00E4808F04BFC0E49CF
:10377000802203230191029200930C4A0C4B0D49C5
:103780000D4808F049FE0D4B0D49186009F02AFA62
:10379000142009F037FB2A2005B05DF804EB09F08E
:1037A00031BB00BF000C0140580D00202CE5000883
:1037B00024000020E0E4000860EA0008D00C0020AB
:1037C000E136000810B4044C8BB202468221206816
:1037D00010BC08F072BE00BFD00C002001282DE9FB
:1037E000F8432BD1402A0F46904623DD0C46A2F128
:1037F00041039B095E1C154D01EB861940232246AF
:103800008221286808F059FE0028F7D04034A145ED
:10381000F4D1B3019EB2C6EB0806B6B2FC1833462B
:1038200022468221286808F048FE0028F7D00020B0
:10383000BDE8F88300263346044DECE700F028FC91
:10384000052303604FF0FF30BDE8F883D00C002063
:103850000449D1E90023013243F10003C1E9002307
:10386000704700BFF00D002070B502214FF080407E
:1038700008F018FC00B970BD02214FF0804008F03C
:1038800017FC4FF0804008F099FD0E4B84B21B6886
:103890000D4E23449BB20D4D1A4600214FF080403F
:1038A0002B80348008F07AFDBDE87040084A094B4F
:1038B00010681B684FF4804103440748136008F008
:1038C000A4BB00BFB80B0020F80D0020E40D0020C1
:1038D000D80B0020C80B00200010014070B5022159
:1038E000134808F0DFFB00B970BD0221104808F052
:1038F000DFFB0F4808F062FD0E4B84B21B680E4ED2
:1039000023449BB20D4D1A46002109482B80348078
:1039100008F044FDBDE87040094A0A4B10681B6876
:103920004FF4005103440848136008F06EBB00BF19
:1039300000040040DC0B0020E20D0020E60D00201A
:10394000E00B0020F00B0020001001400000000000
:103950002DE9F04F34A7D7E9006789B0002400258E
:10396000DFF8D4A0DFF8D49029464FF00008CDE965
:10397000004522462B462046FFF75EF822462B469E
:10398000CDE90089CDE90467CDE90645CDE90245D9
:103990005046FFF761FE51460120FFF765FA22A36A
:1039A000D3E90023DFF898C04FF0000BCDE902BC4B
:1039B000CDE90489CDE900231D4F22462B46CDE9F0
:1039C00006455046DFF87C90FFF746FE002651463C
:1039D00002204FF00008FFF747FAFFF7EFFBCDE9B1
:1039E0000645CDE90445CDE90245504632463B4601
:1039F000CDE90089FFF730FECDE90645CDE9044564
:103A0000CDE9024543464C463246CDE900340948EB
:103A10003B46FFF721FE504609B0BDE8F04FFFF7E7
:103A200097BC00BFAFF3008066666666666642407C
:103A300000406640900C0020680C0020008056403A
:103A4000008066400000244010B5084CFEF702FDDF
:103A500021680748FEF704FD064A00232360116829
:103A60000548BDE81040FFF7ADBE00BFD40C0020F4
:103A7000D80C0020C00C0020040C00200000000026
:103A80002DE9F04FB44B91B0D3E9000109F006FEE7
:103A90000022B24B09F062FF02460B46B04CB14E19
:103AA000B14D2046DFF8E8A2C6E90823C4E908239F
:103AB000FFF74EFC286809F0C1FDDAE9002309F0A0
:103AC00023FE9FA3D3E9002309F048FFDFF8C4B227
:103AD000C6E90601DBF8000009F0B0FDA34BDFF8F2
:103AE000B882D3E9002309F00FFE95A3D3E90023A0
:103AF00009F034FFC6E904013046FFF705FDD4E9BB
:103B0000080100229A4B09F04DFCC8E90801404623
:103B1000FFF71EFCD8E9062308F11009D9E900894E
:103B2000DAE900671046194685A3D3E90023CDE9F9
:103B30000889CDE90C0109F0E7FD8046286889462F
:103B400009F07CFD32463B4609F0DEFD02460B469D
:103B50004046494609F024FC79A3D3E90023CDE986
:103B60000A01DDE9080109F0CFFD8046DBF800001D
:103B7000894609F063FD32463B4609F0C5FD0B4618
:103B800002464946404609F00BFC7A4B80461B68CA
:103B90008946002B00F0C380D4E90667DDE90C01FB
:103BA00032463B4609F0FCFB65A3D3E9002309F04C
:103BB000ABFDD4E90434CDE90C01DDE908011A4676
:103BC000CDE90834234609F0EBFB5DA3D3E90023DC
:103BD00009F09AFD0023CDE90E0104221B2166485D
:103BE00000F020FB58A3D3E900233046394609F002
:103BF0008BFD0AF081F809F033FD53A3D3E90023CC
:103C000006460F46DDE9080109F07EFD0AF074F86A
:103C100009F026FD504BCDE90801D3E9000109F078
:103C20003DFD00224D4B09F099FEDDE90E340246C0
:103C3000CDE90634CDE900670B46DDE90C01CDE99D
:103C40000401DDE90801CDE902014C4800F0EAFA7F
:103C50003FA3D3E900233046394609F055FD064617
:103C600028680F4609F0EAFCDAE9002309F04CFD68
:103C700002460B463046394609F092FB34A3D3E99D
:103C8000002306460F46DDE9080109F03DFD044624
:103C9000DBF800000D4609F0D1FC344BD3E90023DA
:103CA00009F032FD02460B462046294609F078FB12
:103CB00032463B46CDE90001314800F0B3FADAE97B
:103CC0000023DDE90C0109F049FE284B0446D3E945
:103CD00000230D46DDE90E0109F040FE22462B4689
:103CE000CDE90001274800F09DFADAE90023DDE97B
:103CF0000A0109F033FE1D4B234ED3E9002304468D
:103D0000C0CE0D4640464946CDE9026709F026FE81
:103D10002246CDE900012B461C4800F083FADDE97C
:103D20000A0109F0E9FFFEF73BFA4046494609F06F
:103D3000E3FF11B0BDE8F04FFEF7E2BAAFF3008049
:103D4000A8AB3173C62D0941E5BF631ADCA54C4011
:103D5000000000000020AC40F00D002000408F402B
:103D6000680C0020380C0020D80B0020B00B00207D
:103D70000000F03F580A0020C4E50008D0E5000824
:103D8000FCE5000814E60008F80B002028E600080F
:103D9000A80B0020E00B0020900C00200000000089
:103DA0002DE9F043AC4BAD4A87B01A6008F0E2F859
:103DB00040F2033008F004FB4FF40071A8484FF4C0
:103DC000803508F01DF900BF013DFCD1FFF7C8FCAC
:103DD0004FF4417008F0F4FA2A464FF4C04303212F
:103DE000A04807F0DDFF4FF400519E4808F00AF9A3
:103DF000284608F0EBFF42F2273008F0DFFF08F01A
:103E0000F1FF08F0F7FF4FF4607008F0D9FA1C20BA
:103E100008F0F8FF4FF0804008F000F92B462A46E2
:103E200029464FF0804008F046F94FF434714FF0C6
:103E3000804008F058F94FF0804008F045F94FF005
:103E4000804008F046F94FF6FF714FF0804008F0CF
:103E50004CF929464FF0804008F064FA02214FF0F7
:103E6000804008F05FFA04214FF0804008F05AFAD1
:103E700006214FF0804008F055FA29464FF0804067
:103E800008F035F929464FF0804008F030FA29460D
:103E90004FF0804008F045F92A4629464FF080400F
:103EA00008F059F94FF47A7229464FF0804008F033
:103EB00075FA4FF0804008F007F94FF0804008F0A5
:103EC0000DF902214FF0804008F0E8F840F281300F
:103ED00008F076FA1D2008F095FF634808F09EF878
:103EE0002B462A462946604808F0E5F84FF434711D
:103EF0005D4808F0F8F85C4808F0E6F85A4808F021
:103F0000E8F84FF6FF71584808F0EFF82946564890
:103F100008F008FA0221544808F004FA0421524833
:103F200008F000FA0621504808F0FCF929464E48EE
:103F300008F0DDF829464C4808F0D9F929464A48E6
:103F400008F0EFF82A462946474808F004F94FF4EC
:103F50007A722946444808F021FA4348434F08F052
:103F6000B3F84148002608F0B9F8414C02213E4818
:103F700008F094F8FFF7ECFC2FA3D3E90023CDE978
:103F80000467CDE90023CDE9026729462846FEF7FC
:103F9000DFF8D4E9000109F081FB32463B4609F025
:103FA000DDFC344D344FC5E908012846FFF7D0F950
:103FB00023A3D3E90023D5E9060109F0A5FB2F4B84
:103FC0002F4ED3E9002309F0C9FC09F04DFE002271
:103FD0002C4B3860D5E9040109F096FB1AA3D3E90C
:103FE000002309F091FB1AA3D3E90023894626494F
:103FF0008046D1E9000109F087FB02460B464046A6
:10400000494609F0ABFC09F02FFE204D306007E077
:10401000D4E900016422002309F0BEFE134305D059
:104020002B68002BF4D0FFF70FFDF1E7FFF728FD19
:10403000F6E700BFAFF30080333333333333D33F7E
:10404000A8AB3173C62D0941000000000020AC4030
:10405000EA2E4454FB21094008ED00E0002000084E
:10406000000C0140001001400004004000408F405F
:10407000F00D0020680C0020D80B0020A80B0020B9
:10408000E00B002000806640B00B0020D40C002024
:10409000014B1868704700BF58040020844641EA6D
:1040A000000313F0030349D1403A23D30B680360A4
:1040B0004B6843608B688360CB68C3600B690361A6
:1040C0004B6943618B698361CB69C3610B6A03628E
:1040D0004B6A43628B6A8362CB6AC3620B6B036376
:1040E0004B6B43638B6B8363CB6BC363403040315B
:1040F000403ADBD230320BD30B6803604B6843602D
:104100008B688360CB68C36010301031103AF3D2F3
:104110000C3205D351F8043B40F8043B043AF9D281
:10412000043208D0D2071CBF11F8013B00F8013B54
:1041300001D30B8803806046704700BF082A13D361
:104140008B07B1D010F00303AED0C3F10403D21A31
:10415000DB071CBF11F8013B00F8013BA4D331F889
:10416000023B20F8023B9FE7043AD9D3013A11F809
:10417000013B00F8013BF9D20B7803704B78437098
:104180008B7883706046704770B4840746D0541EA5
:10419000002A41D0CDB2034602E0621EE4B31446C9
:1041A00003F8015B9A07F8D1032C2ED9CDB245EA6A
:1041B00005250F2C45EA054519D9264603F11002BD
:1041C000103E0F2E42F8105C42F80C5C42F8085C7E
:1041D00042F8045C02F11002F2D8A4F1100222F0BD
:1041E0000F0204F00F041032032C13440DD91E46A5
:1041F0002246043A032A46F8045BFAD8221F22F02A
:1042000003020432134404F003042CB1C9B21C4469
:1042100003F8011BA342FBD170BC70471446034650
:10422000C2E700BF0FB410B5074B82B004AC54F81E
:10423000042B186823468168019401F009FC02B040
:10424000BDE8104004B07047580400200EB4014689
:10425000F0B54FF6FF779CB021AC54F8042B0D4815
:1042600023466FF00045029106914FF4027602A9B1
:1042700000680194ADF81670ADF8146004950795C8
:1042800000F038F8029B00221A701CB0BDE8F04024
:1042900003B070475804002020F0030110F0030021
:1042A000C0F1000051F8043B00F1040C4FEACC0CC3
:1042B0006FF000021CBF22FA0CF213434FF0010C06
:1042C0004CEA0C2C4CEA0C4CA3EB0C0222EA030245
:1042D00012EACC1204BF51F8043B0430F4D0C2F10E
:1042E000000102EA0102B2FA82F2C2F11F0200EBFF
:1042F000D20070472DE9F04FC1B00C460991154628
:104300000E930A9004F0ECFB036818461793FFF72E
:10431000C3FFA38916901E0603D52369002B01F065
:104320005D8100231A46A8460DF1C009DFF860A49C
:10433000129319930B9325932493CDF88C90149298
:10434000159298F800304446EBB1252B02D11AE0C3
:10435000252B03D014F8013F002BF9D1C8EB04053D
:104360008DB1249B259A01332A44072BC9F800807C
:10437000C9F804502592249300F3328309F1080907
:104380000B9B2B440B932378002B00F0EA814FF01A
:10439000FF3B5D4600231A468DF86F3019460C939B
:1043A0000793637804F1010808F10108A3F12000E4
:1043B000582800F24586DFE810F0F3034306430671
:1043C000FC034306430643064306430643065900DF
:1043D000040443066600D0034306EC03BC05BC0599
:1043E000BC05BC05BC05BC05BC05BC05BC0543063D
:1043F0004306430643064306430643064306430675
:104400004306E205F7044306F70443064306430662
:1044100043064205430643064A0543064306430650
:1044200043064306740543064306CD05430643068B
:104430004306430643064306430643064306430634
:104440001D060E06F704F704F70415060E064306CC
:104450004306A3044306A805AE046D000A04430600
:104460001204430635044306430670040E9C236879
:1044700018460C932346002803F104030E9306DA32
:104480000C9B5B420C93079B43F00403079398F843
:10449000003089E7AB460E9A002707983021782331
:1044A000BB4514688DF8701002F104024FF000054E
:1044B0008DF871308DF86F7040F00201C0F23D86CA
:1044C00020F0800141F00201079154EA05010E92AB
:1044D0001193AD4800F0318130AE230943EA0573F2
:1044E000290904F00F020D461C46835C06F8013DC5
:1044F00054EA0503F1D130AB9B1B0D930D9B5B453B
:10450000B8BF5B4608930023139317B1089B013390
:104510000893079B13F002030F9302D0089B02330A
:104520000893079B13F08403109340F018810C9BB1
:10453000089A9D1A002D40F31281102D2599249A76
:10454000924F27DD189648461024B946099E2F46FB
:104550000A9D04E0103F102F00F1080016DD013223
:104560008A4B1031072A2591249280E81800F1DD4A
:1045700023AA3146284605F0DBFB002840F0F880EE
:10458000103F102F30A82599249AE8DC3D464F466D
:104590008146189E01326C18072A25942492C9F886
:1045A0000070C9F8045000F3D0809DF86F7009F1D5
:1045B000080977B1249B013401330DF16F01012209
:1045C000072B2594249389E8060000F3208209F143
:1045D00008090F9B6BB1249B023401331CA90222F2
:1045E000072B2594249389E8060000F31C8209F127
:1045F0000809109B802B00F02C810D9BC3EB0B074F
:10460000002F33DD624A102F249B0F9222DD2246B9
:104610004FF0100B0A9D099C04E0103F102F09F188
:10462000080916DD01331032072B2592249389E8FF
:10463000000CF2DD23AA2146284605F079FB00286C
:1046400040F09680103F102F0DF1C009259A249B51
:10465000E8DC144601330F9A3C44072B259424933D
:1046600089E8840000F3C78109F10809079BDA058E
:1046700000F19080249B0D9901330C44072B259465
:10468000C9F80060C9F80410249300F3E28109F12D
:104690000809079B590736D50C9B089A9D1A002DCF
:1046A00031DD102D249B394F22DD22461026DDF806
:1046B00028B0099C04E0103D102D09F1080916DD11
:1046C000013332491032072B2592249389E84200A6
:1046D000F1DD23AA2146584605F02AFB002847D1E0
:1046E000103D102D0DF1C009259A249BE8DC1446DD
:1046F00001332C44072B25942493C9F80070C9F882
:10470000045000F392840B9B0C9A08998A42ACBF28
:104710009B185B180B93002C40F0598100232493C5
:104720000DF1C0090DE60027BB458DF86F70C0F292
:104730000E85079B23F080030793BBF1000F00F069
:104740006C84002400250027C6E623AA09990A984C
:1047500005F0EEFA60B99DF86F700DF1C009259C67
:1047600027E7259B23B10A9823AA099905F0E0FAC7
:10477000099B9B8913F0400F0B9B18BF4FF0FF3331
:10478000184641B0BDE8F08F78E6000844E600081E
:1047900098E60008119B652B40F39F8014981599AB
:1047A0000022002309F018FA002800F06381249BFE
:1047B000AE49013301340122072B2594249389E863
:1047C000060000F3538409F108091D9B129A9342D5
:1047D00003DB079BDB077FF55CAF249B1699013356
:1047E000179A0C44072B2594C9F80020C9F8041027
:1047F000249300F3E68609F10809129B5D1E002D43
:104800007FF747AF9A4A102D249B0F9240F31781F0
:1048100010260A9FDDF824B005E009F10809103DD3
:10482000102D40F30C8101331034072B2594249371
:10483000C9F800A0C9F80460EFDD23AA594638463C
:1048400005F076FA002893D10DF1C009259C249B30
:10485000E5E70C9B089A9F1A002F7FF7CEAE844A9B
:10486000102F249B0F922BDD4A462146B946102576
:1048700037460A9C099E06E0A9F11009B9F1100F0C
:1048800002F1080218DD01331031072B2591249322
:10489000C2F800A05560EFDD23AA3146204605F09E
:1048A00047FA00287FF464AFA9F11009B9F1100F9D
:1048B00030AA2599249BE6DC3E460C464F4691469D
:1048C00001330F9A3C44072B2594249389E88400F4
:1048D00000F32B8509F108098FE6129B249D012B1B
:1048E00004F1010405F1010540F3E8840123072DDB
:1048F0002594C9F800602495C9F8043000F3F984C0
:1049000009F10809169A0135179B1444072D2594BF
:104910002495C9F80030C9F8042000F3F88409F19F
:104920000809002314981599002209F055F9129BE3
:10493000002800F0EA805E1E002E40F3F5804C4B0C
:10494000102E0F932CDDCDF834801027B046DDF803
:1049500028B0099E06E0A8F11008B8F1100F09F17F
:1049600008091ADD01351034072D25942495C9F85E
:1049700000A0C9F80470EEDD23AA3146584605F0C0
:10498000D7F900287FF4F4AEA8F11008B8F1100FA1
:104990000DF1C009259C249DE4DC4646DDF83480F9
:1049A00001350F9B3444072D2594249589E8480050
:1049B00040F3B88023AA09990A9805F0B9F90028AC
:1049C0007FF4D6AE259C249D0DF1C009ACE023AA4E
:1049D00009990A9805F0ACF900283FF49FAEC7E6A4
:1049E00023AA09990A9805F0A3F900287FF4C0AE1C
:1049F0000DF1C009C4E423AA09990A9805F098F9B1
:104A000000287FF4B5AE0DF1C009259C2EE623AA3F
:104A100009990A9805F08CF900287FF4A9AE0DF1E8
:104A2000C009259CD5E523AA09990A9805F080F9C3
:104A300000287FF49DAE0DF1C009259CD9E5013316
:104A40000F9A2C44072B2594249389E824007FF7A0
:104A50001EAE23AA09990A9805F06AF900287FF486
:104A600087AE259C0DF1C00913E600BF94E600084F
:104A700098E600081D9D002D40F30E83139B129AAB
:104A80009342A8BF1346002B1D460DDD249B2C44EA
:104A90000133072B2594C9F80060C9F8045024930A
:104AA00000F3158609F10809139B002DA8BF5B1BB5
:104AB000002B1D4640F3A083B94A102D249B0F9272
:104AC00040F3458522461027DDF828B0099C05E013
:104AD00009F10809103D102D40F3388501331032DB
:104AE000072B25922493C9F800A0C9F80470EFDDC4
:104AF00023AA2146584605F01BF900287FF438AE5A
:104B00000DF1C009259A249BE4E7013B01350136EC
:104B10001C44072DC9F8006024952594C9F8043079
:104B20003FF748AF09F10809199A013514441FAB42
:104B3000072D25942495C9F80420C9F800307FF783
:104B4000A6AD23AA09990A9805F0F2F800287FF487
:104B50000FAE0DF1C009259C9BE598F8003008F1D7
:104B600001042A2B00F02B87A3F13000092898BFFD
:104B7000002500F2AF8614F8013B05EB850500EB3C
:104B80004505A3F130000928F5D945EAE575A046A9
:104B90000CE4079B43F08003079398F8003003E48C
:104BA00098F8003000297FF4FFAB01222021FFF7A5
:104BB000FBBB079B43F00103079398F80030FFF716
:104BC000F3BB98F8003001222B21FFF7EDBB079BC8
:104BD00043F02003079398F80030FFF7E5BB0E9AE7
:104BE000AB461668002511938DF86F50141D002EEA
:104BF00000F0E585BBF1000FC0F23F855A4629461B
:104C0000304604F091FA002800F05886AB46831B2A
:104C10000D9323EAE3730E940893CDF84CB09DF8FE
:104C20006F7072E41193AB46002A40F0ED86079A4C
:104C300012F0200300F043810E9C0027073424F07B
:104C4000070303F10801BB450E91D3E900458DF838
:104C50006F70C0F2C18222F08003079354EA05030B
:104C600000F04881002D08BF0A2CC0F0488130AE0A
:104C7000204629460A22002309F08EF8303206F831
:104C8000012D2046294600230A2209F085F8044612
:104C90000D4654EA0503EBD12DE41193AB46002AEF
:104CA00040F0CA86079B3F489D0640F15D810E9CFF
:104CB000073424F0070303F108020E92D3E90045FC
:104CC000079A12F0010700F0468254EA05033FF408
:104CD0002AAD9DF8442000278DF87120079A3023D3
:104CE000BB458DF870308DF86F7042F00203C0F252
:104CF0008D8522F0800343F002030793FFF7ECBB9E
:104D000098F800306C2B00F05284079840F01000A7
:104D10000790FFF749BB1193AB46002A40F09486F9
:104D2000079A12F0200300F0A0800E9C00270734A1
:104D300024F0070303F10801BB450E91D3E90045B8
:104D40008DF86F700BDB22F08003079354EA0503A4
:104D500006D1BBF1000F00F0A2850024002500273A
:104D600030AEE20842EA4572E90804F007030D4656
:104D70001446303354EA050206F8013DF1D1079A92
:104D8000D1077FF5B8AB302B3FF4B5AB3022731EA3
:104D900006F8012C30AAD21A0D921E46FFF7AEBBC0
:104DA00098E6000878E600081193AB46002A40F028
:104DB0004786079B0E9C1A0704F1070440F16C8399
:104DC00024F0070303F108020E921A685B6814923C
:104DD0001593159B149D23F00044284621464FF05F
:104DE000FF32A94B08F02AFF002840F0CD82284668
:104DF00021464FF0FF32A44B08F002FF002840F09C
:104E0000C382149815990022002308F0EFFE0028B1
:104E100040F0F6849DF86F7007999C4E21F0800158
:104E20009B4B0791119903224FF0000B08924729E1
:104E3000D8BF1E460D92CDF84CB0FFF766BB079B5E
:104E400043F00803079398F80030FFF7ADBA1193C9
:104E5000AB46002A40F0EC85079B43F01003079314
:104E6000079A12F020037FF460AF079911F0100247
:104E700000F068820E98BBF1000F024604688DF8BE
:104E80006F3002F104024FF00005C0F2C28421F03D
:104E90008001079154EA05010E923FF45AAF1F4674
:104EA0005EE71193AB46002A40F0BE85079B43F0B6
:104EB00010030793079A12F020037FF4BDAE079901
:104EC00011F0100200F026830E98BBF1000F02468D
:104ED00004688DF86F3002F104024FF00005C0F253
:104EE0008C8421F08001079154EA05010E921F463F
:104EF0007FF4B8AEBBF1000F00F09080002440AE0C
:104F0000303406F8414DFFF7F6BA002A40F08885A4
:104F1000079B9B0640F1CA820E9A134604330E93F8
:104F20000B9B1168DD171A462B46C1E90023FFF7DA
:104F300008BAA3F1300000231C4618F8013B04EB2B
:104F4000840400EB4404A3F130000928F5D90C9443
:104F5000FFF72CBA1193AB46002A40F05D85079B02
:104F60004C489D063FF5A3AE079BDC0640F1B58299
:104F70000E9A00251346043314680E93A0E611938D
:104F8000AB46002A40F04485079B43F0100307938B
:104F9000079B980640F1F1800E9C073424F007042B
:104FA000D4E9002304F108011D4614460E91002A9D
:104FB00073F10003C0F2F280BBF1000F9DF86F7037
:104FC000C0F20A81079B23F08003079354EA05038C
:104FD0007FF448AE8EE71193AB46002AD8D08DF807
:104FE0006F10D5E7079B43F04003079398F8003014
:104FF000FFF7DAB90E9911930A68002301201F46C2
:105000008DF86F309B4613930B1D08908DF89820F8
:105010000E930D9026AEFFF77CBA5F464FF0000B63
:10502000CDF834B030AEFFF769BA23AA09990A98CF
:1050300004F07EFE00287FF49BAB259CFFF763BB4A
:105040001193002A40F0D384119A002A3FF489ABCF
:10505000002301211F4608918DF898208DF86F30AC
:105060009B4613930D9126AEFFF753BA23AA0999D5
:105070000A9804F05DFE00287FF47AAB0DF1C009B8
:10508000259CFFF7A2BB00BFFFFFEF7F58E600089B
:1050900054E6000864E60008249BB8490133013453
:1050A0000122072B2594249389E8060000F3C2828D
:1050B00009F108092DB9129B1BB9079BDF077FF582
:1050C000E8AA249B16990133179A0C44072B2594C0
:1050D000C9F80020C9F80410249300F3FF8309F1F4
:1050E00008096D42002D40F3DB82A54A102D0F9276
:1050F00040F34B8322461027DDF828B0099C05E0D9
:1051000009F10809103D102D40F33E8301331032A0
:10511000072B25922493C9F800A0C9F80470EFDD8D
:1051200023AA2146584604F003FE00287FF420AB52
:105130000DF1C009259A249BE4E792480791119349
:1051400054EA05030E924FF000077FF4C5A900242E
:105150000025FFF7C1B9BBF1000F8DF86F70C0F2E9
:10516000038222F08003079354EA05037FF4B4A975
:10517000BBF1000F7FF4E5AA4FE7079BD90640F18A
:10518000BA810E9A13461C680433E51722460E9323
:105190002B46002A73F10003BFF60EAF64424FF0B6
:1051A0002D0765EB4505BBF1000F8DF86F70FFF61D
:1051B00059AD079B23F08003079353E50E9ABBF18B
:1051C000000F134614688DF86F7003F104034FF05D
:1051D000000580F2E2810E9354EA05037FF442ADAC
:1051E0008DE623AA09990A9804F0A2FD00287FF40D
:1051F000BFAA259C0DF1C009139A1D9B3244174686
:10520000129A934249DB079AD50746D412990E4465
:10521000F51BCB1A9D42A8BF1D46002D2E460DDD65
:10522000249A2C440132072A2594C9F80070C9F841
:105230000450249200F3D28209F10809002EB4BF71
:105240001D469D1B002D7FF724AA4D4A102D249B3F
:105250000F927FF7F4AB10260A9FDDF824B005E02B
:1052600009F10809103D102D7FF7E9AB0133103427
:10527000072B25942493C9F800A0C9F80460EFDD3A
:1052800023AA5946384604F053FD00287FF470AA3B
:105290000DF1C009259C249BE4E7249A169801325D
:1052A00017990444072A2594C9F80010C9F8040086
:1052B000249200F3778209F10809A7E7079BD80732
:1052C0003FF514AB0123072D2594C9F80060249500
:1052D000C9F804307FF726AC23AA09990A9804F08C
:1052E00027FD00287FF444AA0DF1C009259C249DC8
:1052F0001AE423AA09990A9804F01AFD00287FF4F9
:1053000037AA0DF1C009259C249DFFF7FBBA23AAFB
:1053100009990A9804F00CFD00287FF429AA0DF1E0
:10532000C009259C249DFFF7FCBA23AA09990A9875
:1053300004F0FEFC00287FF41BAA0DF1C009259C97
:10534000FFF75BB9079911F0400700F00F810E9845
:10535000BBF1000F034604888DF86F2003F10403AE
:105360004FF00005C0F2738121F08001079154EAEB
:1053700005010E933FF4EDAC1746F1E494E6000806
:1053800098E6000878E60008149C22462046159C02
:105390002346214608F052FC002840F0C182119BB0
:1053A000BBF1FF3F23F020030D9300F04982472B10
:1053B00000F05081079B43F480731093159B1F1ED0
:1053C000149B0893B7BF3B46002303F100472D23EE
:1053D0000F93119B662B00F01F82462B00F00D816E
:1053E0000D9B21A8452B18BF5D461EA908BF0BF1D8
:1053F0000105049003911DA802213B460290089AE2
:10540000019500910A9802F017F8119B0646672B48
:1054100040F03482079BDA0740F16F8274190898D4
:1054200039460022002308F0D7FB002840F04D81C8
:10543000219B9C4206D930215A1C21921970219B34
:105440009C42F9D89B1B12930D9B472B00F0368191
:10545000119B652B40F32182119B662B1D9B13939F
:1054600000F0FE81139A12998A42C0F2EC81079BE8
:10547000D90700F1448222EAE2730D926722119269
:105480000F9A002A40F0EF800893109B93460793F1
:105490009DF86F70FFF739B824F007042368149360
:1054A0006368159304F108030E9392E4079BDF06EB
:1054B0000BD4079B5E0608D50E9A136804320E9231
:1054C000BDF82C201A80FEF73CBF0E9A13680432F8
:1054D0000E920B9A1A60FEF734BF0E9A079B0025B6
:1054E00013F0400F134603F104030CBF1468148833
:1054F0000E93FFF7E5BB079B0E9A13F0400F134680
:105500003FF441AEB2F900400433E5170E93224652
:105510002B464CE5079911F040073FF44FAE0E982B
:10552000BBF1000F034604888DF86F2003F10403DC
:105530004FF00005C0F2948021F08001079154EAF9
:1055400005010E9317467FF48DABD3E41446013367
:105550000F9A2C44072B2594249389E824003FF7C5
:1055600040AE09F1080947E60E9AE9E50E9ABBF14B
:10557000000F134614688DF86F7003F104034FF0A9
:10558000000564DB079A0E9322F08002079254EA2A
:1055900005027FF4E5ABFFF7DCBB079A0E9322F020
:1055A0008002079254EA05027FF45CABA2E4079BF9
:1055B00008F1010843F02003079398F80030FEF744
:1055C000F3BE23AA09990A9804F0B2FB00287FF4DD
:1055D000CFA80DF1C009259CFFF70FB940210A980B
:1055E00003F0F6FA099A10601061002800F0F581C6
:1055F000099A40235361FEF794BE21A81EA9049086
:1056000003911DA803210290089A3B46CDF804B0EF
:1056100000910A9801F010FF5D460646119B74192F
:10562000462B7FF4FCAE3378302B00F097811D9D24
:105630002C44F4E623AA09990A9804F079FB00287F
:105640007FF496A80DF1C0091D9D259C32E50E93AF
:10565000FFF785BBBBF1000F08BF4FF0010BA9E6B8
:105660000E931746B8E50893109B2D2707938DF8E6
:105670006F704FF0000BFEF749BF3046FEF70CFE8F
:10568000AB460346FFF7C4BA23AA09990A9804F067
:105690004FFB00287FF46CA8259C249B0DF1C009CA
:1056A000129901330C44072B25942493C9F8006008
:1056B000C9F804107EF7EBAFFFF7CBB91D9BDD1CDB
:1056C00012DB9B4510DB1393CCE62346BAE623AAF4
:1056D00009990A9804F02CFB00287FF449A80DF1E1
:1056E000C009259CFFF7E0B9119A023A1192013BDB
:1056F0009DF84420002B1D93B8BF5B428DF87C20A1
:10570000B4BF2D222B22092B8DF87D2040F3008180
:105710000DF18B000446B84A82FB0321DA17C2EB75
:10572000A10101EB8102A3EB4202303209290B46B1
:1057300004F8012DEFDC21463033DAB201F8012DF7
:10574000884240F251810DF17E01234601E013F8B9
:10575000012B984201F8012BF9D1431C1B1B0DF1C1
:105760007E0213441FAA9B1A129A1993012A13440A
:105770000D9340F309810D9B169A134400220D935B
:10578000139223EAE3737BE6144601330F9A2C4409
:10579000072B2594249389E824003FF775AF09F17E
:1057A00008097DE723AA09990A9804F0C1FA00289C
:1057B0007EF4DEAF0DF1C0091D9B259C26E55B46FE
:1057C000062B28BF06230D9323EAE373B34637461F
:1057D00013960E940893894EFEF797BE23AA099953
:1057E0000A9804F0A5FA00287EF4C2AF1D9B129A15
:1057F000259CD31A0DF1C00920E50E921F46EBE45B
:105800002D231F468DF86F30FFF706BB0793FEF779
:1058100063BE0E92FFF7A3BA21A81EA904900391BC
:105820001DA803210290089A3B46CDF804B00091D0
:105830000A9801F001FE5D46064600EB0B04F2E615
:105840004FF0060BB6E5169A129B1344139A0D936C
:10585000002A40F39180672223EAE37311920FE656
:10586000002B40F39B80BBF1000F6ED1079AD40749
:105870006BD41A4623EAE3730D9201E6119B472B82
:105880007FF4CCAD079BDB073FF5C8AE219B9B1B8C
:1058900012930D9B472B3FF411AF1D9B27E7079BEE
:1058A0005F46DB0705D540AE302306F8413DFEF7E5
:1058B00022BECDF834B030AEFEF720BE2BEAEB733B
:1058C000CDF834B0089383460E9413909DF86F7012
:1058D000FEF71BBEA0460025FEF768BD23AA099966
:1058E0000A9804F025FA00287EF442AF0DF1C009B1
:1058F0001D9D259C249BFFF7F4BB219BA2E5169AD6
:10590000139B134467220D93119223EAE373B7E5C7
:10591000303330228DF87F308DF87E2020AB21E7A8
:105920000799374E21F08001364B079111990322D8
:105930004FF0000B08924729D8BF1E460D92CDF8B4
:105940004CB09DF86F70FEF7E0BD139B169A9D1842
:1059500005EB0B030D9323EAE37391E508983946B1
:105960000022002308F038F900287FF460AEC5F16A
:1059700001051D952C4452E5139B0D9AC3F10103BB
:105980001A4413460D9266E7079B13F001037FF458
:10599000F2AE13930D9B23EAE37371E5BBF1000FA5
:1059A00002D1079BD80707D5169B5D1C05EB0B039F
:1059B0000D9323EAE37363E501230D9360E50E98ED
:1059C00098F8013005680430002D0E90A046BEF610
:1059D000EBAC4FF0FF35FEF7E7BC0A9A0C231360DF
:1059E0004FF0FF30FEF7CDBE0DF17E03BAE68DF825
:1059F0006F10FFF729BB00BF676666668CE600087C
:105A000060E600085CE600088DF86F10FFF70FB93C
:105A10008DF86F10FFF7B8BA8DF86F10FFF79FBAC7
:105A20008DF86F10FFF774BA8DF86F10FFF73EBA5C
:105A30008DF86F10FFF710BA8DF86F10FFF732B9BD
:105A40008DF86F10FFF7B5B98DF86F10FFF768B9D3
:105A50002DE9F04FC1B01C460891164605460A9044
:105A600003F03EF803680E9418461793FEF714FCF3
:105A700016901DB1AB6B002B00F0BD830898B0F9F8
:105A80000C2093B2990407D4416E42F4005321F4E0
:105A90000051838141669BB21A0740F1E482089A63
:105AA0001269002A00F0DF8203F01A030A2B00F0CB
:105AB000E88200231A46B0460DF1C00ADFF85C9474
:105AC000129319930B9325932493CDF88CA01492E1
:105AD000159298F800304446EBB1252B02D11AE01C
:105AE000252B03D014F8013F002BF9D1C8EB040596
:105AF0008DB1249B259A01332A44072BCAF80080D4
:105B0000CAF804502592249300F330830AF1080A5E
:105B10000B9B2B440B932378002B00F0EA814FF072
:105B2000FF3B5D4600231A468DF86F3019460C93F3
:105B30000793637804F1010808F10108A3F120003C
:105B4000582800F24086DFE810F0DC053E063E06ED
:105B5000E5053E063E063E063E063E063E0659006A
:105B6000AA053E066600AA033E06C603CD03CD0382
:105B7000CD03CD03CD03CD03CD03CD03CD033E0631
:105B80003E063E063E063E063E063E063E063E06F5
:105B90003E06DD0357053E0657053E063E063E0619
:105BA0003E06A2053E063E06BC043E063E063E06F6
:105BB0003E063E06E4043E063E0611053E063E064F
:105BC0003E063E063E063E063E063E063E063E06B5
:105BD00044058D0457055705570595048D043E0669
:105BE0003E069D043E06A8044A046D00B0053E062C
:105BF000B8053E0621043E063E06ED050E9C2368D0
:105C000018460C932346002803F104030E9306DA8A
:105C10000C9B5B420C93079B43F00403079398F89B
:105C2000003089E7AB460E9A002707983021782389
:105C3000BB4514688DF8701002F104024FF00005A6
:105C40008DF871308DF86F7040F00201C0F2D1858F
:105C500020F0800141F00201079154EA05010E9203
:105C60001193AC4800F0318130AE230943EA05734B
:105C7000290904F00F020D461C46835C06F8013D1D
:105C800054EA0503F1D130AB9B1B0D930D9B5B4593
:105C9000B8BF5B4609930023139317B1099B0133E7
:105CA0000993079B13F002030F9302D0099B023361
:105CB0000993079B13F08403109340F018810C9B09
:105CC000099A9D1A002D40F31281102D2599249ACE
:105CD000914F27DD189650461024BA46089E2F464D
:105CE0000A9D04E0103F102F00F1080016DD01327C
:105CF000894B1031072A2591249280E81800F1DDA4
:105D000023AA3146284604F0CFF8002840F0F88056
:105D1000103F102F30A82599249AE8DC3D465746BD
:105D20008246189E01326C18072A25942492CAF8DC
:105D30000070CAF8045000F3D0809DF86F700AF12B
:105D4000080A77B1249B013401330DF16F01012260
:105D5000072B259424938AE8060000F31E820AF19B
:105D6000080A0F9B6BB1249B023401331CA9022249
:105D7000072B259424938AE8060000F31A820AF17F
:105D8000080A109B802B00F02A810D9BC3EB0B07A8
:105D9000002F33DD614A102F249B0F9222DD224613
:105DA0004FF0100B0A9D089C04E0103F102F0AF1E1
:105DB000080A16DD01331032072B259224938AE856
:105DC000000AF2DD23AA2146284604F06DF80028D7
:105DD00040F09680103F102F0DF1C00A259A249BA9
:105DE000E8DC144601330F9A3C44072B2594249396
:105DF0008AE8840000F3C5810AF1080A079BDD05E3
:105E000000F18E80249B0D9901330C44072B2594BF
:105E1000CAF80060CAF80410249300F3E0810AF184
:105E2000080A079B580736D50C9B099A9D1A002D26
:105E300031DD102D249B384F22DD22461026DDF85F
:105E400028B0089C04E0103D102D0AF1080A16DD68
:105E5000013331491032072B259224938AE84200FE
:105E6000F1DD23AA2146584604F01EF8002847D148
:105E7000103D102D0DF1C00A259A249BE8DC144634
:105E800001332C44072B25942493CAF80070CAF8D8
:105E9000045000F38D840B9B0C9A09998A42ACBF85
:105EA0009B185B180B93002C40F057810023249320
:105EB0000DF1C00A0DE60027BB458DF86F70C0F2EA
:105EC000A284079B23F080030793BBF1000F00F02F
:105ED0006784002400250027C6E623AA08990A98AB
:105EE00003F0E2FF60B99DF86F700DF1C00A259CC8
:105EF00027E7259B23B10A9823AA089903F0D4FF2A
:105F0000089B9B89590600F10E870B9841B0BDE8AC
:105F1000F08F00BF78E60008A8E60008B8E60008A1
:105F2000119B652B40F3BB80149815990022002328
:105F300007F052FE002800F06781249BB04901332E
:105F400001340122072B259424938AE8060000F3EC
:105F50008B860AF1080A1D9B129A934203DB079B6A
:105F6000D8077FF55EAF249B16990133179A0C442E
:105F7000072B2594CAF80020CAF80410249300F3D4
:105F80002B870AF1080A129B5D1E002D7FF749AF8F
:105F90009C4A102D249B0F9240F3178110260A9FD4
:105FA000DDF820B005E00AF1080A103D102D40F39D
:105FB0000C8101331034072B25942493CAF80090E8
:105FC000CAF80460EFDD23AA5946384603F06CFF97
:105FD000002895D10DF1C00A259C249BE5E70C9B78
:105FE000099A9F1A002F7FF7D0AE864A102F249B64
:105FF0000F922BDD52462146BA46102537460A9CA1
:10600000089E06E0AAF1100ABAF1100F02F1080288
:1060100018DD01331031072B25912493C2F800902D
:106020005560EFDD23AA3146204603F03DFF0028EE
:106030007FF466AFAAF1100ABAF1100F30AA2599C1
:10604000249BE6DC3E460C465746924601330F9AA7
:106050003C44072B259424938AE8840000F3D684DB
:106060000AF1080A91E608990A9801F0EBF800286D
:1060700040F05986089B9B8903F01A030A2B7FF492
:1060800018AD0899B1F90E30002BFFF612AD23467A
:1060900032460A9801F0A0F841B0BDE8F08F129B9B
:1060A000249D012B04F1010405F1010540F35D84F9
:1060B0000123072D2594CAF800602495CAF80430FE
:1060C00000F36E840AF1080A169A0135179B1444EE
:1060D000072D25942495CAF80030CAF8042000F34F
:1060E0006D840AF1080A002314981599002207F01C
:1060F00073FD129B002800F02A835E1E002E40F3E1
:106100003583404B102E0F9340F36984CDF83480D3
:106110001027B046DDF828B0089E07E00AF1080A0B
:10612000A8F11008B8F1100F40F35684013510346F
:10613000072D25942495CAF80090CAF80470EDDD67
:1061400023AA3146584603F0AFFE00287FF4D8AEAC
:106150000DF1C00A259C249DE2E723AA08990A981C
:1061600003F0A2FE00283FF4A1AEC9E623AA0899D5
:106170000A9803F099FE00287FF4C2AE0DF1C00A20
:10618000C6E423AA08990A9803F08EFE00287FF43B
:10619000B7AE0DF1C00A259C30E623AA08990A98EB
:1061A00003F082FE00287FF4ABAE0DF1C00A259CFF
:1061B000D7E523AA08990A9803F076FE00287FF411
:1061C0009FAE0DF1C00A259CDBE501330F9A2C44EC
:1061D000072B259424938AE824007FF720AE23AA76
:1061E00008990A9803F060FE00287FF489AE259C88
:1061F0000DF1C00A15E60A9802F07CF93EE400BFF2
:1062000094E60008B8E600081D9D002D40F33B858C
:10621000139B129A9342A8BF1346002B1D460DDD17
:10622000249B2C440133072B2594CAF80060CAF83C
:106230000450249300F30E860AF1080A139B002DE4
:10624000A8BF5B1B002B1D4640F32D83C64A102DB3
:10625000249B0F9240F3FB8422461027DDF828B0E0
:10626000089C05E00AF1080A103D102D40F3EE8469
:1062700001331032072B25922493CAF80090CAF8F4
:106280000470EFDD23AA2146584603F00DFE0028D6
:106290007FF436AE0DF1C00A259A249BE4E798F806
:1062A000003008F101042A2B00F04587A3F13000EB
:1062B000092898BF002500F2D78614F8013B05EBAA
:1062C000850500EB4505A3F130000928F5D945EA1D
:1062D000E575A04632E4079B43F08003079398F8E6
:1062E000003029E4A3F1300000231C4618F8013BDC
:1062F00004EB840400EB4404A3F130000928F5D931
:106300000C941BE41193AB46002A40F03B87079B9B
:1063100043F010030793079B9F0640F18A820E9C6F
:10632000073424F00704D4E9002304F108011D46D2
:1063300014460E91002A73F10003C0F27483BBF17E
:10634000000F9DF86F70C0F29482079B23F08003CA
:10635000079354EA050338D0002D08BF0A2C39D31F
:1063600030AE204629460A22002307F015FD3032C0
:1063700006F8012D2046294600230A2207F00CFDCD
:1063800004460D4654EA0503EBD17CE41193AB4679
:10639000002A40F0F386079A12F0200300F0C7802D
:1063A0000E9C0027073424F0070303F10801BB45C6
:1063B0000E91D3E900458DF86F70C0F25A8222F039
:1063C0008003079354EA0503C6D1BBF1000F00F028
:1063D000E881002440AE303406F8414D53E4119377
:1063E000AB46002A40F0C686079A12F0200375D00B
:1063F0000E9C0027073424F0070303F10801BB4576
:106400000E91D3E900458DF86F700BDB22F080030D
:10641000079354EA050306D1BBF1000F00F0048690
:1064200000240025002730AEE20842EA4572E90860
:1064300004F007030D461446303354EA050206F80B
:10644000013DF1D1079AD2077FF51DAC302B3FF407
:106450001AAC3022731E06F8012C30AAD21A0D9203
:106460001E4613E41193AB46002A3FF454AF8DF857
:106470006F1050E7079B43F04003079398F80030F4
:10648000FFF75ABB98F800306C2B00F09B840798FC
:1064900040F010000790FFF74FBB002A40F08686BF
:1064A000079B9F0640F10E830E9A134604330E930A
:1064B0000B9B1168DD171A462B46C1E90023FFF735
:1064C00008BB1193AB46002A40F06486079B43F05B
:1064D00010030793079A12F0200389D1079911F04E
:1064E000100200F0B0820E98BBF1000F0246046863
:1064F0008DF86F3002F104024FF00005C0F24785BD
:1065000021F08001079154EA05010E9284D01F46C4
:1065100089E71193AB46002A40F03886079B43F089
:1065200010030793079A12F020037FF439AF0799FD
:1065300011F0100200F08A810E98BBF1000F0246A4
:1065400004688DF86F3002F104024FF00005C0F2CC
:10655000218521F08001079154EA05010E921F4622
:106560007FF4FAAE31E700BFB8E600081193AB46FE
:10657000002A40F01786079BC0489C0640F1DC804B
:106580000E9C073424F0070303F108020E92D3E9AE
:106590000045079A12F0010700F0398154EA05031B
:1065A0003FF489AC9DF8442000278DF87120079AAC
:1065B0003023BB458DF870308DF86F7042F00203C8
:1065C000C0F2058522F0800343F002030793FFF732
:1065D0004BBB0E9911930A68002301201F468DF8CA
:1065E0006F309B4613930B1D09908DF898200E93E6
:1065F0000D9026AEFFF755BB1193AB46002A40F035
:10660000CD85079B0E9C1D0704F1070440F1148300
:1066100024F0070303F108020E921A685B681492D3
:106620001593159B149D23F00044284621464FF0F6
:10663000FF32934B07F002FB002840F0758228469A
:1066400021464FF0FF328E4B07F0DAFA002840F077
:106650006B82149815990022002307F0C7FA0028CE
:1066600040F0AF849DF86F700799864E21F080014D
:10667000854B0791119903224FF0000B099247298E
:10668000D8BF1E460D92CDF84CB0FFF706BB079B56
:1066900043F00803079398F80030FFF74DBA98F8D5
:1066A000003001222B21FFF747BA079B43F020035C
:1066B000079398F80030FFF73FBA0E9AAB4616687A
:1066C000002511938DF86F50141D002E00F050849A
:1066D000BBF1000FC0F28D835A462946304602F0C6
:1066E00023FD002800F09484AB46831B0D9323EA1E
:1066F000E3730E940993CDF84CB09DF86F70FFF7DB
:10670000CCBA98F8003000297FF416AA0122202183
:10671000FFF712BA079B43F00103079398F8003084
:10672000FFF70ABA1193AB46002A40F04685079B53
:1067300056489C063FF524AF079BD90640F1B5812A
:106740000E9A00251346043314680E9321E7013B8B
:10675000013501361C44072DCAF8006024952594A4
:10676000CAF8043000F345810AF1080A199A013584
:1067700014441FAB072D25942495CAF80420CAF8A9
:1067800000307FF74CAB23AA08990A9803F08CFBE2
:1067900000287FF4B5AB0DF1C00A259CFFF741BB83
:1067A0005F464FF0000BCDF834B030AEFFF76EBA55
:1067B00023AA08990A9803F077FB00287FF4A0AB7E
:1067C000259CFFF768BB1193002A40F0FA84119AC8
:1067D000002A3FF48EAB002301211F4609918DF85A
:1067E00098208DF86F309B4613930D9126AEFFF7DE
:1067F00058BA26480791119354EA05030E924FF0B8
:1068000000077FF431AA00240025FFF72DBABBF161
:10681000000F8DF86F70C0F2348222F0800307936E
:1068200054EA05037FF420AABBF1000F7FF451ABBB
:10683000B6E7079BDE0640F15C810E9A13461C68A2
:106840000433E5170E9322462B4673E5079911F0A2
:10685000400740F06C820E9ABBF1000F134614689B
:106860008DF86F7003F104034FF0000580F2508142
:106870000E9354EA05037FF46FADABE564E60008C0
:10688000FFFFEF7F58E6000854E6000878E60008AE
:1068900023AA08990A9803F007FB00287FF430AB7D
:1068A000259C0DF1C00A139A1D9B32441746129A7B
:1068B000934249DB079AD20746D412990E44F51B3E
:1068C000CB1A9D42A8BF1D46002D2E460DDD249AF1
:1068D0002C440132072A2594CAF80070CAF80450E3
:1068E000249200F330830AF1080A002EB4BF1D463B
:1068F0009D1B002D7FF795AA8A4A102D249B0F928D
:106900007FF763AC10260A9FDDF820B005E00AF19E
:10691000080A103D102D7FF758AC01331034072BB7
:1069200025942493CAF80090CAF80460EFDD23AAE6
:106930005946384603F0B8FA00287FF4E1AA0DF171
:10694000C00A259C249BE4E7249A169801321799E3
:106950000444072A2594CAF80010CAF804002492B7
:1069600000F387820AF1080AA7E7079BDF073FF5D4
:106970009FAB0123072D2594CAF800602495CAF81F
:1069800004307FF7F1AE23AA08990A9803F08CFA35
:1069900000287FF4B5AA0DF1C00A259C249DE5E6E8
:1069A00023AA08990A9803F07FFA00287FF4A8AA7E
:1069B0000DF1C00A259C249DFFF786BB23AA0899E8
:1069C0000A9803F071FA00287FF49AAA0DF1C00A20
:1069D000259C249DFFF787BB4646DDF834800135B2
:1069E0000F9B3444072D259424958AE848007FF7AF
:1069F000BBAE23AA08990A9803F056FA00287FF440
:106A00007FAA259C249D0DF1C00AAFE623AA089910
:106A10000A9803F049FA00287FF472AA0DF1C00A1F
:106A2000259CFFF7B2B964424FF02D0765EB450591
:106A3000BBF1000F8DF86F70FFF68EAC079B23F053
:106A40008003079388E4079911F0400716D00E9849
:106A5000BBF1000F034604888DF86F2003F1040397
:106A60004FF00005C0F2A58121F08001079154EAA2
:106A700005010E933FF4D0AC1746D4E40E9ABBF157
:106A8000000F134614688DF86F7003F104034FF084
:106A90000005C0F28E81079A0E9322F080020792C1
:106AA00054EA05027FF4BFACB6E40E9A079B0025BA
:106AB00013F0400F134603F104030CBF146814884D
:106AC0000E9366E5079BDE060BD4079B5D0608D593
:106AD0000E9A136804320E92BDF82C201A80FEF72D
:106AE000F8BF0E9A136804320E920B9A1A60FEF7E2
:106AF000F0BF079B0E9A13F0400F13463FF49FAE72
:106B0000B2F900400433E5170E9322462B4611E4F8
:106B1000079A0E9322F08002079254EA05027FF44E
:106B20001BAC52E4B8E60008149C22462046159C93
:106B30002346214607F082F8002840F0BE82119BD0
:106B4000BBF1FF3F23F020030D9300F04382472B5E
:106B500000F03281079B43F480731093159B1F1E36
:106B6000149B0993B7BF3B46002303F100472D2335
:106B70000F93119B662B00F01082462B00F0FC80D7
:106B80000D9B21A8452B18BF5D461EA908BF0BF120
:106B90000105049003911DA802213B460290099A29
:106BA000019500910A9800F047FC119B0646672B5F
:106BB00040F04982079BDA0740F171827419099805
:106BC00039460022002307F007F8002840F04F81E3
:106BD000219B9C4206D930215A1C21921970219B7D
:106BE0009C42F9D89B1B12930D9B472B00F02B81E5
:106BF000119B652B40F33682119B662B1D9B1393D3
:106C000000F0F881139A12998A42C0F2E681079B3C
:106C1000DB0700F13B8222EAE2730D9267221192B8
:106C20000F9A002A40F005810993109B9346079321
:106C30009DF86F70FFF731B824F0070423681493B0
:106C40006368159304F108030E93EAE414460133D4
:106C50000F9A2C44072B259424938AE824003FF7AD
:106C600017AE0AF1080A1EE623AA08990A9803F04B
:106C70001BF900287FF444A90DF1C00A259CFFF7F9
:106C80006AB90E9AB8E5249BB64901330134012252
:106C9000072B259424938AE8060060DC0AF1080A91
:106CA0002DB9129B1BB9079BD9077FF5BAA8249B66
:106CB00016990133179A0C44072B2594CAF8002023
:106CC000CAF80410249300F3D3810AF1080A6D4234
:106CD000002D40F3A080A44A102D0F9240F3D780DE
:106CE00022461027DDF828B0089C05E00AF1080AC2
:106CF000103D102D40F3CA8001331032072B25922E
:106D00002493CAF80090CAF80470EFDD23AA214644
:106D1000584603F0C9F800287FF4F2A80DF1C00A24
:106D2000259A249BE4E74FF0FF30FFF7EFB80E9869
:106D3000BBF1000F034604888DF86F2003F10403B4
:106D40004FF00005C0F2AD8121F08001079154EAB7
:106D500005010E9317467FF4FFAAFFF736BB23AA5F
:106D600008990A9803F0A0F800287FF4C9A80DF14B
:106D7000C00A1D9D259C93E721A81EA9049003919C
:106D80001DA803210290099A3B46CDF804B000915A
:106D90000A9800F051FB5D460646119B7419462B7C
:106DA0007FF40DAF3378302B00F0A5811D9D2C446E
:106DB00005E70E93FFF736BBBBF1000F08BF4FF09E
:106DC000010BC7E6079B08F1010843F02003079376
:106DD00098F80030FEF7B0BE23AA08990A9803F08D
:106DE00063F800287FF48CA80DF1C00A259CFFF7FA
:106DF000CAB83046FDF750FAAB46034676E423AAFC
:106E000008990A9803F050F800287FF479A8259C87
:106E1000249B0DF1C00A129901330C44072B2594D1
:106E20002493CAF80060CAF804107EF7F8AFFFF7A1
:106E3000D6B90993109B2D2707938DF86F704FF0EB
:106E4000000BFEF72BBF1D9BD81C2CDB9B452ADBC0
:106E50001393D7E623AA08990A9803F025F8002887
:106E60007FF44EA80DF1C00A259CFFF7E7B9234631
:106E7000B8E623AA08990A9803F016F800287FF4C8
:106E80003FA80DF1C00A1D9B259C16E51446013351
:106E90000F9A2C44072B259424938AE82400AEDC17
:106EA0000AF1080AB7E7119A023A1192013B9DF8DC
:106EB0004420002B1D93B8BF5B428DF87C20B4BFEB
:106EC0002D222B22092B8DF87D2040F3EE800DF131
:106ED0008B000446254A82FB0321DA17C2EBA1018D
:106EE00001EB8102A3EB4202303209290B4604F880
:106EF000012DEFDC21463033DAB201F8012D884252
:106F000040F258810DF17E01234601E013F8012B78
:106F1000984201F8012BF9D1431C1B1B0DF17E0295
:106F200013441FAA9B1A129A1993012A13440D9312
:106F300040F3EF800D9B169A134400220D93139299
:106F400023EAE3736CE623AA08990A9802F0ACFFDF
:106F500000287EF4D5AF1D9B129A259CD31A0DF103
:106F6000C00AC2E494E60008B8E6000867666666F0
:106F70005B46062B28BF06230D9323EAE373B34633
:106F8000374613960E940993904EFEF786BE0E92E6
:106F9000FFF748BA0E921F466BE421A81EA9049081
:106FA00003911DA803210290099A3B46CDF804B035
:106FB00000910A9800F040FA5D46064600EB0B048B
:106FC000F0E62D231F468DF86F30FFF74DBB07937A
:106FD000FEF74ABE4FF0060BBCE5169A129B13440F
:106FE000139A0D93002A40F39E80672223EAE373ED
:106FF000119215E6002B40F3AC80BBF1000F71D16C
:10700000079AD1076ED41A4623EAE3730D9207E676
:107010002BEAEB73CDF834B0099383460E941390AA
:107020009DF86F70FEF739BE079B5F46DB0705D5FD
:1070300040AE302306F8413DFEF725BECDF834B012
:1070400030AEFEF723BE119B472B7FF4B7AD079BF5
:10705000DC073FF5A2AE219B9B1B12930D9B472B98
:107060003FF4F1AE1D9B21E7A0460025FEF766BD6B
:1070700023AA08990A9802F017FF00287EF440AF6F
:107080000DF1C00A1D9D259C249B20E6169A139B9A
:10709000134467220D93119223EAE373C0E5219B09
:1070A000A0E50E931746FFF7E4BB303330228DF88E
:1070B0007F308DF87E2020AB33E70799444E21F0D6
:1070C0008001444B0791119903224FF0000B099264
:1070D0004729D8BF1E460D92CDF84CB09DF86F7071
:1070E000FEF7DBBD139B169A9D1805EB0B030D9362
:1070F00023EAE37394E5099839460022002306F059
:107100006BFD00287FF452AEC5F101051D952C449E
:1071100055E5079B13F001037FF40CAF13930D9B10
:1071200023EAE3737CE5139B0D9AC3F101031A4430
:1071300013460D9259E70E9898F80130056804300F
:10714000002D0E90A046BEF6F7AC4FF0FF35FEF7CF
:10715000F3BCBBF1000F02D1079BDA0707D5169BE2
:107160005D1C05EB0B030D9323EAE37358E5012344
:107170000D9355E58DF86F10FFF736B98DF86F1048
:10718000FFF709B98DF86F10FFF7C1B88DF86F10D0
:10719000FFF7C4B98DF86F10FFF798B98DF86F102D
:1071A000FFF72FBA8DF86F10FFF7E5B98DF86F1064
:1071B000FFF776B90DF17E03B3E68DF86F10FFF798
:1071C000B6BA8DF86F10FFF702BB00BF8CE600085F
:1071D00060E600085CE60008F0B50C468989ADF26F
:1071E0006C4D656E21F00201666AADF80C10E16924
:1071F000E789199500250791099606951AAE4FF46F
:10720000806569460096049602950595ADF80E7066
:107210000646FEF71DFC051E07DB3046694601F0F9
:10722000D5F8002818BF4FF0FF35BDF80C305B06CD
:1072300003D5A38943F04003A38128460DF26C4D8A
:10724000F0BD00BF38B5304B054618680C4610B18C
:10725000836B002B38D0B4F90C2093B218070CD5EF
:107260002069A8B113F001021ED0636900225B42BD
:10727000A361A260F0B1002038BDD9063BD5580704
:1072800025D4206942F00803A3819BB20028E9D1EC
:1072900003F42072B2F5007FE4D02846214601F0C5
:1072A00053FCA3892069DDE7990758BF6269A26092
:1072B0000028E0D1B4F90C301A06DDD543F04003C4
:1072C000A3814FF0FF3038BD01F014F9C3E7216B03
:1072D00051B104F14003994204D0284601F062F90B
:1072E000B4F90C20002323632069002322F0240238
:1072F00084E80900C6E742F0400209232B604FF002
:10730000FF30A28138BD00BF580400202DE9F04FA6
:1073100003690F6983B09F4200F38980013F01F147
:10732000140600F1140A56F827305AF827200133C2
:10733000B2FBF3F8BB00009306EB0309534401933F
:10734000B8F1000F3BD000231C46B446D6465CF88B
:1073500004BBDEF800501FFA8BF208FB02324FEA42
:107360001B4B130C08FB0B3392B2A41A1FFA83FBBE
:10737000AAB22244CBEB154404EB224492B242EA77
:107380000442E1454EF8042B4FEA24444FEA1343EC
:10739000DDD2009B5AF803308BB9019C231F9A451C
:1073A0000CD254F8043C4BB9A4F1080302E01A686B
:1073B000043B1AB99A4507F1FF37F8D30761044631
:1073C00002F06EF900282EDB00235546194608F11D
:1073D000010856F8042B2B6890B2081A120C99B2C7
:1073E000C2EB1343421803EB224392B242EA034238
:1073F000B14545F8042B4FEA2341EAD25AF8272039
:107400000AEB87037AB91A1F92450BD253F8042C62
:1074100042B9083B02E01A68043B1AB99A4507F1E1
:10742000FF37F8D32761404603B0BDE8F08F002056
:1074300003B0BDE8F08F00BF2DE9F04F016C99B0AB
:10744000814692469B46259C49B1426C012393405C
:107450008B604A6001F03EFF0023C9F84030BBF169
:10746000000FD84633DB00232360A34B1A4608EAFB
:107470000303934214D0002200235046594606F0DD
:10748000ABFB054648B3249A01231360269B002BCF
:1074900000F0C58099481860013819B0BDE8F08F38
:1074A00042F20F73249A1360BAF1000F00F0A28029
:1074B0009348269B002BF0D0C378002B00F0B180BE
:1074C00000F10803269A136019B0BDE8F08F01237C
:1074D0002BF000482360C346C7E716AA17AB0192FA
:1074E000009352465B46484602F08EF95FEA185414
:1074F000099040F08880169D179C2C4404F232437A
:10750000202B40F38A82C3F1400304F2124008FAB0
:1075100003F82AFA00F040EA080006F07FF8012399
:10752000013CA1F1F8710F930022764B05F038FF72
:107530006BA3D3E9002306F0E7F86BA3D3E900239C
:1075400005F030FF064620460F4606F077F868A3A0
:10755000D3E9002306F0D8F802460B4630463946F8
:1075600005F020FF06460F4606F07EFB0022039042
:1075700000233046394606F039FB002840F02982C6
:10758000039E162E00F222825F49524601EBC6018D
:107590005B46D1E9000106F047FB002800F042827B
:1075A000731E039300230D932C1B631E049300F1A1
:1075B0002B8200230693039B002BC0F21C82049AAB
:1075C0000C9311461944002304910B93229B092B21
:1075D00029D8052B40F35286043B22930025229B99
:1075E000023B032B00F22F86DFE813F02703200273
:1075F00032035304424B454AC8F31300002814BF1A
:107600001846104655E7CBF3130343F07F510F950F
:107610005046A4F2FF3441F44011169D84E73C48E3
:107620003BE7C31C4EE70021C9F8441048462291AD
:1076300001F028FE4FF0FF33229A07930E930123A7
:1076400008902392C9F840000A93179B002BC0F2C0
:10765000CA80039A0E2A00F3C6802B4B03EBC203A9
:1076600018CBCDE90434239B002BC0F2FC82564694
:107670005F46DDE904AB304652465B46394606F0CC
:107680006DF906F0F1FA044605F0D8FF52465B4664
:1076900006F03AF802460B463046394605F080FEC1
:1076A000079E089F04F13005012E3D7002460B46EF
:1076B00007F101055ED00022164B06F025F80022E6
:1076C000002306460F4606F087FA002878D1CDF849
:1076D0001890DDF81CA0DDF820B0DDE9048928E071
:1076E00061436F63A787D23FB3C8608B288AC63FC8
:1076F000FB799F501344D33F0000F07F95E60008CC
:10770000D4E600080000F83FE8E60008C8E60008F4
:1077100094E60008000024400022C34B05F0F4FF6B
:107720000022002306460F4606F056FA002840F0D5
:10773000B38342464B463046394606F00FF906F011
:1077400093FA044605F07AFF42464B4605F0DCFF0B
:1077500002460B463046394605F022FE04F130065B
:1077600005F8016BCBEB0506564502460B46D3D117
:10777000DDF818901046194605F014FE06460F462F
:1077800002460B46DDE9040106F030FA40B9DDE9B6
:10779000040132463B4606F01FFA88B1E3070FD5D5
:1077A00015F8014C6B1E089A04E09A4200F02C84F4
:1077B00013F8014D392C03F10105F6D001341C708A
:1077C0000999484601F086FD0022039B2A70249AFD
:1077D00001331360269B002B00F0A88308981D60DE
:1077E00019B0BDE8F08F0A9A002A00F01281229A9F
:1077F000012A40F35A82079B0B9A5F1EBA42C0F2DD
:107800009883D71B079B002BC0F28C84069D079B97
:10781000069A01211A440692049A48461A44049290
:1078200001F0F0FD064665B1049900290B4608DD1C
:10783000A942A8BF2B46069AED1AD21ACB1A069275
:1078400004930B9B002B40F3FD820A9A002A00F060
:107850000382002F00F0008231463A46484601F08C
:1078600079FEDDF82480014642460646484601F08E
:10787000D3FD41460446484601F02CFD0B9BDB1B23
:107880000B9340F0E8810121484601F0BBFD0C9BC1
:107890008046002B00F01B8201461A46484601F044
:1078A00059FE229B8046012B40F3F9820027D8F82D
:1078B000103008EB8303186901F056FDC0F1200079
:1078C000049A104410F01F0000F0F881C0F120036A
:1078D000042B40F3CB84069BC0F11C0003440693A9
:1078E0001346034405440493069B002B05DD214603
:1078F0001A46484601F07EFE0446049B002B05DD37
:1079000041461A46484601F075FE80460D9B002B05
:1079100040F07D82079B002B40F396820A9B002B50
:1079200040F0F681DDF820A0079F554604E021468F
:10793000484601F0D9FC044641462046FFF7E6FCE4
:10794000303005F8010BCAEB0503BB424FF00A02C9
:107950004FF00003EBDB089B079A8246012AACBF7D
:107960009B1801331D464FF0000B2146012248466B
:1079700001F040FE4146099001F092FE002840F3DC
:107980000E8315F8012C6B1E089904E08B4200F061
:10799000798213F8012D392A03F10105F6D001325D
:1079A0001A704146484601F095FC002E3FF408AF9E
:1079B000BBF1000F05D0B34503D05946484601F04E
:1079C00089FC3146484601F085FCF9E601230D9318
:1079D000EAE5DDF80C80404605F030FE02460B4635
:1079E0003046394606F0F8F800287FF4C9AD08F1B2
:1079F000FF330393C4E5069A039BD21A5B420B93B1
:107A0000002306920C93E1E55B4206930023049366
:107A1000D1E50B9F069D0A9E05E7C3F120080AFAEF
:107A200008F07AE50D90BFE50000244000230A939A
:107A3000039B239A13440E930133002B079340F3C7
:107A40008582079C26460021172EC9F844100BD9C1
:107A5000012204235B0003F11400B042114602F13D
:107A60000102F7D9C9F84410484601F00BFC0E2C6E
:107A70000890C9F840003FF6E8AD002D3FF4E5ADB1
:107A80005746D8460399CDE91078002940F39382F0
:107A9000924B01F00F020E1103EBC203F006D3E983
:107AA000004540F14E828E4B5046D3E9082359469B
:107AB00005F054FF82468B4606F00F064FF0030890
:107AC00086B1874FF10709D5D7E90023204629461B
:107AD00005F01AFE04460D4608F10108761007F17C
